:10000000003C0120EDBC0200C1DD0200C1DD0200A8
:10001000C1DD0200C1DD0200C1DD0200C1DD020060
:10002000C1DD0200C1DD0200C1DD0200C1DD020050
:0C003000C1DD0200C1DD02006D330100E3
:10003C002DE9F047A8B004460078A0F1A0015C2996
:10004C0000F26780DFE811F0BC00DF00F7000B0165
:10005C00150142017D01A201AD01B601D2010F02D1
:10006C003E0265027802840292029D02A602AF0251
:10007C00B502C002C602FA020F031A0326033603A6
:10008C004103B900B900B900B900B900B900B90011
:10009C00B900B900B900B900B900B900B900B9008C
:1000AC00B900B900B900B900B900B900B900B9007C
:1000BC00B900B900B9004B035403B900B900B90039
:1000CC00B900B900B900B900B9005D03B900B900B5
:1000DC006403B9008603B900B900B900B9009003F4
:1000EC00B900B900B900B900B900B900B900B9003C
:1000FC00B900B900B900B900B9005D005D00990301
:10010C00DD0A60681221002808BF0221617001F02D
:10011C007CBA4D2800F25180A678DFE810F0370346
:10012C004E004703510331044E004E005A046B0439
:10013C00B9044E004E004E004E004E004E00C2045C
:10014C00CC044E004E00F904010610064E001B06AE
:10015C002A064E00350650064E0079069D06A0066E
:10016C00AD06D1064E004E004E004E004E001B0751
:10017C004E0029073A074B074E004E004E004E002A
:10018C004E004E004E004E004E004E004E004E00F3
:10019C004E0064077F0799074E004E004E004E003C
:1001AC00B3074E00DD074E00EE074E004E004E002A
:1001BC004E000E0825086B087508122001F024BAB1
:1001CC006068002801F01F82A168002901F01B82E1
:1001DC0001783A20002908BF3B200BAD00211122E9
:1001EC002B4630F0F5F90028607041F00E82D4E90E
:1001FC0001109DF82C204270097800F8021B691C34
:10020C00102200F002BE6168002901F0FC81087820
:10021C004A783A258B7800288DF82C2008BF3B258E
:10022C000BA80130002B01F005800331102230F0B7
:10023C00D3FB01F001B86668002E01F0E4810BA835
:10024C00112131F039F9022060703068002800F07B
:10025C00F987F288317920F0B6FE01F0D5B96068E3
:10026C00002801F0D081418800781FF01DFA01F0C0
:10027C00CBB96168002901F0C681A068002801F0A3
:10028C00C28111F8012B00F8012B31F073F9606871
:10029C000178002901F08881DFF8E80E0BAE00250B
:1002AC0006F108080788AF4201F0AB81A9B204201F
:1002BC000022142300962CF031FF607020B930F02E
:1002CC0009FE002801F0FE810135ECE7606800288A
:1002DC0001F099810178002900F0D487DFF8A40E91
:1002EC000DF12C0A00250DF11C0800260AF1080955
:1002FC00CDE90955CDE907550788B74201F0B28120
:10030C00B1B2042000221423CDF800A02CF006FF7B
:10031C006070A0B960684946082204302FF0BAF822
:10032C00002801F09D8155B96068414608220430CF
:10033C002FF0B0F800284FF0000508BF3546013605
:10034C00DBE76068002801F05E810178002900F08D
:10035C00B387DFF8300E0DF12C09002709F10808DE
:10036C000588BD4201F05181BEB204200022142345
:10037C00CDF8009031462CF0D1FE607020B930F0F1
:10038C00A9FD002801F080810137EAE761680029A6
:10039C0001F039810A88488804312CF0F1FC01F015
:1003AC0033B9DFF8E40D4FF48071007823F09CF939
:1003BC0001F027B96068002801F025814188008888
:1003CC002CF08CF968B9606801224188008826F00D
:1003DC00C9FE6068418800882CF080F9002801F083
:1003EC006A8161680979417001F00BB96168002973
:1003FC0000F01587DFF8945D087885F8260095F8ED
:10040C0072204888E882087A287648896883486888
:10041C00A8628889A884887B85F83800C87B6871B5
:10042C00087CE8704869286388696863087F8242A1
:10043C0002D027F0C3FE616805F139001D3131F09F
:10044C00F0F895F82600082840F0F186DFF83C2DEE
:10045C002120742130F04CFE00200221002529F0CF
:10046C00E7FE00F0E5BE6068002800F0DA86007850
:10047C0027F0A4FE6168DFF8145D287E4978884275
:10048C0012D029760BA9E1202CF0A6FC60684178EB
:10049C009DF82C00884207D08DF82C100BA9E12078
:1004AC0028F024F860684078012101FA00F0A86275
:1004BC002EF0B4FC00260120A5F8706021F094FE0B
:1004CC0000F0B0BE6068002801F09D800188408873
:1004DC00ADF81C00ADF82C100BA9532028F006F831
:1004EC0007A9502028F002F80DF11B01E1202CF097
:1004FC0073FC60689DF81B100079814201F08180CB
:10050C008DF81B000DF11B01E12027F0EFFF01F02E
:10051C0078B86168002901F07680DFF8740C31F04E
:10052C0029F86068DFF86C2C0189807A1180DFF87B
:10053C00681C087001F065B86068002801F06380E1
:10054C00002161708178008824F0B0FC01F05DB866
:10055C00A068002801F057800020607027F0BCFADA
:10056C00002800F0AD86A16800F0FBBD6068002893
:10057C0001F049800021617000780AF0C7FF01F09A
:10058C0044B86068002801F03E80007827F0F2FF44
:10059C0001F03AB8A068002801F0358000206070A6
:1005AC0030F010FD0DE0002060702AF0FBFA01F035
:1005BC002CB8A068002801F026800020607030F074
:1005CC00DFFDA16800F0CEBD0020607030F0DBF8DC
:1005DC0001F01BB86068002801F0158000216170E3
:1005EC00017C19B1C189DFF8B42B1181017B19B1E0
:1005FC008168DFF8A82B5160817C19B1417CDFF850
:10060C009C2B5173017919B10168DFF8902B1160A3
:10061C00017D19B1C17CDFF8842BD173817D19B1B7
:10062C00417DDFF8782B1174017E002900F0ED87F5
:10063C00C07DDFF8681B487400F0E7BFA068002895
:10064C0000F0E187DFF8541BD1F80D20C0F80D2025
:10065C0091E82C0085600D7BC0E900230573497C73
:10066C00417400F0CEBFA068002800F0CC870021B8
:10067C006170411C27F05CFF00F0C7BF6068002868
:10068C0000F0C1870021617026F00CFBA168088086
:10069C0000F0BBBF6568002D00F0B587EB88AA8819
:1006AC00698828782E890A35CDE9006518F08CFC0C
:1006BC0000F0AABF6068002800F0A58782884188F6
:1006CC00007806F03FFF00F09FBF6068002800F044
:1006DC009A8700F1120125F023FD00F095BF6068A8
:1006EC00002800F09087006805F060FB00F08CBFDC
:1006FC006068002800F0878700680FF04BFE00F060
:10070C0083BF0020DFF8981A6070E07800F02ABDF3
:10071C006168002900F079870820ADF82C00088862
:10072C00ADF82E00081D0BAC90E86800221D68C2C5
:10073C00087CD1E905231C31CDE910238DF83C0050
:10074C0004F11C00102230F047F920462CF028FD53
:10075C0000F05BBF6068002800F05787817A008842
:10076C0028F04EFA00F051BF60680078002800F0C5
:10077C005B852AF0ABF800F048BF6068002800F0F9
:10078C00428700782FF066FE00F03EBF60680028BC
:10079C0000F03987407818B1FF20032129F048FD7B
:1007AC0030F041FED84801210160FEE76068002866
:1007BC0000F0298703210171D449016000F021BFA9
:1007CC006268002A00F01F87A168002900F01B87CF
:1007DC0000206070107840B101200870DFF8C40967
:1007EC000078002818BF01204870907840B1012093
:1007FC000871DFF8B4090078002818BF012048718F
:10080C00D07848B100202FF0CFFED4E90121C0F3FD
:10081C004030C87101208871107950B301200872E2
:10082C0001F10C002FF0C0FEA1680882DFF87C09F2
:10083C00007802281DD1DFF878090078C8B9DFF8F4
:10084C0074590120A847A16848610220A847A168F3
:10085C0088610420A847A168C8610820A847A1683E
:10086C0008621020A847A16848622020A847A16808
:10087C0088626068427932B1012281F82C20DFF85D
:10088C0038291288CA85827932B1012281F8302048
:10089C00DFF8282912884A86C27932B1012281F800
:1008AC003420DFF81C291288CA86027A3AB1012258
:1008BC0081F83820DFF80C29127881F83920427A37
:1008CC003AB1012281F83A20DFF8FC28127881F83D
:1008DC003B20827A3AB1012281F83C20DFF8EC28E7
:1008EC00127881F83D20C27A3AB1012281F83E207B
:1008FC00DFF8DC28127881F83F20027B3AB1012224
:10090C0081F84020DFF8CC28127881F84120427B16
:10091C003AB1012281F84220DFF8BC28127881F824
:10092C004320827B3AB1012281F84420DFF8AC28C5
:10093C00127881F84520C27B002A00F0CE86012077
:10094C001122002681F846000BAD812000212B4698
:10095C002FF03EFE9DF82C00A168002881F847007E
:10096C0000F09E8630F0C1FEA1680028886400F07B
:10097C00AF869DF82C20691C30F02EF800F0ACBE30
:10098C00254655F8040F002800F03D8600216170C3
:10099C00017841B14078DFF80C28012110706320F8
:1009AC0030F0A6FB2868017941B14079DFF8F827CF
:1009BC00012110706D2030F09BFB28688179002993
:1009CC0000F08A84C1794FF400500EF085FA00F0E3
:1009DC0097BC6068002800F0168690F900502846F5
:1009EC002EF046FEA068002800F00B86E9B20170DC
:1009FC0000F007BE6068002800F0058600216170D9
:100A0C002A2130F059FDDFF884576068DFF8D06791
:100A1C000822E98A0180A98C8181698BC182DFF867
:100A2C00C4170978817205F139010E30B047676837
:100A3C002FF08EFC0146B81C0822B047606805F107
:100A4C001C0108221830B0476068297E012280F80A
:100A5C002310DFF8941780F820208978CB0718BF73
:100A6C0080F824208A0744BF012280F825204A07F9
:100A7C0044BF012280F826200A0744BF012280F8D7
:100A8C002720490644BF012180F8281000F0BDBD85
:100A9C006068002800F0B785007830F035FB00F076
:100AAC00B0BD6068002800F0AE850088002111F010
:100ABC007DF900F0AABD6068002800F0A4853046DE
:100ACC002FF0D8F90546002800F02285E888DFF8D9
:100ADC001C1740F00C00E88002202FF0B1FCDFF86E
:100AEC00101703202FF0ACFC40F20110ADF83100D0
:100AFC006068016800790B918DF830000BA823F029
:100B0C00F1FF00F081BD00BF7C052043010002060F
:100B1C006768002F00F0778530F0ADFB05460028A4
:100B2C0000F00785387828B1E988787821F0010140
:100B3C000843E880B87830B1E988F87821F00201F0
:100B4C0041EA4000E880387930B1E988787921F0C1
:100B5C00040141EA8000E880B87930B1E988F8797D
:100B6C0021F0080141EAC000E880387A30B1E98808
:100B7C00787A21F0100141EA0010E880B87A30B19F
:100B8C00E988F87A21F0200141EA4010E880387BAE
:100B9C0030B1E988787B21F0400141EA8010E8808F
:100BAC00B87B28B1A968F87B21F001010843A86043
:100BBC00387C38B1A968787C21F00201002818BF74
:100BCC000231A960B87C38B1A968F87C21F0040125
:100BDC00002818BF0431A960B87D38B1A968F87D28
:100BEC0021F01001002818BF1031A960387E38B1EF
:100BFC00A968787E21F02001002818BF2031A96057
:100C0C00B87E38B1A968F87E21F04001002818BFE1
:100C1C004031A96097F8220048B1A96897F82300E1
:100C2C0021F48061002818BF01F58061A96097F854
:100C3C00260048B1A96897F8270021F40051002834
:100C4C0018BF01F50051A96097F8280048B1A968B0
:100C5C0097F8290021F48041002818BF01F5804144
:100C6C00A96097F82A0048B1A96897F82B0021F4DD
:100C7C000041002818BF01F50041A96097F8340025
:100C8C0048B1A96897F8350021F48011002818BFE5
:100C9C0001F58011A96097F8380048B1A96897F858
:100CAC00390021F48001002818BF01F58001A960EA
:100CBC0097F83C0048B1A96897F83D0021F0807185
:100CCC00002818BF01F18071A96097F83E0048B167
:100CDC00A96897F83F0021F00071002818BF01F1B6
:100CEC000071A96097F8400048B1A96897F84100D5
:100CFC0021F00061002818BF01F10061A96097F88C
:100D0C004200002800F0818497F84310A86800295D
:100D1C000CBF20F0805040F08050A86000F075BCF3
:100D2C006068002800F06F848178002900F014843A
:100D3C00C2780321002A08BF012100F00EBC6168B3
:100D4C00002900F0608408888A7801211FF072F96C
:100D5C0000F05ABC022060706068002800F05584D6
:100D6C004188007828F04CF9002840F04A8400F0C3
:100D7C004CBC6068002800F046840021617000784B
:100D8C0029F0A0FE00F041BC6068002800F03B8414
:100D9C00A168002900F037840021617000782EF0E2
:100DAC009FFCA1680870400030F09FFC0146D4E91C
:100DBC000102516000782DF08DFB00F026BC6068BC
:100DCC00002800F02084A068002800F01C84002675
:100DDC00C0E900666068418800782CF0BFFE0028EE
:100DEC0000F0FA8366700546A16800880880A87830
:100DFC000028887000F0098430F077FCA168002886
:100E0C00486000F002848A78E91C2FF0E5FDFCE3D1
:100E1C006068002800F0F7830021CDF83A10CDF877
:100E2C003610CDF83210CDF82E1002794188ADF87D
:100E3C002C105AB1816849B10F2A28BF0F228DF8A6
:100E4C002E200BA803302FF0C7FD606800780BA98B
:100E5C00012222F007F9D7E32EF0D0FFD4E3656826
:100E6C00002D00F0D0832F7838462FF00FF8002893
:100E7C0000F07C83D020C7E36068002800F0C383B7
:100E8C0000782FF003F8002800F0BD830546007BA6
:100E9C002AF0B2FB0028607040F0B783DFF8380B03
:100EAC004168002900F0B18300220C462346002C37
:100EBC0000F0F883AB4200F0F5831C681A46F5E7A6
:100ECC006668002E00F09F83357D28462EF0DEFFED
:100EDC00002800F09883307F102141EA4007717F91
:100EEC00002908BF4700B07F002818BF47F008074B
:100EFC00F07F002818BF47F0200796F82000002844
:100F0C0018BF47F0400796F821000028284618BF64
:100F1C0067F07F07D6F818802FF0DEFD002800F070
:100F2C00728305466068827A01788DF83520828953
:100F3C008DF83410ADF836204A1E022A05D3032949
:100F4C0000F071840F2940F073844188ADF82C10A7
:100F5C0000F06EBC61680220002900F055830A88FD
:100F6C008DF834004988ADF82C200BA802221DE026
:100F7C0061680220002900F047838DF834000023BB
:100F8C0008880A794988ADF82C000BA82DF05AFA7C
:100F9C003AE361680220002900F036838DF83400B2
:100FAC00052208884988ADF82C000BA800232EF0E8
:100FBC0043FB29E365680220002D00F025838DF8A2
:100FCC0034002E7B00272888AB79AA886988ADF875
:100FDC002C00A8682D69CDE90006CDE902570BA8B5
:100FEC0019F07CF910E365680220002D00F00C83E9
:100FFC008DF83400EE682F7C4FF0000C2888EB88BD
:10100C0069882A79ADF82C00287A6D698DE8C100C1
:10101C00CDE9035C0BA819F009F9F5E26168002928
:10102C0000F0F18202208DF83400887B0D88421E7E
:10103C008DF82400022AADF82C5005D3032800F0BB
:10104C00CD820F2840F0CF82088AADF81C00CAE28E
:10105C006068002800F0D78202218DF834100188D6
:10106C00ADF82C10817B4A1E8DF82410022A05D372
:10107C00032900F0DB820F2940F0DE82018AADF8F3
:10108C001C10D9E26068002800F0BD8202214FF6E6
:10109C00FC728DF8341001888A1A032A11D8022A9E
:1010AC000FD02FF0C9FEADF82C0060680021837AB8
:1010BC00C27A0091811C0BA828F072FD60706068E8
:1010CC000188ADF82C10837AC27A00210091811C22
:1010DC000BA828F065FD97E262680220002A00F058
:1010EC0093828DF83400002310889178D278ADF873
:1010FC002C000BA823F082FE86E26168002900F028
:10110C008282CA7A887A0B7B4D7B002A18BF40F00A
:10111C000200002B18BF40F00400002D18BF40F057
:10112C0008008A7B002A18BF40F040000023C2B29E
:10113C000888023129F056FC66E26068002800F04D
:10114C006282A168002900F05E8200780BA92DF064
:10115C00FAFB0020BDF82C206070D4E90101A1F845
:10116C0001200078087050E26068002800F04B8283
:10117C00B0F80110ADF82C1000780BA92EF086FAFF
:10118C0042E200BF7E3E0300F6700020805E00202D
:10119C00C8290020C6290020C42900207825002059
:1011AC00882B0020C92B00202C710020DC2900206A
:1011BC00CE2B0020C50B0200722B00206E2B0020C2
:1011CC00762B0020BF2B0020BC2B0020B22B002044
:1011DC00BD2B0020C82B0020B32B0020CB2B0020D4
:1011EC00E509030054230020606F002001A20200D7
:1011FC00690603006068002800F00582017A427AD3
:10120C00002322F031FBFFE16068002800F0FB8135
:10121C008178C278008800232BF0C8F8F4E102250D
:10122C0006E002266670F0E12DF07CFBEDE1002576
:10123C006570EAE12BF0EAF80BAA284611212FF091
:10124C0057FFE1E100204FF001090DF12C080125B9
:10125C000027000636D1E80743464FF03A0018BF86
:10126C003B20002111222FF0B3F966689DF82C2049
:10127C0029EA0500002531798A42EAD167700120FC
:10128C000025E6E700F10C010BA810222FF0A4FBBF
:10129C006068D0E907120430CDE90F1207A92DF0D0
:1012AC00E3F80028607000F0088261684888043117
:1012BC000BAA25F089F9A7E101302EF080FFA3E1FC
:1012CC000120A1E16078002840F09F81F2883179FB
:1012DC0008F10100FEF7BFBF017A89B1C168008A2D
:1012EC00420701D064290BD317F02EF900200121FD
:1012FC000DF0F2FDDFF8E826352028212FF0F8FE5E
:10130C002868817C41B1808ADFF8D82602211080C0
:10131C0044202FF0EDFE2868817D41B1008BDFF871
:10132C00C8260221108046202FF0E2FE2868817E1C
:10133C0041B1808BDFF8B4260221108083202FF07E
:10134C00D7FE2868817F41B1C07FDFF8A426012138
:10135C00107029202FF0CCFE286890F8201049B18D
:10136C0090F82100DFF88C26012110702B202FF033
:10137C00BFFE286890F8221049B190F82300DFF8DE
:10138C0078260121107043202FF0B2FE286890F8C7
:10139C00241049B190F82500DFF860260121107067
:1013AC002E202FF0A5FE286890F8261049B190F851
:1013BC002700DFF84C26012110702F202FF098FE0B
:1013CC00286890F8281049B190F82900DFF83426E5
:1013DC000121107030202FF08BFE286890F82A1015
:1013EC0049B190F82B00DFF82026012110702C2039
:1013FC002FF07EFE286890F82C1089B190F82D20E3
:10140C00102A28BF1022016B8DF82C200BAC601C0D
:10141C002FF0E2FA8120112122462FF069FE286874
:10142C0090F8341049B190F83510102928BF1021CC
:10143C00826B62202FF05CFE286890F83C1041B162
:10144C00006CDFF8C8250421106084202FF050FEBA
:10145C00286890F8441049B190F84500DFF8B025A1
:10146C00012110704B202FF043FE286890F8461095
:10147C0069B1DFF8A04500F14701082220462FF0A2
:10148C00ABFA4720082122462FF032FE286890F84C
:10149C004F1031B100F15002012008212FF028FE2D
:1014AC00286890F8581041B190F859008DF82C002C
:1014BC000BA9522027F01AF8286890F85E1049B151
:1014CC0090F85F00DFF850250121107033202FF0C9
:1014DC000FFE286890F85C1059B190F85D00DFF8A9
:1014EC003C250121107032202FF002FE25F0F6FA77
:1014FC00286890F86010002900F0878090F861004F
:10150C00DFF8D4144870DFF8CC1481F868007CE064
:10151C001C2030F0EAF8002877D01C2105462FF06B
:10152C00CBFF28462E712AF003F900287FF4CEAAAF
:10153C0091E01C2030F0D9F8002866D01C2105461B
:10154C002FF0BAFF28462E712AF0F2F8002800F08E
:10155C0082806768FFF7E6BA002103794279002B95
:10156C0018BF4031008811F0FDF94DE02EF09AFCC7
:10157C00DFF864140978884270D22FF07CFE20B119
:10158C008146007B002800F08D811C2030F0ADF8E6
:10159C00D8B31C2181462FF08FFF89F804604FF0DF
:1015AC00010865682F787FE1013007A92CF05CFFFA
:1015BC00607050BB07980021182240880BAB2FF0AD
:1015CC0007F8607008BBA068DDE90F12C0E90712CC
:1015DC0009300BA9FEF714BEB12015E0103107A895
:1015EC002FF0C8FF6168DFF8EC03C08A854210D188
:1015FC00887A0A7E0C310123009107A90BF0A4FE16
:10160C0008B1002000E002206070012028B0BDE885
:10161C00F08788890A7E8B7A07AE0025CDE9000613
:10162C00CDE902258A1C0BA9212011E000F1100143
:10163C0007A82FF09FFF60688189027E837A07AE2E
:10164C000025CDE90225CDE90016821C0BA922202C
:10165C001FF042FED8E7284630F045F8D120D3E7FA
:10166C0037463546012DD0DB60680822011D4846FF
:10167C002FF0B2F960681422D0E90710CDE90B10F5
:10168C00B9B20BAB042008E00BAD142128462FF0A7
:10169C0013FF0420314614222B462BF055FDB3E7E3
:1016AC008E6419E0AB42B0D1A94208BF021D286874
:1016BC0010602846E2E0C820A6E707981821408869
:1016CC000BAABCE5A068DDE90B12C0E907129CE788
:1016DC000020886481F847006068007C70B110209D
:1016EC0030F003F80346A06803653BB101211022DA
:1016FC0080F84C10622000212EF06AFF6068417C5B
:10170C0031B1A168012281F85420C04A12688A655F
:10171C00817C39B1A168012281F85C20BC4A127825
:10172C0081F85D20C17C51B1A0680121082280F8AC
:10173C005E10A8495F3039312FF04EF96068017D99
:10174C0059B1A568012085F867002EF001FE01460D
:10175C0005F168002FF00EFF6068417D79B10BA98F
:10176C0052202BF039FBA068012180F870109DF8F5
:10177C002C10002918BF012180F871106068817D40
:10178C0019B1A1680122A1F87220C17D51B1A168E3
:10179C00012281F87420A14A1278002A18BF012274
:1017AC0081F87520017E39B1A168012281F876207B
:1017BC00994A127881F87720417E51B1A1680122B3
:1017CC0081F87820844A5278002A18BF012281F8C7
:1017DC007920807E00283FF418AFA168012081F8A1
:1017EC007A007C4991F82610082918BF042916D0D4
:1017FC00A1B921202FF070FE74280FD10BAB212042
:10180C00002174222EF0E4FE9DF85210043901F0F0
:10181C00FB010843B0FA80F0400900E00020A16809
:10182C0081F87B00F1E6811C0BA82FF0A3FE606809
:10183C00817B31B348002FF058FF88B361680646AE
:10184C000022887B904206D00B6933F8123026F8C0
:10185C0012300132F6E78B8CCA8AD1F828C091F885
:10186C002210FFB2CDE90406CDE90271CDE900C822
:10187C000BA8294626F092FB607030462FF033FF00
:10188C00C3E6838CC28A816A90F82200FEB2CDE94D
:10189C000018CDE902600BA8294609F071FCB3E6EB
:1018AC001020B1E64FF000084E4606F80C7F287A5F
:1018BC0030734A48706014202FF017FF0028B06076
:1018CC0045D014212FF0F8FD6268D9F81400526845
:1018DC008179927901F0F00102F00F0211448171CB
:1018EC006168D9F8140049680A780270D1F80220AE
:1018FC00C0F80220CA79C271097B017350002FF025
:10190C00F4FED9F81410886060B1CA7900239A42A9
:10191C0008D065686D68AD6835F8135020F8135021
:10192C000133F4E7087B40002FF0DFFED9F81410E8
:10193C00086160B1097B0022914208D063685B6842
:10194C001B6933F8123020F812300132F4E73046BC
:10195C002CF0AEFDB82802D00746022806D130780C
:10196C0029F04AFE30462CF0A3FD074637B1B8F1FA
:10197C00000F0FD048462FF0B6FE23E0B8F1000F51
:10198C003FF443AE484629F0D3FE00287FF43DAE29
:10199C00484673E7D9F8140078B1816821B108463C
:1019AC002FF0A1FED9F81400016921B108462FF0DF
:1019BC009AFED9F814002FF096FE0020C6E900001C
:1019CC00C6E90200B82F3FF455AA022F3FF452AAE1
:1019DC001BE600BF805E0020402A00208D520020B4
:1019EC00246B0020722B00206E2B0020762B002005
:1019FC00BF2B0020BC2B0020B22B0020BD2B0020C5
:101A0C00C82B0020B32B0020CB2B0020542B002004
:101A1C00AF2B0020782A0020B62B0020B72B0020FB
:101A2C002DE9F04395B00179044601F00700012837
:101A3C0040F0DE81DFF83809031D2068027D1B6849
:101A4C00002B00F0D5811D799542F8D19E68002EAF
:101A5C0000F0CE8183880125082B00F2CA81DFE8D3
:101A6C0013F00900C801C801160026006800D00058
:101A7C00C801DC00080700F13D83E07A002840F043
:101A8C00B7813068002800F03583804732E3E37A71
:101A9C00090700F1EB80012B00F0AF81002B40F027
:101AAC00A781E0681146008823F000FA22E30807BA
:101ABC0000F1F48000200DF11C0800211222ADF879
:101ACC001A0040462EF09EFEE668E07A374605285E
:101ADC0037F8011BADF81C1000F28A81DFE810F01A
:101AEC000600CF01ED01100237024C02206832468D
:101AFC00007D07A926F05EFF6FF07602B82808BFBC
:101B0C006FF07502002808BF02462FF0B8FC40F0B9
:101B1C00F1824888002840F0ED82A37A087DBDF858
:101B2C001C40012506310293D3B20022CDE90045B9
:101B3C000AE2080700F1F3800020E7680021222266
:101B4C008DF81A000CAD28462EF05CFEE07A398830
:101B5C00BA7806288DF83220ADF8301000F24881A2
:101B6C00DFE810F007002002270231023C02490294
:101B7C005202B7F8030000210DF11A030422ADF84C
:101B8C00340020687E79007D0091052128F0A8FBA7
:101B9C009DF81A00063750B10F2E05F10900394691
:101BAC0028BF0F2632468DF838602EF0F5FFE0681E
:101BBC003E44218A801B08448DF84800C0B288B18D
:101BCC00092805F1190724BF08208DF84800FF21CA
:101BDC00082238462EF016FE9DF84820384631462D
:101BEC002EF0DAFFBDF83010002900F0A382206837
:101BFC00007D2BF0B3FF002800F04183BDF83010BE
:101C0C0099E2080700F17682E07A022800F2F0806F
:101C1C007169002940F06D826CE2080700F16A825C
:101C2C00E17A082900F2E4800020DFE811F00A00D4
:101C3C0039024602560209003802450255025B027F
:101C4C000121726A002A00F05582E06803788DF851
:101C5C003030013BFD2B00F25282B0F801008DF8C0
:101C6C003410ADF832000CA8904743E2002B40F042
:101C7C00BF8006300C90E0680088ADF834000CA8EA
:101C8C0025F082F8F168002900F034822068E268BF
:101C9C00063007901088ADF82000A7E00DF11C0865
:101CAC00E7680021122240462EF0ACFD0CA8002162
:101CBC0014222EF0A7FDE07A022804D300F0AC80A9
:101CCC00032840F0958039788DF83510B7F801204D
:101CDC00ADF81C2079B901280DD1FA7808F1030070
:101CEC000F2A28BF0F22391D8DF81E202EF054FF0D
:101CFC0008F102001090B16B0025002979D0012069
:101D0C008DF83C50CDF838808DF83600E07A8DF89F
:101D1C003400206806300C900CA8884769E00DF15F
:101D2C003008D4F80C900021222240462EF06AFD97
:101D3C0007A8002114222EF065FDE17A99F8000025
:101D4C0006298DF821001CD199F8011000288DF876
:101D5C002810B9F80210ADF8301078D00025716C4D
:101D6C0051B1E07ACDF82C8009958DF820002068CF
:101D7C000630079007A88847002D00F0BB81284645
:101D8C008AE1B9F801008A1E032AADF8300009F186
:101D9C0003001AD3C9B101292AD199F8030099F883
:101DAC00065009F1070739468DF83200B9F80400DE
:101DBC000F2DADF8340028BF0F2508F109002A4675
:101DCC008DF838502EF0E8FE7819716C002900F06F
:101DDC009181E27A032A1CBF00788DF83200CDF88D
:101DEC002C808DF8202020680630079007A880E111
:101DFC000125284615B0BDE8F083B1680025ADF883
:101E0C001C50002900F0228106300C900CA8884749
:101E1C0020688188027D1AE138788DF83C007D7845
:101E2C00002D00F0278168002FF0D4FC002800F072
:101E3C002181804600208DF83650854200F01C81AF
:101E4C0007EB4001498828F810100130F5E799F8A4
:101E5C000470002F3FF482AF38462FF0BBFC0028F3
:101E6C003FF47CAF054609F1050000218DF8227086
:101E7C008F423FF474AF425C6A540131F8E720683A
:101E8C00427D002A40F0368142880025002AB0D1DC
:101E9C00007D89B22BF062FE2168A37A0124002810
:101EAC000A7DCDE900430CBF8B25804606314346A5
:101EBC0010462A461DF0E8FD58E296F800902020C6
:101ECC002FF088FC002800F020818046B9F1000F2B
:101EDC0000F0B781002600254D4580F01281206866
:101EEC003988007DADF81C102BF038FE28B1BDF8F8
:101EFC001C10F0B2013628F8101002370135EBE750
:101F0C00206889B2007D1EF03FFF2068BDF81C10D0
:101F1C00007D27F075F800250022002808BF6FF01F
:101F2C0074022FF0ACFA7FF464AF4888002840F0BC
:101F3C00E180A37ABDF81C40087D0125063102938F
:101F4C00D3B2CDE90045032227F09AFA0EE22068BD
:101F5C00007D0CA92CF0BEFA002800F0CB800546C1
:101F6C000CAE2068002D007D00F0C68036F8021BF8
:101F7C001EF00AFF013DF4E7206800250DF11A035D
:101F8C0003210022007D009528F0AAF9BDF81A0063
:101F9C0000283FF42EAF20683246007D07A926F0BA
:101FAC0009FDA7E02FF062F9002800F0E88000237B
:101FBC00C9E1206889B2007D1DF0FEF8002800F010
:101FCC00EA800022F3E0080400F007812FF035F9D5
:101FDC00002800F05681BDF83010FFE0080400F036
:101FEC0003812FF02AF9002800F05F819DF8322040
:101FFC00BDF83010F9E02FF039F900287AD0316CA7
:10200C00002977D00890EEE6080404D02FF015F9DB
:10201C00002800F04C8105202FF0DCFB002800F09C
:10202C00008105462068BDF830102A46007D22F05C
:10203C0015FB81462068417D002900F06981B9F1CA
:10204C00000F00F050814FF0000835E1032100959E
:10205C00104607AB002228F043F9BDF81C20002ADB
:10206C0048D02168A37A087D0093063101232AF019
:10207C0025FC7BE14FF00008B16B49B1E07ACDF85B
:10208C0038808DF83400206806300C900CA88847F6
:10209C00B8F1000F2ED040462FF026FA2AE001208E
:1020AC00B16A39B3E268137852788DF832008DF842
:1020BC0030308DF831201BE00120F16AD1B1E2689B
:1020CC001378547852888DF834008DF83030ADF890
:1020DC0032208DF831400BE00120316B51B18DF87D
:1020EC00300005E0716B29B1E0680088ADF8300074
:1020FC000CA8884700257CE628F0E4FCFAE7872545
:10210C0077E6300640F0A380B7E089202168A37AF7
:10211C0001258DF83100E07A00248A888DF8300092
:10212C00087DCDE90055CDE9024306310CAB29F011
:10213C000CF81BE1002120689DF83220007D1DF079
:10214C0065FC002872D00646BDF83400B0809DF8BE
:10215C001A0030B106F1080005F1080110222EF02A
:10216C001BFD9DF8482006F1190005F119012EF010
:10217C0013FD9DF8480030762BF0A8FE5FE0BDF80B
:10218C00301031B12068007D2BF0E8FC002800F005
:10219C00D8808B23D6E02068BDF83010007D2BF062
:1021AC00DDFC6FF07402002808BF6FF07A022FF08C
:1021BC0066F940F0DB804888002840F0D780A37A8D
:1021CC00BDF83040087D9DF832500126063103934E
:1021DC00D3B28DE870000222B0E000212068007DAF
:1021EC001EF0D2FD00234DE000212068007D1DF083
:1021FC000DFC074628B927F0C1FF042800F2918096
:10220C000CAFF16B002972D020680897063007904C
:10221C0007A88847AF426CD000286FD02BF056FE31
:10222C006CE04FF000094FF0890844E027F0A6FF5E
:10223C00052878D22068007D0CA91AF06BFD0023CC
:10224C0072E020684146007D2CF044F90646256872
:10225C002F7D2DF0D3FDC0F11000A17A0122F3B235
:10226C00C0B2CDE902380123CDE90020CDE904212B
:10227C00A91D384602221BF03DFC404634E0852364
:10228C0052E085232FF0FBF870D1488800286DD1DF
:10229C00A27A087D0125BDF8304000260631CDE933
:1022AC0002520322CDE9004648E0852327E04FF097
:1022BC0000094FF0850800252668377D27F05EFF62
:1022CC00A17ABDF830200123C0F10500CDE90095BD
:1022DC00CDE902230491C3B2B11D384642461CF02D
:1022EC00A9FB002D42D028462FF0FEF83EE0AF426D
:1022FC0004D12068007D0CA91AF00CFD00232FF0EE
:10230C00BEF833D1488888BB2DF0ACFC042215E014
:10231C0040884FF000080028CED0B9F1000FE2D071
:10232C00CAE78923EBE789232FF0A9F81ED1488847
:10233C00E0B9E07AD0B92DF095FC002225F0D7F861
:10234C0014E085230CA821684A7D7AB94A886AB9B9
:10235C00E27A012A0AD10A7DA47A01250631CDE957
:10236C00000510460122029416F054FCFF2540E5AE
:10237C00282A00202DE9F04F99B080466FF0070015
:10238C000DF11C0B063098F808105A46ADF85200A7
:10239C00D8F8040012F0A2FE002800F0B5809DF8D9
:1023AC001E609DF81F409DF82070BDF826502EF041
:1023BC003DFD844240F0A88025F003004FF6F874F0
:1023CC0080B2A04200F0A080012F00F29D80022E6E
:1023DC0080F09A80B8F82800ADF84800B8F83200C0
:1023EC00ADF82A009DF82200D0B1D8F804109DF861
:1023FC001D209DF8383001202DF0BCF808B1CF20FD
:10240C0083E0DFF85807C078012809D1B8F8280014
:10241C002EF0F9FF20B1417901F0E701083141714B
:10242C009DF8210068B1BDF82610FF202BF096FB1B
:10243C009DF82110D8B141F001012C268DF8211006
:10244C0016E09DF83900002864D09DF83D10FF2956
:10245C0002D0002940F0ED80DFF80407BDF82620FB
:10246C00C18A8A4240F0EE800120222607E008262D
:10247C0001F00300012808BF46F011060120B10746
:10248C003746DFF8DC9658BF67F07F07002808BF97
:10249C0037469DF8220030B999F80B0018B107F0B7
:1024AC002200222813D117F0400A58D0119899F81D
:1024BC000E200178920718D40C291BD8012241F266
:1024CC0090438A401A4245D1032940D012E0F8B219
:1024DC0000F0420042287FF492AF1198007800F08F
:1024EC00FE0006287FF48BAFDDE7A1F10C0212F1A0
:1024FC000C0F2AD8B9F81600BDF82620824203D159
:10250C00BDF8280029F0A2FDD3201DF076FB19B0F0
:10251C00BDE8F08FBDF8260028F018F80238DFF877
:10252C004016B0FA80F0CA8A4109BDF826009042E4
:10253C0008BF0231002900F08C809DF81E20002A73
:10254C0000F03A8101F1400738E1032902D14078CB
:10255C000D2804D007A827F0BBF90128D7D0B9F86B
:10256C002400B8F8441081420AD198F84620B8F8F3
:10257C004210B8F8280000230093002311F0CAF988
:10258C009DF82200E0B1B8F84210B8F828002AF003
:10259C00A5F8B8B30646D8F804009DF81D10F278DB
:1025AC000844417B8A421EBF00227260F1700130E8
:1025BC0004212AF011FF71688842A8D301307060A1
:1025CC0099F80E008007A2D59DF84D0058B1BDF8C2
:1025DC0028002DF0CFFA00286FD0D8F804004178ED
:1025EC0001F0DF0141709DF82E00A0B3D8F8040073
:1025FC008179013981718DF82E1007F07F00090661
:10260C002CD12AE09DF84D00002841D004202BF05D
:10261C00F9FD00283FF47BAF01464FF4B2700880FF
:10262C00B8F828004880DFF83C05007822F0DEFA84
:10263C006DE7109A9DF83C0025F0AEFE30B10120FC
:10264C0000261CE790F826000428F8D1002600206C
:10265C0015E70027B2E007F07F000746390702D4E0
:10266C004FF0000A49E0F9B24A0737D4C9069DF881
:10267C0021103DD5C1F3820212B1072A18BF013ACD
:10268C00002A08BF074601F0E30040EA82012DE072
:10269C0099F86C0001287FF493AF11980078062804
:1026AC0003D1BAF1000F7FF48BAFE01DBDF82A10F7
:1026BC0080B281423FF42BAF44E1D3201DF09DFA50
:1026CC00DFF8A4040078002800F0AD80DFF89C143B
:1026DC0051F82000C0EB00108100A6E09DF821000D
:1026EC0000F0E00100F0E30040EAD1018DF8211088
:1026FC00D8F804004FF4805A017299F82600092882
:10270C0001D0042829D1B9F81610BDF8260088424A
:10271C000AD027F01BFF022806D09DF8210000F0FC
:10272C00030001287FF4F3AE9DF81E0000285BD057
:10273C0011989DF838100078042808BF02296DD034
:10274C00072808BF042900F0838003287FF4DFAE3C
:10275C0007A8002113F066FFD9E6FEB217F0610F4F
:10276C0049D0F00708D0B8F8281007A818F0B2FC28
:10277C00002871D007F09F070025FEB2B80605D5DA
:10278C002DF0DBFC07A815A906F06EF8700640F1D9
:10279C003981B8F8281007A80DF152022B4612F017
:1027AC0019FD002800F08180054611980078012859
:1027BC0008BF4AF0100A25E101F1200727F0C6FEF8
:1027CC000138B0FA80F0400947EA00069DF81E0077
:1027DC0000283FF453AE119800782DF007FA012829
:1027EC0018BF07F07E0649E62DF0A7FC07A815A92F
:1027FC0006F03AF88BE69DF81E00012864D111987A
:10280C000078032853D005285ED1B8F8281007A803
:10281C000DF15202002312F0DDFC78E607A900202E
:10282C0013F070FB73E6D1480168D1480268BDF81B
:10283C002800904701287FF46AAECE480168BDF8A5
:10284C0028008847CC480168BDF8280088475EE618
:10285C0007A81BF0A9FA5AE62CF080F99DF82E1067
:10286C000546BDF8280021B9B8F8281088423FF475
:10287C0084AFB9F81610814204D1B848807800288A
:10288C003FF47BAFB8F8281007A82A460BF0AAFE35
:10289C00002800F09E8030074AF0040ABDF826009C
:1028AC0048BFE01DADF8520067E70025AAE0BDF86F
:1028BC0026002DF05FF938B1B8F8281007A80DF1F3
:1028CC005202002312F086FC9DF82E0088B329F0EA
:1028DC00E9F800287FF41BAE9DF83900B8B3109AC4
:1028EC009DF83C009DF83D1025F056FD002873D056
:1028FC009DF83D00002878D010992EF0DAFC9DF858
:10290C002430ADF8520011209DF823209DF82110A1
:10291C004AF0400A002B08BF0920002A18BF0830D3
:10292C00002918BF0130D8F804100A5C013A0A5487
:10293C0065E09DF81E00012804D111980078032849
:10294C003FF4E5AD07A8414622F0E4FBDFE59DF836
:10295C002010BDF826000029ADF8520000F0CF8001
:10296C004020BDF826100BF11D0200EAC7099DF8A6
:10297C0020004B461CF020FA38B1D8F804004AF07D
:10298C00200A017801F03F0101709DF8390048B12F
:10299C00BDF826100BF1200026F07CFF4AF0400A0F
:1029AC00ADF852009DF81E00012806D0BDF8281085
:1029BC00BDF82600002217F09BFEBDF82810BDF8CC
:1029CC0026004A4614F0DAFF002818BF4AF0200A05
:1029DC0015E007F0DF07CFE6BDF82610BDF828009C
:1029EC000B2200231EF07DFA91E5BDF82600ADF810
:1029FC0052002EF008FD002808BF4AF0400A2CF0C7
:102A0C00ADF80546A01DBDF8521080B20E1A5B48F9
:102A1C0018BF2E460078012805D1E01DB8F83210F9
:102A2C0080B281422ED178B2B0F1FF3F3FF76FAD4B
:102A3C00002E3FF46CADB8F808002EF056FE0028BE
:102A4C003FF465ADB8F80820D8F8041005462DF011
:102A5C00C3FF9DF81E10002098F80830B8F8282005
:102A6C0016908DF85410BDF8521015ACCDE9006AD3
:102A7C00CDE90204284615F08DFE68B328462EF0E9
:102A8C0032FE44E5B8F828108142CCD0601CBDF869
:102A9C00262080B28242C6D2BDF828008142C2D024
:102AAC002EF0B1FC0028BED0017901390129BAD829
:102ABC00408801218DF85410ADF8600015AD284602
:102ACC0023F0EEF90028AED0281D21F0D7FE002807
:102ADC00A9D02AF0DFFFA6E72048407800283FF471
:102AEC0016AD00208DF81860ADF81900DDF8260041
:102AFC004FEA3040059005A82DF060FD07E5310741
:102B0C003FF52EAF9DF81E1001293FF429AF00218F
:102B1C001CF012F920B1407901380228FFF420AFE3
:102B2C00B8F84410BDF8520029F0D8FD30B18078C7
:102B3C002CF084FA01380728FFF412AFBDF82800F6
:102B4C002DF018F818B104208DF8200008E7BDF816
:102B5C002610BDF82800022243E700BFA029002060
:102B6C00805E0020F6700020C02B00203031030066
:102B7C004C2700205427002050270020CC2B00206D
:102B8C00A4B0DFF8508501210124C8F808002EF00C
:102B9C0003FBDFF84405DFF844150025642200230D
:102BAC00CDE9005522F0E8FBDFF83495DFF8341559
:102BBC0040F6B8320023CDE90055C9F8100009F1F0
:102BCC00380022F0D9FBC9F8040008AE30462EF0CC
:102BDC0015FC8DF8205009F11C05002132462846C1
:102BEC002CF096FEC9F808502EF0B2FA09F10C023E
:102BFC002946079228F0C8FBDFF8EC740DF1740A33
:102C0C0006461221387050462EF056FCDFF8DC04D4
:102C1C0000214FF0080B08F80CBF01800181DFF890
:102C2C00D0044146C8F8080030461AF0A9FF08F154
:102C3C001001082024F054FB22F01CFBDFF8B40434
:102C4C00DFF8B4240178082028F0A4F9DFF8AC14DC
:102C5C00082023F02DF8387824F02EF9DF484FF4B3
:102C6C0000618DF842408DF83C408DF834400E9157
:102C7C000C91CDF83E004FF48070ADF84700D84869
:102C8C00CDF8430038780CA92EF081FB0CAE442112
:102C9C0030462EF011FC40F201103146ADF84A00DE
:102CAC00ADF86E00ADF8400038782EF02FFB2EF00A
:102CBC005BFADFF84C14A8F10A080AF10A064FF483
:102CCC00202404228DF874B0CDF87A4008700620C8
:102CDC004146CDF8760030462DF07EFE38785146D0
:102CEC002EF046FB304641460422CDF876B08DF8E6
:102CFC0074B0CDF87A402DF06FFE387851462EF036
:102D0C0037FBDFF80004DFF800240178082028F0F6
:102D1C00CDFFDFF8F813082000222DF0B3F9DFF80F
:102D2C00F0130E20079EDFF8F4332A46A9F80000B2
:102D3C0038780391DFF8DC130291DFF8DC13CDE96E
:102D4C00009131460BF08EFEDFF8D4430DF13008C4
:102D5C00206040462DF045FF0020414611F08CF8D4
:102D6C00C9F814002068DFF8BC1309F1180300221D
:102D7C0012F028FB1EF0C0FD4FF4806138782A4613
:102D8C004FF4007300914FF40061019131461AF039
:102D9C00DFFD00208DF82C0038780BA92EF0FCFA02
:102DAC0008F10600DFF880B3DFF8984304900AF1CD
:102DBC001000079008F1020006900AF10200DFF8FB
:102DCC0080A3059028464FF0FF3113F067FA0028D6
:102DDC00F8D0387821F090F9002800F0D88080469F
:102DEC000078A0F1E001052916D961282DD06628BC
:102DFC0055D092286AD0942800F08480C72800F01F
:102E0C008680C62800F08880C52840F0B98008F17B
:102E1C0003000CF049FBB3E0DFE801F003B2080D4E
:102E2C00B21208F104001FF0D1F8A9E008F1040077
:102E3C001BF0DAF9A4E008F1040028F06BF99FE02C
:102E4C0008F104002EF040FB9AE098F804000028EA
:102E5C0040F0968038780CA920F036FDBDF8300093
:102E6C000822ADF87400DDE905012DF0B5FD032055
:102E7C0008F1050108228DF8820007982DF0ACFDB1
:102E8C000620ADF8800008208DF87E00914840782F
:102E9C008DF88C0038781DA92EF03DFA70E098F86A
:102EAC00060000286CD198F80A00002868D08949DF
:102EBC00D8F80C00497802788A4200F0F980002892
:102ECC0000F003810130C8F80C00F4E7D8F81200C8
:102EDC0098F80E10CDF8320098F804008DF83F10D9
:102EEC00B8F81010ADF84010411E8DF83E000229C4
:102EFC0003D3032815D00F2819D1B8F80600ADF864
:102F0C00360014E008F1030018F06CFB38E008F10F
:102F1C00040027F015F933E008F103001FF0E6FC7C
:102F2C002EE0049808F1060108222DF055FDD8F882
:102F3C001600CDF8420098F81B008DF84600B8F842
:102F4C001C00ADF8470098F81A008DF84900D8F825
:102F5C002000139098F824008DF85000B8F8260043
:102F6C00ADF85C0098F828008DF85E00B8F82A00DF
:102F7C00ADF85400D8F82C0016900CA804F0BCFF47
:102F8C00404618F0CFFB10B940462CF046F91CF027
:102F9C00D3F9D9F80C00010706D54E4920F00800EA
:102FAC000022C9F80C000A7081075AD5BBF8000042
:102FBC00C0B10138ABF80000000413D05B485C4989
:102FCC005C4A00780968002808BF49421068084428
:102FDC004FF47A71106090FBF1F005E0FFFF0104F3
:102FEC0000010F0154480078C0B228F02BFE9AF86B
:102FFC00000038B951480078FF2803D12EF0B4F8FE
:10300C003F4908702078B8B12EF0AEF8012801D9EC
:10301C0001260EE09AF80000411EB1FA81F14E092A
:10302C0038B146480078FF2803D13548007828F09D
:10303C0009FE304627F092FF25F0DEFC1EF05CFC0A
:10304C00BBF8000038B1D9F8100064212EF02BFA2F
:10305C0021482EF06CFBD9F80C0020F00200C9F8C6
:10306C000C0081050ED538480078012802D120F0DB
:10307C00CBFE01E018F07AFDD9F80C0020F40070BA
:10308C00C9F80C00410507D51FF078F8D9F80C00E9
:10309C0020F48060C9F80C0000057FF593AE23F096
:1030AC008FF8D9F80C0020F40060C9F80C0089E600
:1030BC0058B10020ADF83200B8F80800ADF8300077
:1030CC0038780CA92EF02CF95AE7024800214170EF
:1030DC0056E700BF0C200020906500205506030029
:1030EC00281E002041060300FD700020AC6F00205C
:1030FC0050280020B83E0300942003002DD7020076
:10310C0027710020B63E0300D4310300A702030050
:10311C000DD3020039D30200343B0300E4700020CD
:10312C0064700020EC390300EC7000202A71002040
:10313C00D8700020D4700020297100202871002044
:10314C00257100202B710020022800202DE9F04F62
:10315C0089B027F007FEDFF810158122DFF81485FF
:10316C00DFF814A5DFF82045DFF814E50A70DFF866
:10317C00FC140860DFF8F804FF2101700020DFF870
:10318C000415A8F800008AF80000DFF8F0040968BC
:10319C00007891F808B04FF6FE718EF80000594493
:1031AC008AB2A168D1F80031DB899A4200F26781BA
:1031BC000422DFF8DC54A8F80020DFF8D0241268D1
:1031CC009668330ECEF80C60C6F301592B706FF075
:1031DC00FF0303EA1627B3B2D1F8B86047EA132706
:1031EC00AEF8047036781EB9B9F1020F00F04781C1
:1031FC00B9F1030F00F043811B0A03F0070316B16A
:10320C00002B00F03C81DFF88CC4042B9CF800C030
:10321C0008BFBCF1000F00F032813EB1DFF87864DA
:10322C003678862E02D1022B40F02981BB0416D4AD
:10323C00BBB203F00703022B08BFBCF1000F20D078
:10324C00DFF854140978862909D10020764627F036
:10325C00DDFDDFF84004B64690F800C03078002859
:10326C004ED0BCF1000F4BD1012800F0088103288F
:10327C003FD0022844D1BEF80400400740F0FF8044
:10328C003EE0D1F8D40090F88300022800F0808052
:10329C0027460520147BF246A946A8F800002DF01D
:1032AC00A7FD0546DFF8F003007886286DD1B868D5
:1032BC00016C096811B9D0F84C05804760B2002147
:1032CC0000262AF046F9B9680A6C12685077086C27
:1032DC0000688677086C0068C47728462EF029F9B8
:1032EC00BAF8041099F8000001F0100122F0BAFBB2
:1032FC004EE0BEF8040000F00700032840F0BF8049
:10330C00BEF80400010700F1BA80810402D48105E3
:10331C0000F1B5809EF80E20C2F38107012F00F05A
:10332C00AE809609012E00F0AA80B9F1010F11D8D8
:10333C0040F0020101F0070103290BD117B93F2A14
:10334C0040F29D8037B9A168D1F8AC1009780029FA
:10335C0000F095804FF6FB71B9F1020F0BEB010CED
:10336C0019D1CF4BD95D9B5D03EB01090023402A9A
:10337C00B7FA87F238BF012352091A40430616D414
:10338C00002A08BF09F1020915E028462EF0D1F8F1
:10339C002CF04EFA75E0C14B402AD95D9B5D03EBD6
:1033AC00010908D3420648BFA9F1020903E0002A2B
:1033BC0018BF4FF00209C0F300205FFA89F11FFA21
:1033CC008CF30A1A8EF801009A4258DC604403917F
:1033DC00B346401AA168AEF806007430D1F850120A
:1033EC0080B28847A6490028886048D07421CDE96E
:1033FC0001972EF061F8A24F0020B870A548007814
:10340C0020B9387900F020008AF8000078789AF812
:10341C000010DFF878C24FF000092E4600299A49B7
:10342C003DD000284FF000003AD1B88800F00700DA
:10343C00032807D0012832D18868D0F8D40090F83E
:10344C00820060B3C8684069007818B12CF076FF30
:10345C00FE280DD08C488068D0F84C02804738B9D3
:10346C0089488068D0F844028047002800F0F78033
:10347C00834F0120B870DFF814C22E4610E02CF0F8
:10348C0059FD2DF0B5FC814900240A6813681C71A4
:10349C0012680A602EF04DF809B0BDE8F08F0020DC
:1034AC00BC6804F1740184F830B06160A16579786E
:1034BC00BB88FA880029A381029B228184F83A30C8
:1034CC00337808BF9946B8F8003097F80EB0019DD4
:1034DC00A4F85C20FF2284F84990A2735E1A797BD1
:1034EC00CBF30119A8F8006001F0780160F38201B8
:1034FC0001EB09002074280600F0AE80DCF8000017
:10350C0004AF039A10FA86F000F1080138462EF049
:10351C001BF956FA85F0CBF38105A8F80000207C46
:10352C0000F04008CDB3B9F1020F06D1B8F1000F8D
:10353C0003D0B4F8440004AF06E0BDF81000023725
:10354C00A4F84400A4F84200564EF189884203D0F6
:10355C004FF6FF7188425ED1032D11D104F1320078
:10356C0039462EF05EF8464CF11CA06832302BF038
:10357C002EFA454900284ED094F80EB008370EE0CC
:10358C0037F8020BB1898842608606D04FF6FF717E
:10359C003B4C88423C493ED101E03B49384CBBF1A5
:1035AC00400F20D3B9F1020F06D16DB9B8F1000F5D
:1035BC000AD13348806803E0A068017C490603D433
:1035CC0039880237A0F84210BBF1C00F06D32C4C3F
:1035DC003946A06828302EF024F803E0284C3888AF
:1035EC00A168088528498968A088D1F8AC20127890
:1035FC00B2B1B9F1020F13D200F00700012802D0CA
:10360C0003282FD11E4C6DB9264AA368D289B3F872
:10361C004230934206D021F030FF1DF0ADFF30E771
:10362C0000F00700032806D0012815D1D1F8D400EA
:10363C0090F8820080B1A068D1F848128847104AEF
:10364C0050B90020D17B9070907BC1F3011100F038
:10365C0078000844916808740BF0FAFC11E7084FE5
:10366C00B87808E7064CDDE70F7100208C7000205D
:10367C0014710020DC7000201271002011710020E8
:10368C00B4280020C07000200C0100201070002015
:10369C002171002020710020177100208C3D030047
:1036AC00883D0300306F00202DE9F84305460C4699
:1036BC00480413D4A00024D4A0075CD460057ED4A5
:1036CC00200500F10681200700F13B81600040F1EC
:1036DC00F6801FF069FB24F08044F0E02DF088FBAD
:1036EC00DFF81C140F6D3FB1D7E90A1202F0E0426B
:1036FC0001F00A01891849D02DF01BFF24F48044F5
:10370C00DDE0BB48DFF8FC73016841F0800101602B
:10371C00B878012804D1042027F084FE0020B8706A
:10372C002DF066FB064604202DF0ECFBDFF8D813D9
:10373C000A68904219D12A7EBAB1FA68AAB1DFF8A8
:10374C00C003806C002800F09780C16840F603022B
:10375C000988914206D0C06840F60401008888426E
:10376C0040F08A8005F1140088E040F6C41208602D
:10377C00C5E9042284E00CF05DFFDFF88403006CE3
:10378C00002840F09D8024F0020498E0D7E90A65F7
:10379C00D7E90A12AA43B143C7E90A122DF0C9FEB0
:1037AC00B8680028AAD056EA0500A7D0D7F808C0F8
:1037BC003869B7F9301032462B46E0479EE72DF0BA
:1037CC0017FB05462AF0D2FD002800F0B780CC4844
:1037DC00876B002F00F0B280DFF828830420CB49E0
:1037EC00002288F81800C6482CF086FC2DF0CEFE7E
:1037FC00C7482DF095FEC7480068006B8047C8F895
:10380C0010000125042088F8025028F07FFC38694C
:10381C0090F82810C8F80400490703D5436A04211E
:10382C0000229847012021F00DFAD8F804004576C3
:10383C0017F0FEFBD8F8040081680B461A465B684B
:10384C004BB11E88A6F60306072EF7D805FA06F626
:10385C0016F0830FF2D0537B03F0F0030133537354
:10386C000023FD6853602D88A5F60305012D00F299
:10387C008A80C8F810309FE005F1100024F06AFD32
:10388C0030462DF056FE28F059FC78B12E6A2846A9
:10389C006FF4807100224FF00073B0479848806B32
:1038AC0010B11FF081FA01E044F00204EE692846E1
:1038BC00002100224FF08063B04724F0005434B153
:1038CC00974821462830BDE8F8432DF024BFBDE8C9
:1038DC00F8838C4EB078012804D1042027F0A2FD87
:1038EC000020B07028F02AFC38B170686FF4807139
:1038FC0000224FF00073056AA847306950B1854823
:10390C000068006B804732697168801A000BC860D0
:10391C00002030617A4D8149002228462CF0ECFBC6
:10392C0002203076286C20B17D48022128302DF001
:10393C00F2FE1FF039FA24F40064C0E72DF026FEE5
:10394C0041E02DF055FA05462AF010FDA0B1DFF844
:10395C00B48198F8000000070ED498F900000028F4
:10396C000AD4684617F04EFD08B1009820B1DFF874
:10397C00B49199F8610048B32DF008FE1FF014FAC9
:10398C0024F008049BE7034633F8385FA5B190F8A0
:10399C00445090F8456005F0F00580F8445006F06E
:1039AC00F005013580F8455000255360C563458707
:1039BC00507B00F0F000507357480022C261016048
:1039CC0001202BF0CBF924F4806478E70026012742
:1039DC00602E0FD009EB0600817A31B18772407AE4
:1039EC0007FA00F0C0B227F037FD2036F0E700BF31
:1039FC00CC210840032088F8180045482DF090FD94
:103A0C002DF0C4FD444F3E4D0022786900207861B2
:103A1C00F968F860284644492CF06EFB3D48006874
:103A2C00006B8047D8F80C10D8F82020411A02EB14
:103A3C001130B0EB113F38BF4FF0FF3098F8241025
:103A4C00C8F8200021B1D8F80810B0EBC12F20D94C
:103A5C002BF094F9B8B140F60900414621F83C0F1F
:103A6C00002048804A7B02F0F00201324A730A7B44
:103A7C0002F0F0020A734860F8613960B8F83E0051
:103A8C0010F4406FFAD00020C8F82000012088F80C
:103A9C00240023F099FD254800210160022000211B
:103AAC002BF05CF9022027F0BDFC102016F074FD01
:103ABC0098F8010020B9D8F8040050302DF027FEFA
:103ACC001B48807810B90D2016F066FD98F825007B
:103ADC0028B1002088F82500052027F0A3FC002041
:103AEC0088F818001348C8F81C000220B5F85610C6
:103AFC00B5F85420914208BF07201EF0C5F93DE7E8
:103B0C0014240020E42000208C2A002055E302001D
:103B1C00D46500208C01001000100440F94C010009
:103B2C00F0220020F85E0020192E02000000046034
:103B3C00503C0300CD4401002DE9F04F8BB088467A
:103B4C0048071CD45FEA084071D45FEAC84000F112
:103B5C00A6805FEA086000F1B6805FEA085000F1C9
:103B6C00CD805FEA486000F169815FEA884000F12E
:103B7C008C815FEA484000F1CC8100204FE1DFF8F6
:103B8C0020040178062900F08D80042900F096802D
:103B9C00002940F04281DFF80C6496F833104A0794
:103BAC0000F196808A0700F12381090740F13581E5
:103BBC000621017096F83600002800F0ED8123F004
:103BCC008BFF002800F0E8810546F06840684078DB
:103BDC00800740F1BC81287806AB0321002225F038
:103BEC002BFD002800F0A18108980188B42916D873
:103BFC00B4214FF47A720180DFF8AC034FF400511A
:103C0C0000782DF0C9FCDFF8A403016839B1DFF8A6
:103C1C00A0030078FF2814BF2878FF208847F0689D
:103C2C0040684078C00740F08981092083E1DFF8C3
:103C3C007863DFF86C43DFF86CA348F2040748F2B2
:103C4C000109307820F058FA30B305460078D328B3
:103C5C0008D1E889B84213D0484519D1284618F044
:103C6C0009FE15E02178884212D009280CD00A28C8
:103C7C000ED19AF833002871DAF8241031B907E024
:103C8C0028461DF099FB03E0DAF81C10A81C8847A5
:103C9C0028462BF0C2FAD4E788F40040BFE088F441
:103CAC008050BCE0002132220170BE4880F83210F6
:103CBC00BD48042100782DF06FFCAEE02BF0E9FA42
:103CCC0004200121A7E015F04FFB88F08000A6E04E
:103CDC000521017096F83410890740F19A8096F806
:103CEC003610002940F09580052101600120B0704C
:103CFC0022F03EFA02202AF0FFFB8EE0DFF8A4A2AD
:103D0C00DAF82050002D00F0908002A80DF1180B6D
:103D1C0001300BF104060190002D00F08380A87A8D
:103D2C0018B10138A872000660D19AF839408CB1EC
:103D3C000020A91C08228DF8180030462CF04CFEEF
:103D4C0058461CF081FC28B12A88BDF81A0031466F
:103D5C0029F016F8AF1C0DF117015A4638461AF027
:103D6C000FFB8146384605A928F007FE1CB39DF8C9
:103D7C00280040F0020002281DD0384629F080FBB4
:103D8C009DF81700012816D1584614212DF094FBEC
:103D9C00894A09EB490000215B4642F8201002EBEE
:103DAC008000142241604172FF2049468DF82800A2
:103DBC00042029F0C9F9DAF81C00A0B101983946A1
:103DCC0008222CF009FE022000220C238DF808009A
:103DDC00BDF81400ADF812007348007802A90091E8
:103DEC00092125F00AFC284622F0A8FFED6893E78C
:103DFC000421017096F83400C0070ED096F83600F6
:103E0C0028B12BF046FA0420012105F057F80420C4
:103E1C0000E00520002105F051F888F004000BB0FB
:103E2C00BDE8F08FDAF8200028B95F484FF4006144
:103E3C00007821F073FC88F40060F0E723F04CFE6E
:103E4C00D0B1584E0546307801383070000616D087
:103E5C00554C4FF48041207825F00CFE30B9306978
:103E6C002CF052FE10B9287820F0F4FF2078402175
:103E7C0043F698222DF090FB4A48007810B90B209D
:103E8C002CF03AFE88F04000C9E7464EDFF8189156
:103E9C00DFF818A1002506AC002006F108070190F8
:103EAC003F6857B3D7F804B09BF800000028F7D050
:103EBC00F028F5D803210022234625F0BDFB00286D
:103ECC00EED008980188A1B94FF4407086F83250B2
:103EDC002DF0C2F999F8000002A92DF0B0FADAF829
:103EEC00001086F832500029DAD09BF80000884781
:103EFC00D6E7013901800120D1E7019999F800003A
:103F0C00C9070BD04FF400514FF47A722DF044FBDB
:103F1C0008E013F0EFF988F4804080E74FF400518B
:103F2C0021F0FCFB88F4005079E7F0684068407899
:103F3C00C0070CD10E202CF0DFFD08E040F2093058
:103F4C002DF08AF91848007802A92DF078FAF0685B
:103F5C0040684078C1073FF460AF16490968C1B1A9
:103F6C00287820F077FF10B10E202CF0C5FD0E4CF8
:103F7C000C20402143F69822307020782DF00CFB59
:103F8C0040F20A302DF068F9207802A92DF057FA8A
:103F9C0043E780073FF541AF0E202CF0ADFD3CE729
:103FAC004070002050250020FE700020382B00208F
:103FBC008829002080270020484D00202DE9F04F53
:103FCC00AFB004460020ADF8280094F82400012876
:103FDC0009D1DFF8300494F82810807831B100282A
:103FEC0000F0FA8102E0DFF81C04807848B9207DEB
:103FFC0000F0FE00022804D12FB0BDE8F04F1EF0F7
:10400C00BDB8DFF800743878012806D1DFF8F80362
:10401C003979007E814240F0CE80DFF8F8534FF4BE
:10402C00FA60E06028682CF03EFE18B1E1680844A4
:10403C00E06007E0E16828682DF035FADFF8D80376
:10404C002DF075FB94F825008DF86C0048B1022812
:10405C0009D11BA804F11801082204302CF09CFD96
:10406C0001E0E06A1C900DF12B051BA80AAA294659
:10407C001CF00CF90646D0B99DF8381094F82600BF
:10408C0001F0030181420DD105F10E0004F1340160
:10409C0004222CF081FDBDF82810022041222B4671
:1040AC0021F030FE9DF86A0008B1DC490870B87840
:1040BC00B8B3012840F0908194F83800E3280DD172
:1040CC00B86818B18047002800F08681F86818B1EC
:1040DC008047002800F0808194F83800E22804D151
:1040EC0094F82800002840F077810020002E18BF9B
:1040FC0005460021282295F80D801EAE30462CF086
:10410C0081FB01A8002103222CF07CFB94F83800E1
:10411C00E32840F0C0809DF8041041F00802E32031
:10412C00E9E0207D042800F25781012101FA00F01A
:10413C0010F0130F00F0508101A8002124224FF041
:10414C0000082CF05FFB1EAF04F1180B04F12C09D6
:10415C000026BD1C07F1060AB8F1040F45D85FFA1A
:10416C0088F0394627F0EFFD06460D2820D00A2EA0
:10417C0000F08C8094F825009DF878104140490798
:10418C0001D0022614E048B94846514604222BF0CF
:10419C003DFC002840F02F8194F82500022807D11F
:1041AC005846294608222BF031FC002840F0178194
:1041BC0008F10108D0E794F83800E32840F00C81AE
:1041CC0092482DF0B2FA00283FF427AF8F4C2046CE
:1041DC002DF0AFFA8E48C82100682DF064F9204606
:1041EC002FB0BDE8F04F2DF0A2BA002E4ED100201A
:1041FC00616B9DF885509DF878209DF8793006917B
:10420C0094F83810C5F382068DF81C1094F8291018
:10421C00002918BF083606F15001182606EAD2020A
:10422C00104403F0010240EA4210BDF8042040EAB9
:10423C008510C0B2104340EA0120ADF8040094F898
:10424C00400058B18DF81D002DF0C4FA089028B12B
:10425C0094F8402004F141012CF09EFC6A48C08A7D
:10426C00ADF8240094F9150010F16D0F0146D8BF7C
:10427C006FF06C012CF0E6FCC8BF3B21A07D002840
:10428C0018BF012041EAC0108DF82600E17D01A87D
:10429C0001F0F0FEA0E094F8251011F0070119D000
:1042AC00022920D106F1080004F1180108222CF093
:1042BC0073FC94F8301094F8380002228DF88810B2
:1042CC009DF80410E32862F302018DF804103FF40A
:1042DC0024AF0AE0E16A1F919DF8041021F0070158
:1042EC008DF8041001E09DF8041094F8292021F0B9
:1042FC00080141EAC2029DF80510022302F00F02E8
:10430C0063F3051194F82630022B16D394F827602A
:10431C00012E17D0D6B94FEA980606F00706042EE0
:10432C006DD8012707FA06F616F0160F67D0C8F3FA
:10433C00820621F01701314408E0002B08BF21F060
:10434C00170103E041F0040121F0130163F305129E
:10435C00237D032B03D1E36B41F0080127938DF8E8
:10436C009000606B239001F00700C9B242EA801004
:10437C00C1F3C00240EA4220C1F30012C1F3401164
:10438C0040EA822040EAC120ADF8780094F8400061
:10439C0020B18DF8910004F1410025901A482B466C
:1043AC00C08AADF8980094F9150010F16D0F014614
:1043BC00D8BF6FF06C012CF045FCC8BF3B21A07D31
:1043CC00002818BF012041EAC010E17D8DF89A0049
:1043DC001EA81BAA0BF08EFC2FB0BDE8F08F01A815
:1043EC005946082208302CF0D7FB94F830008DF891
:1043FC0014000220FCE6D9F800000290F7E601F068
:10440C00E801A3E700280020805E00206C670020F4
:10441C00747000207070002028670020B9290020DB
:10442C002DE9FE4F8846080426D45FEAC87004BF05
:10443C000020BDE8FE8FE54805682DF022F9044602
:10444C002DF01DF960434FF47A714FF6FF72B0FBFB
:10445C00F1F14FF6FF70002D00F01A812B886C885B
:10446C00CB1A9BB29C4240F21C81E31A94B2A34239
:10447C00B8BF1A46ED68EEE7DFF840A3CDF804802C
:10448C009AF800001FF038FE002800F0FC80064669
:10449C000078012840F0EC80DAF8041096F833909C
:1044AC00D6F814B096F8138021B1484688470028F6
:1044BC0040F0DE80718896F83100022229F05AF91A
:1044CC000546002842D0287A297CA0F10108FF2952
:1044DC0000F0BB80707F4F46C00718BF0027E97CF7
:1044EC00287D0144B94204D8E974FF2101FA00F097
:1044FC006874A969A87C96F83020896A10FB0710AB
:10450C00F16A2CF069FA287D697CB7FBF0F202FBAA
:10451C00107001228240D2B20A436A74C8457CD121
:10452C0096F83010AB7C13FB0713A9698B844FF4FE
:10453C00FF7303FA00F0C0B21043FF2868746CD10B
:10454C00287C20F053FBFF2028747FE0707FC0078D
:10455C0000F08E80B07F2CF0BFFA002800F088802D
:10456C0004461C202DF0C1F8002800F081801C218D
:10457C0005462CF0A1FFB07F02A92AF0E4F99DF8C2
:10458C0009000221287528462AF088FA708896F8C6
:10459C00312096F8301096F83330A880287DEA71D7
:1045AC00FF2202FA00F0687460680078A97428741D
:1045BC00302013FB010080B229F024FE0028A861F2
:1045CC005DD004461A20B11C2060708CA080A01D08
:1045DC002BF06AF8F27F04F13000B17F96F82830A6
:1045EC00C4F81CB084F81980A062307CE273744A61
:1045FC00217563750121A075928C2282F28EA285A1
:10460C00F28C6282B6F81100A4F817009AF8000038
:10461C0085F808901FF068F855E72DF032F804463D
:10462C002DF02DF860434FF47A71B0FBF1F0654931
:10463C0028806348097800794843642148436249DB
:10464C00097800FB0100688000E04F46E87C297D7A
:10465C006A7C01440139B94218BFFF2A0CD186F893
:10466C003300708806F11C0186F834201BF075FFAE
:10467C0030462AF0D2FD03E7C845F9D1EFE72846CA
:10468C002AF01CFAF4E7019880F40040BDE8FE8F94
:10469C0092B282424BD04948012100782CF07CFF29
:1046AC0045E0A879022806D1287CFF2837D0A869D4
:1046BC002AF0B3FD33E02CF0E4FF04462CF0DFFFCE
:1046CC0060434FF47A71B0FBF1F03F49288095F8C4
:1046DC003800097888421BD295F83620FF2A06D17B
:1046EC0095F83720013085F8380085F8362095F894
:1046FC00351095F8394082F0FF0300200126C7B22F
:10470C00A7421DD206FA07F71F4214D10130F6E773
:10471C00EA8BA87E95F82A10E92325F07DFA284625
:10472C002AF0CCF92548012100781EF0DDFF88F035
:10473C000100BDE8FE8FFBB201441A4385F8362018
:10474C00AB8F95F83440C8B204FB10339EB2A6422E
:10475C0003D2FF2285F8362002E0FF2A08D1234637
:10476C00184A174E1278367972436426724302E067
:10477C0095F83A2023466A802A8D0E0606D022F040
:10478C00200244432A852A6C224404E042F0200192
:10479C002A6C2985297A85F82E10E9796A6285F8C0
:1047AC002D10D9B269840549496811B18847002890
:1047BC00B8D105F1100006F02DFAB3E7F829002066
:1047CC00805E0020AC2B0020B22B00208446002001
:1047DC002DE9F04FC3B00DF1450B884601469146CB
:1047EC0058462CF018FF08F0080500260DF1040AB5
:1047FC00042E39D8F4B25146204627F0A4FA0D28DD
:10480C0003D007460A2801D17DE17DBB20465946DD
:10481C001FF0E2FD01360028EAD0002D51D10BF13A
:10482C0037010DF1860002222CF0B6F9BDF8860096
:10483C009DF83A10ADF8C800C80700F083800AF163
:10484C00370732A9022238462BF0E0F89DF83A10CF
:10485C00012877D101F0FE00FF2104228DF83A00E7
:10486C0038462BF0CFFF6FE001274CE102202146A8
:10487C0041225B4621F046FA0746B4480BF10B0186
:10488C002CF02EFB68B90BF1370120462CF063FE9F
:10489C0038B90BF13B0120462CF05DFE002800F0EE
:1048AC0032810C202CF096FF002800F019812CF09E
:1048BC00E7FCB9F1000F18BF4FF0010984F80A901A
:1048CC0005E19DF84500400661D49DF84600C007FF
:1048DC0000F0A48032AF0DF1450138462CF09BFE60
:1048EC000DF1860901A948462CF095FE9DF8BC00F7
:1048FC00810700F1288110F001054FF03B0007F112
:10490C00370108BF3720042248442CF045F9022017
:10491C00002D08BF01209DF8BC10084349468DF8B6
:10492C00BC0001A82CF077FE08F060009DF8051083
:10493C004038B0FA80F001F0FE01400908448DF8CF
:10494C0005006BE0880733D44FF0FF300BF12206E3
:10495C002CF03AF8384631462BF058F80AF12C0571
:10496C00E0B3384629460A222CF016F932AE284616
:10497C000A2231462CF010F9304639462CF000FE54
:10498C00002800F0B98001A82BF00FFFB4E04FF025
:10499C00FF302CF019F832A839462BF037F80BF110
:1049AC00220930B3384649460A222CF0F5F827E0A4
:1049BC000AF13B0632A9022230462BF027F89DF86B
:1049CC003A10012840F08E8001F0FD00FF210422F6
:1049DC008DF83A0030462BF015FF8DE02846314615
:1049EC002CF0CEFD002800F0928032A928460A2235
:1049FC0080E0384649462CF0C3FD002800F0958035
:104A0C0008F060019DF804006039B1FA81F100F002
:104A1C00BF00490940EA81108DF804009DF846005A
:104A2C00810608D50AF10B000BF10B0102222CF0C8
:104A3C00B3F89DF84600400613D59DF805000BF120
:104A4C000D01012240F040008DF805000AF10D0027
:104A5C002CF0A2F80AF112000BF1120110222CF02A
:104A6C009BF89DF84500800605D59DF8040040F0A4
:104A7C0020008DF804000AF10E000BF10E01042247
:104A8C002CF08AF8BDF88400214641225346ADF83B
:104A9C004300022021F036F907462C480AF10B019D
:104AAC002CF01EFA58B90AF1370120462CF053FDB0
:104ABC0028B90AF13B0120462CF04DFD18B30C200F
:104ACC002CF088FE60B12CF0DBFB0120A07220489A
:104ADC00214600782CF06AFC20462CF005FD12E0F3
:104AEC00102710E041F00100314604228DF83A0005
:104AFC000AF137002CF050F801AB0220214641227C
:104B0C0021F000F90746384643B0BDE8F08F32A8D3
:104B1C0039462CF035FD0128EED132A829462CF06F
:104B2C002FFD01283FF42FAFE6E70AF12C0732A83E
:104B3C000A2239462AF06AFF00287FF433AF384640
:104B4C0049462CF01DFD0C27DDE700BF805E0020E0
:104B5C00067100202DE9F04F8FB00C46080430D4BC
:104B6C00A00448D4A00652D4E00600F10D816006E2
:104B7C0000F11C81200600F11E81E00500F120816E
:104B8C00200500F12281E00400F13581600400F180
:104B9C003C81A00700F15081A00500F15E81200747
:104BAC0000F16881600500F16B81E0034FF00005B6
:104BBC0040F1F88021F09CF9BA48C57084F4803536
:104BCC00F0E0B64800781FF097FA88B10178B44A43
:104BDC0005460020582808D0135C08308B42F9D1C8
:104BEC00104450F8041C2846884728462AF015FB28
:104BFC0084F40045D6E023F023F828B10546FDF7F0
:104C0C00B9FB28462AF009FB84F40055CAE0A34FEF
:104C1C002021387824F02EFFDFF888824FF001092C
:104C2C00D8F80810084317D02CF02BFD05462CF0B3
:104C3C0026FD68434FF47A71B0FBF1F0D8F80810F8
:104C4C00401A4FEA500938BF6FF00049002500297F
:104C5C0064D0B9F1000F61D000200421002229F0AA
:104C6C0045F806464FF0060A4FF0FF0B4FF6FF785B
:104C7C0002AD002E4ED0304604210022374629F0DA
:104C8C0035F806463889B0EB090038BF002038816A
:104C9C000004EED1B87BD0B301280AD17889400743
:104CAC0007D4386887F80DA0B721407B22F080FF2D
:104CBC00DFE739682A468DF806B0ADF80480086A3B
:104CCC00C97F10F00BFA01281BD1B87BB97A8DF88B
:104CDC0038000907788A40F08002ADF8362006D5F6
:104CEC0040F4C070ADF83600387B8DF83A00786926
:104CFC0010B1007BADF81800284601A9002203F082
:104D0C00B3FD387B87F80DA01AF096F9B1E70120B6
:104D1C007873AEE7DFF88C81604F4D4629F070F95F
:104D2C0000200121002228F0E1FF18B13878202161
:104D3C001EF0DAFC002004210022002628F0D6FF09
:104D4C0060B306890421002228F0D0FF28B1B1B24B
:104D5C000689B14238BF0E46F4E7A8B2B1B281421F
:104D6C0017D9D6FA55F0202180B2420038782CF0B1
:104D7C0013FC2CF086FC05462CF081FC68434FF4A8
:104D8C007A71B0FBF1F609E00BF060F884F01005D5
:104D9C0008E0387820211EF0A7FC0026C8F808602F
:104DAC0084F0200528460FB0BDE8F08F0FF00CFC06
:104DBC0084F04005F6E72AF025FF84F08005F1E742
:104DCC0028F0B4FD84F48075ECE720F0FBFC374848
:104DDC00007801280CD13448007848B14FF47A712E
:104DEC0000FB01F22D484FF4006100782CF0D1FB50
:104DFC0084F40065D6E72B48017819B100210170C5
:104E0C0020F0E0FC84F48055CCE72A48006880B19F
:104E1C002749097801290CD180472748006800B13F
:104E2C0080471E484FF480414FF47A7200782CF082
:104E3C00B0FB84F48045B5E72048007890B102AD12
:104E4C0028462CF0ECFA2BF0E5FF1D490B781D4998
:104E5C000A7829461FF072FE09E019F025FD84F44A
:104E6C0000759FE71848418B01202CF034FC84F02E
:104E7C00020597E70B48012184F00805817091E742
:104E8C0012480078022808BF1CF015FE0E480121BC
:104E9C00808C2CF010FC84F4806583E7F670002085
:104EAC00AC2D0300A0290020B62B0020B72B00202E
:104EBC00B42B00203C270020482700208A2B002000
:104ECC00BA2B0020BB2B0020805E0020DC290020A8
:104EDC0070B586B00C46080403D4600433D40020AB
:104EEC003EE0C64800781FF007F9B8B305460078D5
:104EFC00A0F1D00106292BD9A0F131010629C0F06F
:104F0C008A801A2844D0FD2857D0FE286FD116204D
:104F1C0029F078F9002800F07E8006460230142132
:104F2C002CF0CAFA932030802A796878A978EB881B
:104F3C00012A33813071317418BF0222B271E978C1
:104F4C00A87831754DE026F005FA84F4804007E02E
:104F5C000120884010F0750F04D05CE084F4004010
:104F6C0006B070BD01294BD1A54E6878B17881424D
:104F7C0051D006F8020FA34B4FF0007000213246BF
:104F8C0027F00CFC16F8010C9F4981F8680042E0F0
:104F9C00302029F037F900283DD0302106462CF07E
:104FAC008BFA9220A91D3070A87B0328307169D12F
:104FBC00B01D08222BF010FD66E00A2029F022F922
:104FCC0048B306460020C6F80600C6F80200912039
:104FDC003080A8786978EA7870713171B271A988DB
:104FEC0031812AF053FF002840F084808AE0284663
:104FFC00FBF71EF878B1A87829461FF0F7FDADE74E
:10500C00E889A0F50041062913D8DFE801F0087FF4
:10501C008A0498B0BB0028462AF0FFF89EE7284681
:10502C001EF0C2FB0028F6D06988824B0646012090
:10503C00B2E048F23601884200F0B58048F2200117
:10504C00884200F0B88048F22101884200F0BB8011
:10505C0048F22201884200F0BE8048F234018842B6
:10506C0000F0C1801328D6D100206E460290CDE905
:10507C000000284631462AF0B5FA69886E4B4FF08D
:10508C0080705AE00888F080D5F80200C6F812004B
:10509C00E88AA6F81B00E87BB073288A3082688AFD
:1050AC00F082287D3076687D002818BF012070764C
:1050BC00687E002818BF0120B076287E7077E869DA
:1050CC00306295F8200086F82400A88DF08495F8BD
:1050DC002E0086F82800A88C70852CF006FB002882
:1050EC00F06298D0AA8CA96A2BF076FC287D2AF065
:1050FC00CDFE20B1007931461FF078FD8BE7F06AC8
:10510C002CF0F1FA30462AF088F884E728461EF095
:10511C004BFB00283FF47FAF6988454B06460220C5
:10512C003AE06E46122130462CF0C6F9284631463C
:10513C001AF026FD69883D4B042032465AE06E4633
:10514C00182130462CF0B8F9284631462AF026FEB4
:10515C006988354B1020324627F020FB039818B194
:10516C002CF0C1FA002003900598C8B953E72846E3
:10517C0028F071F900283FF44EAF6988294B064698
:10518C00202009E0284628F066F900283FF443AFB8
:10519C006988234B06464020324627F0FFFA3046FA
:1051AC002CF0A1FA37E7A8696988184B2CF02CF879
:1051BC004FF480001EE0A8696988174B2CF024F886
:1051CC004FF4804016E0A8696988144B2CF01CF849
:1051DC004FF400500EE0A86969880E4B2CF014F8BF
:1051EC004FF4004006E0A8696988094B2CF00CF8D4
:1051FC004FF4801027F0D2FA0DE700BF8D5200203B
:10520C00402A00201FEA0200805E00205BD60200CC
:10521C0031D6020085D6020007D60200DDD5020089
:10522C007B4702002147020065CB010091900100F1
:10523C00D53B0200353C0200B174020092B0DFF89D
:10524C00B892D9F8000010B1002180F84510483010
:10525C0027F09CF92BF0CCFD8046072014F036FF8C
:10526C001CF048FE10B1A5482BF078FF1FF042FD52
:10527C0001AD28462BF018FC0427002029468DF898
:10528C0004702BF019FC9E4C20602BF011F80AAD29
:10529C0028462BF0C9FA002029468DF828702BF0EF
:1052AC00CBFA984E30602BF00DF806AD28462BF05B
:1052BC00CBFA002029468DF818702BF0CDFA316806
:1052CC00914D286019B991482BF048FF286810B906
:1052DC008F482BF043FF206810B98E482BF03EFF0F
:1052EC0023F04EFED9F800004FF0FF3438B1CDE971
:1052FC00104410A908222AF0CDF801281BD1CDE9C1
:10530C00104408202CF0F1F9002846D00546002660
:10531C00052E04D82BF0C3FFA8530236F8E74FF63E
:10532C00100029460822E8807B482BF055FB2846C4
:10533C002CF0D9F909E0D9F80010CDE91044002976
:10534C00DFD0754808222BF047FB10AA012008215A
:10535C002BF0C8FE092800D0D8B928F0F6F9800740
:10536C0012D4CDE91044CDE90E440EAB012000213E
:10537C0008222BF02DF960B90EA810A908222AF0EA
:10538C0089F8002800F0B280634A012008212BF034
:10539C00AFFE6149E22023F0A9F816F035FC242079
:1053AC002CF0A3F95D4E002830604DD05C4F5D4C65
:1053BC0007F10C052CF04BF85B498968D1F84C13BC
:1053CC0088473068056007F110052CF040F823F091
:1053DC00B7FF3068456007F114052CF038F827F05A
:1053EC0095FD3068856007F118052CF030F820F039
:1053FC006FF83068C56007F11C052CF028F825F013
:10540C00D9FE3068056107F120052CF020F825F055
:10541C0041FA3068456107F124052CF018F823F0A7
:10542C0021F83068856107F128052CF010F81CF084
:10543C006FFE3068C56107F12C052CF008F8387048
:10544C0014F020FB306805621DF070FE2BF040FC60
:10545C0040462CF06EF81CF057F82BF048FF01205A
:10546C0023F0AEFD1EF02EFF31480078022808D143
:10547C002E480078012804D14FF40040012109F096
:10548C002BFD274D4FF4804128782BF02FFDDFF8B2
:10549C00A4904FF0000868684FF0FF3110F0FEFE4A
:1054AC003068002750F82710096821B9791C082F9B
:1054BC000F46F7D3EFE72BF0EDFE316851F82710CC
:1054CC000C68C1F800802CF070F859F827200020E7
:1054DC002146904704462BF0DDFE316851F8271029
:1054EC000A6822430A602CF060F8D4E70A480EA937
:1054FC0008222BF071FA4CE72C2B0020D23303003E
:10550C002C700020307000203470002035370300E0
:10551C00E037030042390300E56F0020B87000202B
:10552C006C24002095B302000C010020CE2B00202F
:10553C00DC290020103303002DE9F04F89B08A4696
:10554C0008040DD45FEACA7040F01F815FEA8A70CC
:10555C0000F12D815FEA0A7000F13581002044E1F1
:10556C00A34F38781EF0C8FDDFF88C92A64DA14CE5
:10557C0006464FF0000B48F21508002E00F0028191
:10558C00307831283AD032284BD0D32840F0B48030
:10559C00F089404574D0382840F0AE80CDF820B06A
:1055AC00CDE906BB304606A926F0D0FE9DF81C10AE
:1055BC00052969D8307B002840F09E809DF81D009D
:1055CC00002800F09980052800F2968006982AF0B1
:1055DC00A9FD002840F09080707C8849AC4678701A
:1055EC00708808809DF81D00214601388DF81D003B
:1055FC0006A890E82C002CC165467DE0B8780328FD
:10560C007AD899F82E1028462AF08CFD002873D1F0
:10561C00FF207C49607170880880B08878490880C8
:10562C006AE06079FF2814D000201CF0DDFD0246F2
:10563C00B9F8701078783346CDF800B016F0C6FE85
:10564C006079002858D03878082132222BF0A4FF3A
:10565C0052E099F81810706820FA01F2D2071ABFBC
:10566C003144097A002100221B2A43D020FA02F38C
:10567C00DB0703D0B3181B7A99421ED80132F3E72B
:10568C00304628F01BFA37E0FF293DD0FE2956D1D1
:10569C0099F872109DF81E00884202D860BBFF2951
:1056AC002AD122F08BFD069900201B2859D021FA13
:1056BC0000F2D20757D10130F7E7B9F86E004F4925
:1056CC00334608804E4802884E48018810200090CE
:1056DC00002016F07BFE0120F870B87840B93C2011
:1056EC0002214EF66022B88038782BF055FFB8783E
:1056FC000130B87084F805B0304629F08EFD38784A
:10570C001EF0FAFC064638E799F872109DF81E0058
:10571C00884203D80028EFD1FF29EDD122F04EFDAD
:10572C00069838B1D9F82810814203D0C9F828005E
:10573C0029F074FBBDF820002AF018FBDCE7307B65
:10574C000028D9D170882D49802200230880707CD4
:10575C00CDE900BBCDE902BBCDE904BB15F0C8FA1D
:10576C00CAE71B2000E0C0B299F818108142C3D0E0
:10577C002649087099F80700642100FB01F238787B
:10578C00012163E78AF400402FE020491A4C087885
:10579C002076E12022F0AAFE29F040FB0020A4F89C
:1057AC00700001201CF020FD8AF001001DE0104863
:1057BC008188B1B101394EF66022818000780221D6
:1057CC002BF0EAFE0FE00B4C607938B121792068A0
:1057DC002AF0A8FC10B96079013860718AF00800D1
:1057EC0003E0002181708AF0020009B0BDE8F08F5F
:1057FC00282800207C6F0020805E0020C26F0020D3
:10580C007A6F0020EE6E002000F8FF07F970002080
:10581C002DE9F04F85B0DFF8AC8298F80000012834
:10582C0022D1DFF8A4B2D8F810609BF82070DBF816
:10583C001C501B2F21D1A5482BF09FFEB0B1A448C2
:10584C002BF09BFEA0B1A3482BF097FE90B1A24881
:10585C002BF093FE80B1A148052128F001FF002810
:10586C0040F01B811B2708E0012522E1FA2704E008
:10587C00FB2702E0FC2700E0FD2706EB460005EBCA
:10588C008009A7F14100C0B24E461A2838BF203714
:10589C0016F8140F3446032814F801AF1ED0022852
:1058AC0040F0AC808E4D2BF0DCFC2AF065FD4FF007
:1058BC00FF3001903078022840F0A080207820B38F
:1058CC00F8B21B2837D00D2848D1D9F81830002051
:1058DC002070CBB302A901AAFF2034E0804D2BF03D
:1058EC00C0FC2AF049FD3078032840F084802078F1
:1058FC0090B1FDB21B2D05D0FD2D51D0FC2D55D0F6
:10590C007F2D5BD10020207075E0F8B20D2875D189
:10591C000120FE27207021E0F8B20D286BD1012068
:10592C002070D9F818000368002B5CD0C08802A93D
:10593C000022984757E0D9F81830002020701BB18E
:10594C0002A901AAF920984700208BF8000000203A
:10595C000DF0C4F92078002800F09F80D9F8183099
:10596C001BB102A9F8B201AA984701200DF0B6F9B3
:10597C00BDF806004FF6FF7290420DD0BDF8041032
:10598C00914209D0ABF804000120ABF802108BF85F
:10599C00000023F0E9FE80E000208BF800007CE0A2
:1059AC002AF0EAFF013991FBF2F304E02AF0E4FF5C
:1059BC000131B1FBF2F303FB12110180D9F818008D
:1059CC0003684BB16FF00C01C08851FA87F1B1FA42
:1059DC0081F14A0902A99847B5F10D0018BF0120C1
:1059EC000D2D207007D009F110000168049828F0E3
:1059FC00CDF901204FE02078824515D16FF0FB00E6
:105A0C00F9B250FA87F002281AD30D2923D01B299A
:105A1C000AD07F2941D1DBF81C00C16869B1D8F8E4
:105A2C001400CBF81C1033E0BAF1000F01D0207831
:105A3C0080B3DBF81800CBF81C00007A013827E0A3
:105A4C00DBF81C00007A012827D0FD2916D0FC2990
:105A5C0020D1012114E0D8F81000DBF81C1000EB69
:105A6C00400201EB82010A7D012A26D092B9896994
:105A7C00CBF81C100021C8E904100BE04FF0FF31EB
:105A8C00D8F8102001441144B1FBF0F202FB1010C5
:105A9C00C8F8100000200DF021F90025D8F80800F6
:105AAC00052200234BF8205F59468BF8045028F050
:105ABC0028FF284605B0BDE8F08F89690029E9D098
:105ACC008847E7E7382600204C210020543E03008D
