:10000000003C01202D400200195E0200195E020032
:10001000195E0200195E0200195E0200195E0200FC
:10002000195E0200195E0200195E0200195E0200EC
:0C003000195E0200195E020099E9000050
:10003C002DE9F047A8B004460078A0F1A0015C2996
:10004C0000F26780DFE811F0BC00DF005D005D00AE
:10005C00F70024015F015D00B900B9008401C10102
:10006C00F00117022A02360244024F0258026102C2
:10007C00670270027602A402BB02C602D202E2023E
:10008C00ED02B900B900B900F7020103B900B900DB
:10009C000C03B900B900B900B900B900B900B90036
:1000AC00B90017031D03B900B900B900B900B900B4
:1000BC00B900B900B90026032F03B900B900B90083
:1000CC00B900B900B900B900B900B900B900B9005C
:1000DC00B900B900B900B900B900B900B9003803CA
:1000EC00B900B900B900B900B900B900B900B9003C
:1000FC00B900B900B900B900B9005D005D005D0040
:10010C00B90060681221002808BF0221617001F05B
:10011C00DCB94D2800F25180A678DFE810F0D60249
:10012C004E00E602F002CB034E004E00F403050431
:10013C0053044E004E004E004E004E004E0058042C
:10014C0062048A044E00B1044E004E004E00B90504
:10015C00C8054E00D305ED054E0016063A063D06C1
:10016C004A066E064E004E004E004E004E00B8067B
:10017C004E00C606D706E8064E004E004E004E0056
:10018C004E004E004E004E004E004E004E004E00F3
:10019C004E0001071C0736074E004E004E004E0065
:1001AC0050074E007A074E008B074E004E004E0053
:1001BC004E00AB07C207CF07D907122001F084B954
:1001CC006068002801F07F81A168002901F07B8123
:1001DC0001783A20002908BF3B200BAD00211122E9
:1001EC002B4628F009F80028607041F06E81D4E9A4
:1001FC0001109DF82C204270097800F8021B691C34
:10020C00102200F09FBD6168002901F05C81087824
:10021C004A783A258B7800288DF82C2008BF3B258E
:10022C000BA80130002B00F069870331102228F055
:10023C00BDF900F065BF6168002901F04481A06838
:10024C00002801F0408111F8012B00F8012B28F057
:10025C0013FF60680178002901F00681DFF81C08A3
:10026C000BAE002506F108080788AF4201F0298182
:10027C00A9B2042000221423009625F01DF860700A
:10028C0020B928F007FC002801F07A810135ECE751
:10029C006068002801F017810178002900F036878A
:1002AC00DFF8A40E0DF12C0A00250DF11C08002618
:1002BC000AF10809CDE90955CDE907550788B74278
:1002CC0001F03081B1B2042000221423CDF800A03B
:1002DC0024F0F2FF6070A0B960684946082204302F
:1002EC0026F0F8FF002801F01B8155B960684146E3
:1002FC000822043026F0EEFF00284FF0000508BF5E
:10030C0035460136DBE76068002801F0DC800178B7
:10031C00002900F01587DFF8300E0DF12C090027AD
:10032C0009F108080588BD4201F0CF80BEB2042057
:10033C0000221423CDF80090314624F0BDFF6070EC
:10034C0020B928F0A7FB002801F0FE800137EAE76E
:10035C006168002900F0C786DFF8F05D087885F841
:10036C00260095F872204888E882087A2876488911
:10037C0068834868A8628889A884887B85F83800D7
:10038C00C87B6871087CE870486928638869686371
:10039C00087F824202D020F0D5FA616805F139005D
:1003AC001D3128F0B7FE95F82600082840F0A386EA
:1003BC00DFF8982D2120742128F04AFC002002211E
:1003CC00002522F0A3F800F097BE6068002800F02A
:1003DC008C86007820F0B6FA6168DFF8705D287EB4
:1003EC004978884212D029760BA9E12024F0D8FD57
:1003FC00606841789DF82C00884207D08DF82C104D
:10040C000BA9E12020F0D0FB60684078012101FAB3
:10041C0000F0A86226F040FC00260120A5F87060D0
:10042C0021F0B2FE00F062BE6068002801F04B8043
:10043C0001884088ADF81C00ADF82C100BA9532096
:10044C0020F0B2FB07A9502020F0AEFB0DF11B01F0
:10045C00E12024F0A5FD60689DF81B100079814215
:10046C0001F02F808DF81B000DF11B01E12020F015
:10047C009BFB01F026B86168002901F02480DFF8AD
:10048C00D00C28F0F9FD6068DFF8C82C0189807A5F
:10049C001180DFF8C41C087001F013B860680028E4
:1004AC0001F0118000216170817800881DF0F8FA4C
:1004BC0001F00BB8A068002801F0058000206070E6
:1004CC001FF082FF002800F07186A16800F0E6BDE5
:1004DC006068002800F0F78700216170007808F050
:1004EC005BFA00F0F2BF6068002800F0EC8700783F
:1004FC0020F09EFB00F0E8BFA068002800F0E38726
:10050C000020607028F038FBB2E00020607022F010
:10051C009BFC00F0DABFA068002800F0D487002014
:10052C00607028F0D7FBA3E00020607022F0C4FCC0
:10053C0000F0CBBF6068002800F0C5870021617017
:10054C00017D19B1C17CDFF8142C5174817D19B176
:10055C00417DDFF8082C9174017C19B1C189DFF859
:10056C00FC2B1181017B19B18168DFF8F02B5160F4
:10057C00817C19B1417CDFF8E42B5173017900299E
:10058C0000F0A3870068DFF8D41B086000F09DBF63
:10059C00A068002800F09787DFF8C01BD1F80D2069
:1005AC00C0F80D2091E82C0085600D7BC0E900237C
:1005BC000573B1F81110A0F8111000F082BFA068FB
:1005CC00002800F0808700216170411C20F00EFB98
:1005DC0000F07BBF6068002800F075870021617017
:1005EC001FF090F8A168088000F06FBF6568002DBF
:1005FC0000F06987EB88AA88698828782E890A35E3
:10060C00CDE9006513F062F900F05EBF6068002868
:10061C0000F0598782884188007805F06BFD00F066
:10062C0053BF6068002800F04E8700F1120121F0E2
:10063C007FFA00F049BF6068002800F044874168E9
:10064C0000781FF0F7F800F03FBF6068002800F05A
:10065C003A8700216170007823F088F900F035BFEB
:10066C00A068002800F02F870020607026F094FB13
:10067C00A16800F014BD002060701DF045FF00F073
:10068C0024BF6068002800F01E87006822F0F8FB89
:10069C0000F01ABF6068002800F01587006804F0AD
:1006AC008FFA00F011BF6068002800F00C8700681A
:1006BC000BF09EFF00F008BF60680078002800F087
:1006CC00178527F0B7F900F000BF6068002800F02C
:1006DC00FA86407818B1FF20032121F017FF28F08B
:1006EC003AFCE44801210160FEE76068002800F054
:1006FC00EA8603210171E049016000F0E2BE626804
:10070C00002A00F0E086A168002900F0DC860020B9
:10071C006070107840B101200870DFF8440A00784E
:10072C00002818BF01204870907840B10120087152
:10073C00DFF8300A0078002818BF01204871D07803
:10074C0048B1002027F04EFDD4E90121C0F3403020
:10075C00C87101208871107928B30120087201F149
:10076C000C0027F03FFDA1680882DFF8FC09007837
:10077C00C8B9DFF8F8590120A847A16848610220E0
:10078C00A847A16888610420A847A168C86108200F
:10079C00A847A16808621020A847A16848622020D9
:1007AC00A847A16888626068427932B1012281F859
:1007BC002C20DFF8BC291288CA85827932B101223B
:1007CC0081F83020DFF8AC2912884A86C27932B120
:1007DC00012281F83420DFF8A0291288CA86027A17
:1007EC003AB1012281F83820DFF89029127881F88B
:1007FC003920427A3AB1012281F83A20DFF8802977
:10080C00127881F83B20827A3AB1012281F83C209F
:10081C00DFF87029127881F83D20C27A3AB10122B2
:10082C0081F83E20DFF86029127881F83F20027BA6
:10083C003AB1012281F84020DFF85029127881F872
:10084C004120427B3AB1012281F84220DFF8402955
:10085C00127881F84320827B3AB1012281F844203E
:10086C00DFF83029127881F84520C27B002A00F08D
:10087C00928601201122002681F846000BAD8120C2
:10088C0000212B4627F0B8FC9DF82C00A16800280D
:10089C0081F8470000F0648628F091FCA1680028DC
:1008AC00886400F073869DF82C20691C27F07EFE6E
:1008BC0000F070BE254655F8040F002800F00386A2
:1008CC0000216170017841B14078DFF89428012152
:1008DC001070632028F0BCF92868017941B1407987
:1008EC00DFF88028012110706D2028F0B1F92868FC
:1008FC008179002900F05C84C1794FF400500BF031
:10090C00C3F900F069BC6068002800F0DC8590F940
:10091C000050284626F0B0FDA068002800F0D185D4
:10092C00E9B2017000F0CDBD6068002800F0CB8505
:10093C00002161702A2128F04FFBDFF81058606805
:10094C00DFF854680822E98A0180A98C8181698BBF
:10095C00C182DFF848180978817205F139010E302F
:10096C00B047676827F044FB0146B81C0822B04723
:10097C00606805F11C0108221830B0476068297EB8
:10098C00012280F82310DFF8181880F822208978CB
:10099C00CB0718BF80F824208A0744BF012280F8B7
:1009AC0025204A0744BF012280F826200A0744BFAD
:1009BC00012280F82720490644BF012180F8281025
:1009CC0000F083BD60686FF03D01FFF79CBB606871
:1009DC00002800F07885008800210DF071FB00F0F4
:1009EC0074BD6068002800F06E85304627F0A6F8CC
:1009FC000546002800F0F784E888DFF8A81740F0D7
:100A0C000C00E880022027F057FBDFF89C1703202E
:100A1C0027F052FB40F20110ADF83100606801681C
:100A2C0000790B918DF830000BA81CF0ADFE00F096
:100A3C004BBD6068002800F046850BAD011D0822F7
:100A4C00284627F0B3FD032026F016F96068C07B1A
:100A5C0023F0A4FDDFF84807837860684188868915
:100A6C000278807BCDE90060284612F0A7FA00F0EE
:100A7C002BBD00BF7C05204301020206E0B702003B
:100A8C006768002F00F01F8528F095F905460028AF
:100A9C0000F0BA84387828B1E988787821F001011F
:100AAC000843E880B87830B1E988F87821F0020181
:100ABC0041EA4000E880387930B1E988787921F052
:100ACC00040141EA8000E880B87930B1E988F8790E
:100ADC0021F0080141EAC000E880387A30B1E98899
:100AEC00787A21F0100141EA0010E880B87A30B130
:100AFC00E988F87A21F0200141EA4010E880387B3F
:100B0C0030B1E988787B21F0400141EA8010E8801F
:100B1C00B87B28B1A968F87B21F001010843A860D3
:100B2C00387C38B1A968787C21F00201002818BF04
:100B3C000231A960B87C38B1A968F87C21F00401B5
:100B4C00002818BF0431A960B87D38B1A968F87DB8
:100B5C0021F01001002818BF1031A960387E38B17F
:100B6C00A968787E21F02001002818BF2031A960E7
:100B7C00B87E38B1A968F87E21F04001002818BF72
:100B8C004031A96097F8220048B1A96897F8230072
:100B9C0021F48061002818BF01F58061A96097F8E5
:100BAC00260048B1A96897F8270021F400510028C5
:100BBC0018BF01F50051A96097F8280048B1A96841
:100BCC0097F8290021F48041002818BF01F58041D5
:100BDC00A96097F82A0048B1A96897F82B0021F46E
:100BEC000041002818BF01F50041A96097F83400B6
:100BFC0048B1A96897F8350021F48011002818BF76
:100C0C0001F58011A96097F8380048B1A96897F8E8
:100C1C00390021F48001002818BF01F58001A9607A
:100C2C0097F83C0048B1A96897F83D0021F0807115
:100C3C00002818BF01F18071A96097F83E0048B1F7
:100C4C00A96897F83F0021F00071002818BF01F146
:100C5C000071A96097F8400048B1A96897F8410065
:100C6C0021F00061002818BF01F10061A96097F81C
:100C7C004200002800F0298497F84310A868002946
:100C8C000CBF20F0805040F08050A86000F01DBCDC
:100C9C00022060706068002800F01784418800789A
:100CAC0020F0AAFC002840F00C8400F00EBC606818
:100CBC00002800F0088400216170007822F054F8BC
:100CCC0000F003BC6068002800F0FD83A1680029D7
:100CDC0000F0F98300216170007826F005FCA16812
:100CEC000870400028F06BFA0146D4E9010251600B
:100CFC00007825F0E3FBE8E36068002800F0E3836C
:100D0C00A068002800F0DF830026C0E90066606858
:100D1C004188007824F076FF002800F0BD836670CF
:100D2C000546A16800880880A8780028887000F023
:100D3C00CC8328F044FAA1680028486000F0C583F1
:100D4C008A78E91C27F032FCBFE36068002800F0C9
:100D5C00BA830021CDF83A10CDF83610CDF8321008
:100D6C00CDF82E1002794188ADF82C105AB181685B
:100D7C0049B10F2A28BF0F228DF82E200BA8033063
:100D8C0027F014FC606800780BA901221BF092F983
:100D9C009AE326F0A3FE97E36568002D00F0938399
:100DAC002F78384626F0D6FE002800F03F83D0205E
:100DBC008AE36068002800F08683007826F0CAFE7B
:100DCC00002800F080830546007B22F081FD00287E
:100DDC00607040F07A83DFF8BC0A4168002900F0AB
:100DEC00748300220C462346002C00F0BB83AB42DC
:100DFC0000F0B8831C681A46F5E76668002E00F010
:100E0C006283357D284626F0A5FE002800F05B8322
:100E1C00307F102141EA4007717F002908BF47004D
:100E2C00B07F002818BF47F00807F07F002818BFD4
:100E3C0047F0200796F82000002818BF47F040071D
:100E4C0096F821000028284618BF67F07F07D6F8CF
:100E5C00188027F03BFC002800F0358305466068BD
:100E6C00827A01788DF8352082898DF83410ADF8AE
:100E7C0036204A1E022A05D3032900F032840F299A
:100E8C0040F034844188ADF82C1000F02FBC616820
:100E9C000220002900F018830A888DF83400498854
:100EAC00ADF82C200BA802221DE06168022000295D
:100EBC0000F00A838DF83400002308880A794988E9
:100ECC00ADF82C000BA825F0C3FAFDE261680220F6
:100EDC00002900F0F9828DF8340005220888498831
:100EEC00ADF82C000BA8002326F0AAFAECE26568FA
:100EFC000220002D00F0E8828DF834002E7B0027B4
:100F0C002888AB79AA886988ADF82C00A8682D6967
:100F1C00CDE90006CDE902570BA813F063FED3E22E
:100F2C0065680220002D00F0CF828DF83400EE6849
:100F3C002F7C4FF0000C2888EB8869882A79ADF853
:100F4C002C00287A6D698DE8C100CDE9035C0BA8F3
:100F5C0013F0F0FDB8E26168002900F0B4820220C1
:100F6C008DF83400887B0D88421E8DF82400022AEF
:100F7C00ADF82C5005D3032800F090820F2840F0D8
:100F8C009282088AADF81C008DE26068002800F09F
:100F9C009A8202218DF834100188ADF82C10817BD7
:100FAC004A1E8DF82410022A05D3032900F09E82D4
:100FBC000F2940F0A182018AADF81C109CE26068F8
:100FCC00002800F0808202214FF6FC728DF834105C
:100FDC0001888A1A032A11D8022A0FD027F012FD91
:100FEC00ADF82C0060680021837AC27A0091811CD4
:100FFC000BA820F061FF607060680188ADF82C10C0
:10100C00837AC27A00210091811C0BA820F054FF36
:10101C005AE262680220002A00F056828DF83400F1
:10102C00002310889178D278ADF82C000BA81CF016
:10103C00DFFC49E26168002900F04582CA7A887AAF
:10104C000B7B4D7B002A18BF40F00200002B18BF11
:10105C0040F00400002D18BF40F008008A7B002AE5
:10106C0018BF40F040000023C2B20888023121F0C2
:10107C000BFE29E26068002800F02582A168002997
:10108C0000F0218200780BA925F00BFC0020BDF8A4
:10109C002C206070D4E90101A1F8012000780870BF
:1010AC0013E26068002800F00E82B0F80110ADF871
:1010BC002C1000780BA926F0EDF905E260680028E9
:1010CC0000F00182017A427A00231BF003FBFBE162
:1010DC006068002800F0F7818178C27800880023CE
:1010EC0023F0BCFAF0E1022506E002266670ECE182
:1010FC0026F0B3FEE9E100256570E6E123F0DEFAA7
:10110C000BAA2846112127F0A3FDDDE100F10C010B
:10111C000BA8102227F04AFA6068D0E907120430B5
:10112C00CDE90F1207A925F0A5F90028607000F091
:10113C0022826168488804310BAA1DF0C3FFC3E109
:10114C00013026F095FEBFE1E0B7020048580020C0
:10115C009C2800209A280020982800209824002001
:10116C007B2A0020C26A00207F2A0020B9A201003D
:10117C00282A0020242A00202C2A0020722A002051
:10118C006F2A0020622A0020702A00207A2A002070
:10119C00632A00207D2A0020B98502001427002034
:1011AC002C690020DD240200A582020001208BE1C5
:1011BC00017A89B1C168008A420701D064290BD336
:1011CC0012F00EFE002001210AF05EFDDFF8CC26A5
:1011DC003520282127F03CFD2868817C41B1808A8C
:1011EC00DFF8BC2602211080442027F031FD28684E
:1011FC00817D41B1008BDFF8AC26022110804620A6
:10120C0027F026FD2868817E41B1808BDFF8982677
:10121C0002211080832027F01BFD2868817F41B1BB
:10122C00C07FDFF8882601211070292027F010FDDF
:10123C00286890F8201049B190F82100DFF870264A
:10124C00012110702B2027F003FD286890F8221044
:10125C0049B190F82300DFF85C260121107043207F
:10126C0027F0F6FC286890F8241049B190F8250076
:10127C00DFF84426012110702E2027F0E9FC2868A5
:10128C0090F8261049B190F82700DFF8302601219C
:10129C0010702F2027F0DCFC286890F8281049B13A
:1012AC0090F82900DFF8182601211070302027F063
:1012BC00CFFC286890F82A1049B190F82B00DFF881
:1012CC000426012110702C2027F0C2FC286890F80D
:1012DC002C1089B190F82D20102A28BF1022016BF8
:1012EC008DF82C200BAC601C27F060F981201121AB
:1012FC00224627F0ADFC286890F8341049B190F8DC
:10130C003510102928BF1021826B622027F0A0FC19
:10131C00286890F83C1041B1006CDFF8AC25042132
:10132C001060842027F094FC286890F8441049B190
:10133C0090F84500DFF89425012110704B2027F020
:10134C0087FC286890F8461069B1DFF8844500F1F5
:10135C0047010822204627F029F947200821224678
:10136C0027F076FC286890F84F1031B100F150024C
:10137C000120082127F06CFC286890F8581041B126
:10138C0090F859008DF82C000BA952201FF00CFC82
:10139C00286890F85E1049B190F85F00DFF83425AA
:1013AC0001211070332027F053FC286890F85C1052
:1013BC0059B190F85D00DFF8202501211070322022
:1013CC0027F046FC1EF006F9286890F860100029FA
:1013DC007BD090F86100DFF8BC144870DFF8B014D3
:1013EC0081F8680071E01C2027F0E9FE00286CD021
:1013FC001C21054627F0F0FD28462E7122F038FB03
:10140C0000287FF4F9AA86E01C2027F0D8FE0028DB
:10141C005BD01C21054627F0DFFD28462E7122F0FB
:10142C0027FB002877D06768FFF734BB26F09EFBBC
:10143C00DFF860140978884270D227F0BCFC20B128
:10144C008146007B002800F08B811C2027F0B7FE22
:10145C00D8B31C21814627F0BFFD89F804604FF0FA
:10146C00010865682F787DE1013007A925F002F8A5
:10147C00607050BB07980021182240880BAB26F0F7
:10148C00BBFE607008BBA068DDE90F12C0E9071253
:10149C0009300BA9FEF7B4BEB12015E0103107A836
:1014AC0027F0EAFD6168DFF8E803C08A854210D1B5
:1014BC00887A0A7E0C310123009107A908F002FFFB
:1014CC0008B1002000E002206070012028B0BDE8C7
:1014DC00F08788890A7E8B7A07AE0025CDE9000655
:1014EC00CDE902258A1C0BA9212011E000F1100185
:1014FC0007A827F0C1FD60688189027E837A07AE58
:10150C000025CDE90225CDE90016821C0BA922206D
:10151C0019F0B4F9D8E7284627F04FFED120D3E7CD
:10152C0037463546012DD0DB60680822011D484640
:10153C0027F03CF860681422D0E90710CDE90B10B5
:10154C00B9B20BAB042008E00BAD1421284627F0F0
:10155C0043FD0420314614222B4623F0C3FEB3E78F
:10156C008E6417E0AB42B0D1A94208BF021D2868B7
:10157C0010602846E0E00798182140880BAAC2E5C5
:10158C00A068DDE90B12C0E907129EE70020886411
:10159C0081F847006068007C70B1102027F00FFEC6
:1015AC000346A06803653BB10121102280F84C1062
:1015BC006220002126F020FE6068417C31B1A168D8
:1015CC00012281F85420C04A12688A65817C39B1A5
:1015DC00A168012281F85C20BC4A127881F85D2058
:1015EC00C17C51B1A0680121082280F85E10A84985
:1015FC005F30393126F0DAFF6068017D59B1A5689A
:10160C00012085F8670026F0F3FC014605F168001F
:10161C0027F032FD6068417D79B10BA9522023F08F
:10162C00BFFCA068012180F870109DF82C100029D7
:10163C0018BF012180F871106068817D19B1A16813
:10164C000122A1F87220C17D51B1A168012281F85B
:10165C007420A14A1278002A18BF012281F8752043
:10166C00017E39B1A168012281F87620994A12785D
:10167C0081F87720417E51B1A168012281F8782050
:10168C00844A5278002A18BF012281F87920807E82
:10169C0000283FF41AAFA168012081F87A007C4938
:1016AC0091F82610082918BF042916D0A1B92120B9
:1016BC0027F09AFC74280FD10BAB21200021742247
:1016CC0026F09AFD9DF85210043901F0FB010843F5
:1016DC00B0FA80F0400900E00020A16881F87B009E
:1016EC00F3E6811C0BA827F0C7FC6068817B31B343
:1016FC00480027F064FD88B3616806460022887BA9
:10170C00904206D00B6933F8123026F812300132B1
:10171C00F6E78B8CCA8AD1F828C091F82210FFB258
:10172C00CDE90406CDE90271CDE900C80BA8294624
:10173C001EF0D5FF6070304627F03FFDC5E6838C68
:10174C00C28A816A90F82200FEB2CDE90018CDE978
:10175C0002600BA8294607F03BF8B5E61020B3E66B
:10176C004FF000084E4606F80C7F287A30734A4832
:10177C007060142027F023FD0028B06045D01421A0
:10178C0027F02AFC6268D9F81400526881799279A2
:10179C0001F0F00102F00F02114481716168D9F877
:1017AC00140049680A780270D1F80220C0F80220AF
:1017BC00CA79C271097B0173500027F000FDD9F87A
:1017CC001410886060B1CA7900239A4208D0656809
:1017DC006D68AD6835F8135020F813500133F4E7F9
:1017EC00087B400027F0EBFCD9F81410086160B1BD
:1017FC00097B0022914208D063685B681B6933F84F
:10180C00123020F812300132F4E7304624F044FE56
:10181C00B82802D00746022806D1307822F058F8B2
:10182C00304624F039FE074637B1B8F1000F0FD01F
:10183C00484627F0C2FC23E0B8F1000F3FF445AE58
:10184C00484622F015F900287FF43FAE484673E76E
:10185C00D9F8140078B1816821B1084627F0ADFCA5
:10186C00D9F81400016921B1084627F0A6FCD9F873
:10187C00140027F0A2FC0020C6E90000C6E9020013
:10188C00B82F3FF494AA022F3FF491AA1DE600BF93
:10189C0048580020082900209D4D0020F4640020A9
:1018AC00282A0020242A00202C2A0020722A00201A
:1018BC006F2A0020622A0020702A00207A2A002039
:1018CC00632A00207D2A0020142A00205F2A002091
:1018DC0040290020672A0020682A00202DE9F043C7
:1018EC0095B00179044601F00700012840F0DE8133
:1018FC00DFF83809031D2068027D1B68002B00F0FF
:10190C00D5811D799542F8D19E68002E00F0CE81CC
:10191C0083880125082B00F2CA81DFE813F0090047
:10192C00C801C801160026006800D000C801DC0000
:10193C00080700F13D83E07A002840F0B781306859
:10194C00002800F03583804732E3E37A090700F181
:10195C00EB80012B00F0AF81002B40F0A781E068F9
:10196C00114600881CF09CF822E3080700F1F48073
:10197C0000200DF11C0800211222ADF81A0040467F
:10198C0026F03AFDE668E07A3746052837F8011B61
:10199C00ADF81C1000F28A81DFE810F00600CF01D0
:1019AC00ED01100237024C0220683246007D07A977
:1019BC001FF03CFB6FF07602B82808BF6FF0750281
:1019CC00002808BF024627F0EAFA40F0F182488866
:1019DC00002840F0ED82A37A087DBDF81C4001255B
:1019EC0006310293D3B20022CDE900450AE2080782
:1019FC0000F1F3800020E768002122228DF81A0004
:101A0C000CAD284626F0F8FCE07A3988BA7806281E
:101A1C008DF83220ADF8301000F24881DFE810F07C
:101A2C0007002002270231023C0249025202B7F899
:101A3C00030000210DF11A030422ADF834002068D4
:101A4C007E79007D0091052120F0B8FD9DF81A00EB
:101A5C00063750B10F2E05F10900394628BF0F2665
:101A6C0032468DF8386026F089FEE0683E44218AC3
:101A7C00801B08448DF84800C0B288B1092805F1D4
:101A8C00190724BF08208DF84800FF21082238468A
:101A9C0026F0B2FC9DF848203846314626F06EFE02
:101AAC00BDF83010002900F0A3822068007D24F0DE
:101ABC00A9F8002800F04183BDF8301099E208071E
:101ACC0000F17682E07A022800F2F0807169002938
:101ADC0040F06D826CE2080700F16A82E17A082915
:101AEC0000F2E4800020DFE811F00A00390246021F
:101AFC00560209003802450255025B020121726A46
:101B0C00002A00F05582E06803788DF83030013BF4
:101B1C00FD2B00F25282B0F801008DF83410ADF8B4
:101B2C0032000CA8904743E2002B40F0BF800630F7
:101B3C000C90E0680088ADF834000CA81DF02EFE67
:101B4C00F168002900F034822068E26806300790C2
:101B5C001088ADF82000A7E00DF11C08E768002103
:101B6C001222404626F048FC0CA80021142226F034
:101B7C0043FCE07A022804D300F0AC80032840F048
:101B8C00958039788DF83510B7F80120ADF81C2008
:101B9C0079B901280DD1FA7808F103000F2A28BF72
:101BAC000F22391D8DF81E2026F0E8FD08F10200E9
:101BBC001090B16B0025002979D001208DF83C5094
:101BCC00CDF838808DF83600E07A8DF83400206836
:101BDC0006300C900CA8884769E00DF13008D4F859
:101BEC000C9000212222404626F006FC07A800217A
:101BFC00142226F001FCE17A99F8000006298DF8F0
:101C0C0021001CD199F8011000288DF82810B9F882
:101C1C000210ADF8301078D00025716C51B1E07A1B
:101C2C00CDF82C8009958DF820002068063007909F
:101C3C0007A88847002D00F0BB8128468AE1B9F837
:101C4C0001008A1E032AADF8300009F103001AD3F3
:101C5C00C9B101292AD199F8030099F8065009F164
:101C6C00070739468DF83200B9F804000F2DADF88E
:101C7C00340028BF0F2508F109002A468DF838508A
:101C8C0026F07CFD7819716C002900F09181E27AC4
:101C9C00032A1CBF00788DF83200CDF82C808DF80B
:101CAC00202020680630079007A880E101252846EF
:101CBC0015B0BDE8F083B1680025ADF81C500029C3
:101CCC0000F0228106300C900CA88847206881888F
:101CDC00027D1AE138788DF83C007D78002D00F0FB
:101CEC002781680027F0D8FA002800F0218180466F
:101CFC0000208DF83650854200F01C8107EB400126
:101D0C00498828F810100130F5E799F80470002F75
:101D1C003FF482AF384627F0BFFA00283FF47CAF7F
:101D2C00054609F1050000218DF822708F423FF421
:101D3C0074AF425C6A540131F8E72068427D002A96
:101D4C0040F0368142880025002AB0D1007D89B24E
:101D5C0023F058FF2168A37A012400280A7DCDE9DD
:101D6C0000430CBF8B2580460631434610462A465D
:101D7C0017F0BCFA58E296F80090202027F08CFA65
:101D8C00002800F020818046B9F1000F00F0B781E7
:101D9C00002600254D4580F0128120683988007D91
:101DAC00ADF81C1023F02EFF28B1BDF81C10F0B2BA
:101DBC00013628F8101002370135EBE7206889B29C
:101DCC00007D18F05BFB2068BDF81C10007D1FF037
:101DDC0013FC00250022002808BF6FF0740227F0C6
:101DEC00DEF87FF464AF4888002840F0E180A37AE5
:101DFC00BDF81C40087D012506310293D3B2CDE914
:101E0C00004503221FF0B8FD0EE22068007D0CA9EE
:101E1C0024F054FB002800F0CB8005460CAE206863
:101E2C00002D007D00F0C68036F8021B18F026FB52
:101E3C00013DF4E7206800250DF11A03032100226F
:101E4C00007D009520F0BAFBBDF81A0000283FF485
:101E5C002EAF20683246007D07A91FF0E7F8A7E0F7
:101E6C0026F0A4FF002800F0E8800023C9E12068D8
:101E7C0089B2007D16F00CFF002800F0EA800022E9
:101E8C00F3E0080400F0078126F07CFF002800F046
:101E9C005681BDF83010FFE0080400F0038126F0F5
:101EAC0071FF002800F05F819DF83220BDF83010E2
:101EBC00F9E026F07BFF00287AD0316C002977D02E
:101ECC000890EEE6080404D026F05CFF002800F031
:101EDC004C81052027F0E0F9002800F00081054630
:101EEC002068BDF830102A46007D1BF08BFA814625
:101EFC002068417D002900F06981B9F1000F00F0E4
:101F0C0050814FF0000835E103210095104607ABD6
:101F1C00002220F053FBBDF81C20002A48D0216879
:101F2C00A37A087D00930631012322F0D7FD7BE1D3
:101F3C004FF00008B16B49B1E07ACDF838808DF8DC
:101F4C003400206806300C900CA88847B8F1000FBC
:101F5C002ED0404627F050F82AE00120B16A39B360
:101F6C00E268137852788DF832008DF830308DF8A5
:101F7C0031201BE00120F16AD1B1E268137854786A
:101F8C0052888DF834008DF83030ADF832208DF851
:101F9C0031400BE00120316B51B18DF8300005E080
:101FAC00716B29B1E0680088ADF830000CA8884747
:101FBC0000257CE620F0D8FEFAE7872577E6300688
:101FCC0040F0A380B7E089202168A37A01258DF821
:101FDC003100E07A00248A888DF83000087DCDE944
:101FEC000055CDE9024306310CAB21F0E6F91BE1BB
:101FFC00002120689DF83220007D17F039F9002867
:10200C0072D00646BDF83400B0809DF81A0030B18D
:10201C0006F1080005F10801102226F0AFFB9DF82F
:10202C00482006F1190005F1190126F0A7FB9DF8CF
:10203C004800307623F076FF5FE0BDF8301031B108
:10204C002068007D23F0DEFD002800F0D8808B2373
:10205C00D6E02068BDF83010007D23F0D3FD6FF082
:10206C007402002808BF6FF07A0226F098FF40F047
:10207C00DB804888002840F0D780A37ABDF8304038
:10208C00087D9DF83250012606310393D3B28DE8BA
:10209C0070000222B0E000212068007D18F0EEF9FB
:1020AC0000234DE000212068007D17F0E1F8074681
:1020BC0028B920F0D1F9042800F291800CAFF16B13
:1020CC00002972D0206808970630079007A8884727
:1020DC00AF426CD000286FD023F024FF6CE04FF09F
:1020EC0000094FF0890844E020F0B6F9052878D2B1
:1020FC002068007D0CA914F035FE002372E02068E6
:10210C004146007D24F0DAF9064625682F7D25F03E
:10211C00E5FCC0F11000A17A0122F3B2C0B2CDE906
:10212C0002380123CDE90020CDE90421A91D384650
:10213C00022215F019FB404634E0852352E085233A
:10214C0026F02DFF70D1488800286DD1A27A087D29
:10215C000125BDF8304000260631CDE9025203229C
:10216C00CDE9004648E0852327E04FF000094FF009
:10217C00850800252668377D20F06EF9A17ABDF818
:10218C0030200123C0F10500CDE90095CDE90223F3
:10219C000491C3B2B11D3846424616F077F9002DB2
:1021AC0042D0284626F028FF3EE0AF4204D12068FA
:1021BC00007D0CA914F0D6FD002326F0F0FE33D1DF
:1021CC00488888BB25F0BEFB042215E040884FF000
:1021DC0000080028CED0B9F1000FE2D0CAE789235D
:1021EC00EBE7892326F0DBFE1ED14888E0B9E07AC4
:1021FC00D0B925F0A7FB00221DF05DFE14E085236D
:10220C000CA821684A7D7AB94A886AB9E27A012A0F
:10221C000AD10A7DA47A01250631CDE900051046C4
:10222C000122029411F0D6F9FF2540E5F028002098
:10223C002DE9F04F8FB00C46480719D4200400F15B
:10224C007580E00400F1CE81200600F1EC81A0073E
:10225C0000F1EE81200500F10F82600600F124826E
:10226C00A00400F14882600400F19B82002018E277
:10227C00DFF8BC050178062900F21182DFE811F0C5
:10228C000700C2010F020F0209020F02C701DFF89B
:10229C00A46596F837108A0600F101824A0700F10E
:1022AC00DB818A0700F1EB81090740F1F8810621F7
:1022BC00017096F83A00002800F0B6821EF084F8FF
:1022CC00002800F0B1820546F0684068407880072D
:1022DC0040F18582287804AB032100221FF047FCD3
:1022EC00002800F06A8206980188B42916D8B42117
:1022FC004FF47A720180DFF840054FF400510078FA
:10230C0026F0C6FEDFF83805016839B1DFF8340570
:10231C000078FF2814BF2878FF208847F0684068B1
:10232C004078C00740F0528209204CE2DFF81C05CF
:10233C00DFF80475DFF8F8A4DFF8245548F2040838
:10234C0048F202094FF6FE7B0088029038781AF0AA
:10235C004BFD002800F0438106460078D3280DD1B0
:10236C00F089404537D0484539D048F201018842C0
:10237C0040F01B81304614F0A5FA16E19AF80010D3
:10238C00884219D1012856D0032840F00E81DFF87D
:10239C00AC0400780138012800F20781B0780128DC
:1023AC0077D0002840F001817078002800F0BD80C3
:1023BC0000201CF05BFCF8E00A2840F0F680DFF807
:1023CC00741491F837003071096A002900F0ED801F
:1023DC00B01C8847E9E0304618F0C0FAE5E0DFF8B9
:1023EC0074040078002800F0E0809AF800000128BE
:1023FC0040F0DB8026F03AF8002840F0D680708858
:10240C00002840F0D2800AAD1221284626F0E4FDC7
:10241C0026F086FC3046294616F0E4FFBDF8340061
:10242C00B0F5285FC0F09480012002211DF028FA3D
:10243C00DFF82C54B9E0DFF80404007801380128E7
:10244C0000F2B3807078DFF8EC2360B192F83C00B6
:10245C0092F83D10013082F83C00C0B2884202D99B
:10246C00012000219FE09AF80100032834D00228B3
:10247C004BD0012840F09980DFF8D8030078002871
:10248C0000F08B8025F0F2FF002800F092800120F4
:10249C0084E07078002850D026F0B4FA5845DFF864
:1024AC00B8B34FF6FE7103D1BBF81600884207D0C3
:1024BC00ABF81610ADF81010532004A91EF074FBE5
:1024CC001DF05AFB24F0E8FA00208BF826001CF0D3
:1024DC001BF84FF6FE7B68E0AB4604ADAB20002149
:1024EC002A461CF017FE04200A955D464FF6FE7B2B
:1024FC008DF82C000AA80EF025FD26F011FC38787A
:10250C004FF4805141F288321FE0012050714FF49A
:10251C008060ADF8100004A817F09CFB26F000FCBE
:10252C00CB484FF4805102680EE00FF083FEC14897
:10253C00406AD0BB1BF0E8FF37E002204FF480511B
:10254C0040F6B8328AF80200387826F0A1FD2CE06B
:10255C00C2480DF10F01006804AA15F07FFC01467A
:10256C000298BF4D814213D29DF8200010B1FD207E
:10257C008DF820000420142204AB8B4622F0B2FE0E
:10258C000BEB4B004FF6FE7B012105EB80004172FB
:10259C00A848002180F83B1003E00020A54981F8F1
:1025AC003B000120012101F08BFE304624F081FD1F
:1025BC00CCE6A04991F83E0020B1886A0028F4D0FE
:1025CC008047F2E70020002102220023ADF8100022
:1025DC0002208DF8180004A824F032FF8DE784F453
:1025EC0000405EE0954800780138012841D89048B9
:1025FC000178032935D001293BD1417800201DF009
:10260C003FF936E0012001211DF03AF947E00021A5
:10261C0032220170874880F83610874804210078F0
:10262C0026F036FD3BE011F0C7FA84F0800038E06C
:10263C0082480078013801280BD80020CDE904002D
:10264C0004A81DF081FC20B17B480221007819F010
:10265C0081FF84F0020024E0052101700520002197
:10266C001BE08178022904D10121817000201DF02A
:10267C0087FE84F4805014E084F4006011E004219F
:10268C00017096F83810C90709D096F83A1000294D
:10269C0076D024F03BFD0420012101F011FE84F0E2
:1026AC0004000FB0BDE8F08F1DF08EFED0B1614F6D
:1026BC000546387801383870000616D05E4E4FF457
:1026CC00804130781FF0BCFB30B9386926F016F821
:1026DC0010B928781BF0B8F93078402143F69822CD
:1026EC0026F0D6FC5348007810B90B2025F0FEFFDD
:1026FC0084F04000D5E74F4EDFF83C91DFF840A165
:10270C0000250DF11008002006F1080702903F6823
:10271C0057B3D7F804B09BF800000028F7D0F02886
:10272C00F5D80321002243461FF021FA0028EED0F1
:10273C0006980188A1B94FF4407086F8365026F0FF
:10274C003FFB99F800000AA926F02DFCDAF80010DE
:10275C0086F836500029DAD09BF800008847D6E777
:10276C00013901800120D1E7029999F80000C907CD
:10277C001CD04FF400514FF47A7226F089FC19E00A
:10278C002E490978013901293FF689AF03210160EF
:10279C000120B07001201AF097FC012023F0A0FE5C
:1027AC007DE70FF0A7F884F480407AE74FF40051EE
:1027BC001BF084FD84F4005073E7F06840684078A7
:1027CC00C0070CD10E2025F091FF08E040F2093033
:1027DC0026F0F6FA184800780AA926F0E4FBF0680F
:1027EC0040684078C1073FF45AAF17490968C1B136
:1027FC0028781BF029F910B10E2025F077FF0E4D2B
:10280C000C20402143F698223070287826F040FCAA
:10281C0040F20A3026F0D4FA28780AA926F0C3FB35
:10282C003DE780073FF53BAF0E2025F05FFF36E715
:10283C00F86900206C240020966A00206B2A002086
:10284C00F429002068280020D8260020E0B70200D8
:10285C00FC290020542A002048580020C45A00208B
:10286C0040650020A4B0DFF8146501214FF0010A87
:10287C00B06026F03BFADFF80805DFF80815DFF842
:10288C0008454FF0000B4FF47A720023CDE900BBE2
:10289C00A047DFF8F894DFF8FC1464220023CDE99C
:1028AC0000BBC9F81000DFF8E804A047C9F8140011
:1028BC00DFF8E404DFF8E41440F6B8320023CDE985
:1028CC0000BBA047C9F8040008AD284626F032FB2F
:1028DC0009F1200400212A468DF820B0204624F06E
:1028EC00F1FEC9F8084026F0DDF909F10C02214689
:1028FC00079220F09BFEDFF8A8740DF174080546D2
:10290C0012213870404626F067FBDFF89804A0F8D7
:10291C0000B0A0F808B04FF0080BDFF88C0406F8F4
:10292C000CBFB0602846314614F064FF06F110016C
:10293C0008201DF0B9F91BF097FADFF87004DFF8E6
:10294C0070240178082020F093FCDFF8681408202C
:10295C001BF054FF4FF40060D6498DF842A08DF85F
:10296C003CA08DF834A00E900C90D348CDF83E10BE
:10297C00CDF8430038780CA926F0AEFA0CAD442102
:10298C00284626F029FB40F201102946ADF84A00F2
:10299C00ADF86E00ADF84000387826F04DFA26F010
:1029AC008DF9DFF814140A3E08F10A054FF4202AB9
:1029BC0004228DF874B0CDF87AA008700620314648
:1029CC00CDF87600284625F0F1FD3878414626F002
:1029DC006FFA284631460422CDF876B08DF874B0E3
:1029EC00CDF87AA025F0E2FD3878414626F060FA61
:1029FC00DFF8C803DFF8C8230178082021F0F6FAC5
:102A0C00DFF8C0130820002225F0A0F9DFF8B80386
:102A1C00DFF8B813DFF8C0332246007801380128FC
:102A2C009CBF0A20A9F800000391DFF8A4133878A2
:102A3C000291DFF8A013CDE90091079909F082FA11
:102A4C00DFF8985328600CAE304625F0BCFE002011
:102A5C0031460CF013FCC9F818002868DFF8801315
:102A6C0009F11C0300220DF037FE18F017FA0020B4
:102A7C008DF82C0038780BA926F033FAB01DDFF84E
:102A8C0064A3DFF878B304901DA800F110010230A4
:102A9C000791B11C0590069120464FF0FF310EF0C6
:102AAC00A7FB0028F8D038781AF09EF9002800F01F
:102ABC00D98080460078A0F1C50106291BD8DFE833
:102ACC0001F004282DCACA323A0098F8040008F123
:102ADC00030505280BD128780D2808D0D9F810004B
:102AEC004FF47A7126F06FFAA54826F088FB284639
:102AFC0008F05AFFAFE0612821D0662849D092280F
:102B0C005ED0942840F0A78008F1030012F0F6FF85
:102B1C00A1E008F1030019F00DF89CE008F10400A5
:102B2C001FF07CFC97E0002031468DF8300038789F
:102B3C0026F096F98FE0387826F097F98BE098F824
:102B4C000400002840F087803878314619F0F2FDF7
:102B5C00BDF830000822ADF87400DDE9050125F060
:102B6C0025FD032008F1050108228DF88200079845
:102B7C0025F01CFD0620ADF8800008208DF87E00A5
:102B8C007E4840788DF88C0038781DA926F059F9CC
:102B9C0061E098F8060000285DD198F80A0000283A
:102BAC0059D07649D8F80C00497802788A4200F05E
:102BBC00D380002800F0DD800130C8F80C00F4E769
:102BCC00D8F8120098F80E10CDF8320098F80400DE
:102BDC008DF83F10B8F81010ADF84010411E8DF86C
:102BEC003E00022903D3032806D00F280AD1B8F8D7
:102BFC000600ADF8360005E0049808F1060108223D
:102C0C0025F0D4FCD8F81600CDF8420098F81B003B
:102C1C008DF84600B8F81C00ADF8470098F81A007B
:102C2C008DF84900D8F82000139098F824008DF8FE
:102C3C005000B8F82600ADF85C0098F828008DF824
:102C4C005E00B8F82A00ADF85400D8F82C001690A5
:102C5C00304603F08BFB404612F0F0FF10B94046B3
:102C6C0024F027FA18F052F9D9F80C00010706D510
:102C7C00424920F008000022C9F80C000A708107B4
:102C8C005CD5BAF80000C8B10138AAF800000004FD
:102C9C0014D055485549564A00780968002808BF91
:102CAC004942106808444FF47A71106090FBF1F0BF
:102CBC0006E000BFFFFF0104030100014D4800784E
:102CCC00C0B221F05FF99BF8000038B94A4800788F
:102CDC00FF2803D125F0F2FF3749087048480078E7
:102CEC00B8B125F0EBFF012801D901250EE09BF8C6
:102CFC000000411EB1FA81F14D0938B13E4800780F
:102D0C00FF2803D12C48007821F03CF9284620F00C
:102D1C0093FA1EF0ADF918F0C1F8BAF8000038B10A
:102D2C00D9F81400642126F04EF9194826F067FAF8
:102D3C00D9F80C0020F00200C9F80C0040077FF510
:102D4C00ABAE3878314626F0AEF8D9F80C0020F04E
:102D5C000400C9F80C009FE658B100203146ADF8CC
:102D6C003200B8F80800ADF83000387826F06EF86C
:102D7C0071E70248002141706DE700BF181F002069
:102D8C002C6000207D82020079DF0100AC24002041
:102D9C007060002091820200E85F002069820200CE
:102DAC00956A00206C6900207C2700200FB8020077
:102DBC00549B020075580200BD6A00200DB8020039
:102DCC00BCAB0200597F02006B2A00207D5402002C
:102DDC00A9540200D0B40200806A00201C6A0020B2
:102DEC00BBB30200886A0020C06A0020786A002009
:102DFC00746A0020BF6A0020BE6A0020BB6A0020F3
:102E0C00C16A00202DE9F04F89B020F0FDF8DFF801
:102E1C0010158122DFF81485DFF814A5DFF82045A2
:102E2C00DFF814E50A70DFF8FC140860DFF8F8042A
:102E3C00FF2101700020DFF80415A8F800008AF8C3
:102E4C000000DFF8F0040968007891F808B04FF63C
:102E5C00FE718EF8000059448AB2A168D1F8003195
:102E6C00DB899A4200F267810422DFF8DC54A8F86F
:102E7C000020DFF8D02412689668330ECEF80C6070
:102E8C00C6F301592B706FF0FF0303EA1627B3B298
:102E9C00D1F8B86047EA1327AEF8047036781EB93B
:102EAC00B9F1020F00F04781B9F1030F00F0438133
:102EBC001B0A03F0070316B1002B00F03C81DFF86E
:102ECC008CC4042B9CF800C008BFBCF1000F00F0B0
:102EDC0032813EB1DFF878643678862E02D1022B2F
:102EEC0040F02981BB0416D4BBB203F00703022BBC
:102EFC0008BFBCF1000F20D0DFF8541409788629E4
:102F0C0009D10020764620F0D3F8DFF84004B6460D
:102F1C0090F800C0307800284ED0BCF1000F4BD197
:102F2C00012800F0088103283FD0022844D1BEF8C4
:102F3C000400400740F0FF803EE0D1F8D40090F848
:102F4C008300022800F0808027460520147BF2467F
:102F5C00A946A8F8000025F037FD0546DFF8F00378
:102F6C00007886286DD1B868016C096811B9D0F861
:102F7C004C05804760B20021002622F08DFBB96819
:102F8C000A6C12685077086C00688677086C0068C9
:102F9C00C477284626F052F8BAF8041099F80000C5
:102FAC0001F010011BF02EFB4EE0BEF8040000F007
:102FBC000700032840F0BF80BEF80400010700F1B1
:102FCC00BA80810402D4810500F1B5809EF80E20F0
:102FDC00C2F38107012F00F0AE809609012E00F09C
:102FEC00AA80B9F1010F11D840F0020101F00701DC
:102FFC0003290BD117B93F2A40F29D8037B9A1683C
:10300C00D1F8AC100978002900F095804FF6FB71CF
:10301C00B9F1020F0BEB010C19D1CF4BD95D9B5DB4
:10302C0003EB01090023402AB7FA87F238BF0123CA
:10303C0052091A40430616D4002A08BF09F10209A6
:10304C0015E0284625F0FAFF24F0CCFA75E0C14BC8
:10305C00402AD95D9B5D03EB010908D3420648BFAA
:10306C00A9F1020903E0002A18BF4FF00209C0F3CE
:10307C0000205FFA89F11FFA8CF30A1A8EF801000E
:10308C009A4258DC60440391B346401AA168AEF8EA
:10309C0006007430D1F8501280B28847A649002837
:1030AC00886048D07421CDE9019725F095FFA24F97
:1030BC000020B870A548007820B9387900F02000BD
:1030CC008AF8000078789AF80010DFF878C24FF090
:1030DC0000092E4600299A493DD000284FF00000E7
:1030EC003AD1B88800F00700032807D0012832D164
:1030FC008868D0F8D40090F8820060B3C868406942
:10310C00007818B124F06AFFFE280DD08C48806836
:10311C00D0F84C02804738B989488068D0F844020E
:10312C008047002800F0F780834F0120B870DFF84B
:10313C0014C22E4610E024F061FD25F045FC8149B7
:10314C0000240A6813681C7112680A6025F076FF67
:10315C0009B0BDE8F08F0020BC6804F1740184F85C
:10316C0030B06160A1657978BB88FA880029A381A9
:10317C00029B228184F83A30337808BF9946B8F81C
:10318C00003097F80EB0019DA4F85C20FF2284F863
:10319C004990A2735E1A797BCBF30119A8F80060F1
:1031AC0001F0780160F3820101EB0900207428061C
:1031BC0000F0AE80DCF8000004AF039A10FA86F041
:1031CC0000F10801384626F023F856FA85F0CBF3C7
:1031DC008105A8F80000207C00F04008CDB3B9F1BF
:1031EC00020F06D1B8F1000F03D0B4F8440004AFBD
:1031FC0006E0BDF810000237A4F84400A4F8420021
:10320C00564EF189884203D04FF6FF7188425ED149
:10321C00032D11D104F13200394625F07BFF464CC9
:10322C00F11CA068323023F080FB454900284ED0B9
:10323C0094F80EB008370EE037F8020BB1898842CB
:10324C00608606D04FF6FF713B4C88423C493ED11C
:10325C0001E03B49384CBBF1400F20D3B9F1020FD0
:10326C0006D16DB9B8F1000F0AD13348806803E07C
:10327C00A068017C490603D439880237A0F84210B3
:10328C00BBF1C00F06D32C4C3946A068283025F072
:10329C0041FF03E0284C3888A168088528498968D3
:1032AC00A088D1F8AC201278B2B1B9F1020F13D2C8
:1032BC0000F00700012802D003282FD11E4C6DB955
:1032CC00264AA368D289B3F84230934206D01BF049
:1032DC0064FB17F023FC30E700F00700032806D04E
:1032EC00012815D1D1F8D40090F8820080B1A068E3
:1032FC00D1F848128847104A50B90020D17B907001
:10330C00907BC1F3011100F07800084491680874B7
:10331C0008F0D4F911E7084FB87808E7064CDDE758
:10332C00A56A00202C6A0020AA6A0020BA68002036
:10333C00A86A0020A76A0020D0270020606A00201D
:10334C000C010020C4690020B76A0020B66A002076
:10335C00AD6A0020FCB60200F8B60200FC68002042
:10336C002DE9F84305460C46480413D4A00024D498
:10337C00A0075CD460057ED4200500F106812007EF
:10338C0000F13B81600040F1F68018F099FD24F0CB
:10339C008044F0E025F018FBDFF81C140F6D3FB1F2
:1033AC00D7E90A1202F0E04201F00A01891849D06B
:1033BC0025F044FE24F48044DDE0BB48DFF8FC73C8
:1033CC00016841F080010160B878012804D1042023
:1033DC0020F07AF90020B87025F0F6FA06460420A1
:1033EC0025F06AFBDFF8D8130A68904219D12A7EBF
:1033FC00BAB1FA68AAB1DFF8C003806C002800F0FB
:10340C009780C16840F603020988914206D0C068D3
:10341C0040F604010088884240F08A8005F11400CF
:10342C0088E040F6C4120860C5E9042284E009F083
:10343C002FFADFF88403006C002840F09D8024F004
:10344C00020498E0D7E90A65D7E90A12AA43B14306
:10345C00C7E90A1225F0F2FDB8680028AAD056EA8E
:10346C000500A7D0D7F808C03869B7F93010324634
:10347C002B46E0479EE725F0A7FA054622F08EFF83
:10348C00002800F0B780CC48876B002F00F0B2808A
:10349C00DFF828830420CB49002288F81800C6489E
:1034AC0024F08EFC25F0EEFDC74825F0BEFDC74884
:1034BC000068006B8047C8F810000125042088F8CC
:1034CC00025020F0ABFF386990F82810C8F80400BF
:1034DC00490703D5436A04210022984701201AF0BA
:1034EC00D7F9D8F80400457612F024F9D8F804007E
:1034FC0081680B461A465B684BB11E88A6F603061C
:10350C00072EF7D805FA06F616F0830FF2D0537B88
:10351C0003F0F003013353730023FD6853602D88CF
:10352C00A5F60305012D00F28A80C8F810309FE043
:10353C0005F110001DF0D2FA304625F07FFD20F089
:10354C0085FF78B12E6A28466FF4807100224FF007
:10355C000073B0479848806B10B118F0B1FC01E0D3
:10356C0044F00204EE692846002100224FF08063EB
:10357C00B04724F0005434B1974821462830BDE8B8
:10358C00F84325F030BEBDE8F8838C4EB0780128A6
:10359C0004D1042020F098F80020B07020F056FFE1
:1035AC0038B170686FF4807100224FF00073056AB7
:1035BC00A847306950B185480068006B8047326974
:1035CC007168801A000BC860002030617A4D814907
:1035DC000022284624F0F4FB02203076286C20B11F
:1035EC007D480221283025F0FEFD18F069FC24F4FA
:1035FC000064C0E725F046FD41E025F0E5F90546FD
:10360C0022F0CCFEA0B1DFF8B48198F800000007DE
:10361C000ED498F9000000280AD4684612F07EF9FE
:10362C0008B1009820B1DFF8B49199F8610048B363
:10363C0025F028FD18F044FC24F008049BE7034611
:10364C0033F8385FA5B190F8445090F8456005F018
:10365C00F00580F8445006F0F005013580F845502F
:10366C0000255360C5634587507B00F0F000507314
:10367C0057480022C2610160012023F0ADFA24F406
:10368C00806478E700260127602E0FD009EB060036
:10369C00817A31B18772407A07FA00F0C0B220F01B
:1036AC002DF82036F0E700BFCC210840032088F825
:1036BC001800454825F0B9FC25F0E4FC444F3E4D7C
:1036CC000022786900207861F968F860284644493E
:1036DC0024F076FB3D480068006B8047D8F80C104E
:1036EC00D8F82020411A02EB1130B0EB113F38BF53
:1036FC004FF0FF3098F82410C8F8200021B1D8F80A
:10370C000810B0EBC12F20D923F076FAB8B140F6EF
:10371C000900414621F83C0F002048804A7B02F00A
:10372C00F00201324A730A7B02F0F0020A7348601D
:10373C00F8613960B8F83E0010F4406FFAD0002000
:10374C00C8F82000012088F824001CF045FC25480E
:10375C00002101600220002123F03EFA02201FF01C
:10376C00B3FF102011F044FB98F8010020B9D8F8F1
:10377C000400503025F033FD1B48807810B90D2023
:10378C0011F036FB98F8250028B1002088F82500A8
:10379C0005201FF099FF002088F818001348C8F87E
:1037AC001C000220B5F85610B5F85420914208BF01
:1037BC00072017F007FE3DE71C230020F01F002018
:1037CC005829002085630200B46000208C01001091
:1037DC000010044005010100F82100209859002038
:1037EC0031BF010000000460CCB50200DDF900001F
:1037FC002DE9F04790B08246DFF89803007880B945
:10380C00BAF8080010B11020012101E0302000218D
:10381C0008F03AFA00208DF80C0003A952201DF094
:10382C00C3F99AF80810DAF8040003AA0CF05CFE4D
:10383C00C8B19DF80E509DF80F409DF81070BDF862
:10384C00166025F0D9F884420DD126F003004FF60E
:10385C00F87680B2B04206D0012F04D8022D02D2E5
:10386C009DF83D0028B1D32017F02FFC10B0BDE817
:10387C00F087BAF82800ADF83800BAF83200ADF885
:10388C001A009DF8120058B1DAF804109DF80D20BA
:10389C009DF82830012023F08DFD08B1CF20E3E7FF
:1038AC009DF8110068B1BDF81610FF2022F0AAF99E
:1038BC009DF81110D0B141F001012C278DF8111099
:1038CC0015E09DF82900002800F09B809DF82D1034
:1038DC00FF2902D0002940F0EB80AF48BDF816104C
:1038EC000027C08A814208BF222706E0082701F082
:1038FC000300012808BF47F011079DF81200DFF8FC
:10390C00988280B998F80B0068B107F02200222841
:10391C0009D007F042004228C0D10D98007800F081
:10392C00FE000628BAD117F0400911D00D98017885
:10393C000C2900F2C480012241F290438A401A42C1
:10394C0000F0AF8003A81EF0E5F901283FF48EAF1C
:10395C00B8F82400BAF8441081420AD19AF84620EB
:10396C00BAF84210BAF8280000230093002311F093
:10397C0031F89DF81200F0B1BAF84210BAF82800EC
:10398C0024F09FFF002854D00546DAF804009DF877
:10399C000D10EA780844417B8A421EBF00226A60FF
:1039AC00E9700130042121F0CFFD69688842FFF4F1
:1039BC005DAF0130686098F82600092802D0042811
:1039CC007FF454AFB8064AD4B9F1000F3FF44EAFB0
:1039DC000D989DF828100078042808BF022900F0E3
:1039EC00AE80072808BF042900F0AE800C2800F038
:1039FC00AF8003287FF43AAF03A800211BF094FC9E
:103A0C0034E7BDF816001EF02BFF02386249B0FAFD
:103A1C0080F0CA8A4109BDF81600904208BF0231F5
:103A2C00002958D09DF80E20002A76D001F14007CD
:103A3C0075E09DF83D0000284FD0042022F0FAFBE1
:103A4C0000283FF413AF01464FF4B2700880BAF867
:103A5C00280048805148007819F0EEFE06E79AF8E5
:103A6C0046008DF80800BAF84700ADF809009DF83B
:103A7C001E0001280ED1BAF82800BDF8181081429A
:103A8C0008D1BDF816001EF0EBFE022804BF002082
:103A9C008DF81E00DAF83C2003A802A902F0ECFF16
:103AAC00E4E603290BD140780D287FF44BAF4FE7A8
:103ABC000C9A9DF82C001DF033F800271DE7B8F880
:103ACC001600BDF8162082427FF4CDAEBDF818006A
:103ADC0020F014FCC7E6002721E098F86C000128C0
:103AEC007FF469AF0D980078062803D1B9F1000F67
:103AFC007FF461AFF01DBDF81A1080B281423FF423
:103B0C00B5AE27480178BDF8160029B3B8F81610E1
:103B1C00884221D11AF026FCA8E601F120071EF0FC
:103B2C009FFE9DF80E0000283FF4E7AE0D9800783C
:103B3C0023F0E4FE012818BF07F07E07DDE603A999
:103B4C0000200DF0E3FA91E603A815F0DFF98DE6FD
:103B5C0003A810F069FB89E6002114F059FE88B126
:103B6C00807910F0180F0DD0BAF82830BAF832401E
:103B7C009DF82920BDF81610BDF8180000941AF015
:103B8C0091FE73E6BDF81610BDF81800002219F06E
:103B9C0087F96BE67F2A002048580020916A0020A4
:103BAC00682A00202DE9FE4F8846080426D45FEAD7
:103BBC00C87004BF0020BDE8FE8FE548056825F0FD
:103BCC00D6FA044625F0D1FA60434FF47A714FF6D9
:103BDC00FF72B0FBF1F14FF6FF70002D00F01A816F
:103BEC002B886C88CB1A9BB29C4240F21C81E31A46
:103BFC0094B2A342B8BF1A46ED68EEE7DFF840A3D3
:103C0C00CDF804809AF8000019F0EEF8002800F0C6
:103C1C00FC8006460078012840F0EC80DAF80410AD
:103C2C0096F83390D6F814B096F8138021B1484624
:103C3C008847002840F0DE80718896F83100022217
:103C4C0021F03CFE0546002842D0287A297CA0F1C0
:103C5C000108FF2900F0BB80707F4F46C00718BFDA
:103C6C000027E97C287D0144B94204D8E974FF217E
:103C7C0001FA00F06874A969A87C96F83020896A6A
:103C8C0010FB0710F16A24F091FC287D697CB7FBCE
:103C9C00F0F202FB107001228240D2B20A436A7425
:103CAC00C8457CD196F83010AB7C13FB0713A9697F
:103CBC008B844FF4FF7303FA00F0C0B21043FF285B
:103CCC0068746CD1287C19F0B7FDFF2028747FE054
:103CDC00707FC00700F08E80B07F24F0F7FC0028C6
:103CEC0000F0888004461C2025F069FA002800F0BA
:103CFC0081801C21054625F06FF9B07F02A922F0C6
:103D0C00D0FD9DF8090002212875284622F074FE8A
:103D1C00708896F8312096F8301096F83330A880D9
:103D2C00287DEA71FF2202FA00F06874606800785E
:103D3C00A9742874302013FB010080B222F07AFAA7
:103D4C000028A8615DD004461A20B11C2060708C3C
:103D5C00A080A01D23F0ACFBF27F04F13000B17FFA
:103D6C0096F82830C4F81CB084F81980A062307C16
:103D7C00E273744A217563750121A075928C2282BD
:103D8C00F28EA285F28C6282B6F81100A4F81700AC
:103D9C009AF8000085F8089018F0DCFB55E725F040
:103DAC00E6F9044625F0E1F960434FF47A71B0FB73
:103DBC00F1F065492880634809780079484364210B
:103DCC0048436249097800FB0100688000E04F46D7
:103DDC00E87C297D6A7C01440139B94218BFFF2A6D
:103DEC000CD186F83300708806F11C0186F834205B
:103DFC0015F0BAFE304623F05CF903E7C845F9D15B
:103E0C00EFE7284622F008FEF4E7019880F4004022
:103E1C00BDE8FE8F92B282424BD049480121007816
:103E2C0025F036F945E0A879022806D1287CFF2830
:103E3C0037D0A86923F03DF933E025F098F9044612
:103E4C0025F093F960434FF47A71B0FBF1F03F49E0
:103E5C00288095F83800097888421BD295F83620CE
:103E6C00FF2A06D195F83720013085F8380085F8FF
:103E7C00362095F8351095F8394082F0FF03002074
:103E8C000126C7B2A7421DD206FA07F71F4214D16A
:103E9C000130F6E7EA8BA87E95F82A10E9231EF08C
:103EAC0065F8284622F0B8FD25480121007818F065
:103EBC0051FB88F00100BDE8FE8FFBB201441A43B0
:103ECC0085F83620AB8F95F83440C8B204FB10331C
:103EDC009EB2A64203D2FF2285F8362002E0FF2ACA
:103EEC0008D12346184A174E127836797243642645
:103EFC00724302E095F83A2023466A802A8D0E061A
:103F0C0006D022F0200244432A852A6C224404E085
:103F1C0042F020012A6C2985297A85F82E10E9793E
:103F2C006A6285F82D10D9B269840549496811B1C6
:103F3C0088470028B8D105F1100004F061FBB3E705
:103F4C00C0280020485800205C2A0020622A00204B
:103F5C003445002070B586B00C46080403D46004C8
:103F6C0033D400203EE0C648007818F03DFFB8B3CB
:103F7C0005460078A0F1D00106292BD9A0F131011A
:103F8C000629C0F08A801A2844D0FD2857D0FE2874
:103F9C006FD1162022F04EF9002800F07E800646E4
:103FAC000230142125F018F8932030802A79687893
:103FBC00A978EB88012A33813071317418BF022241
:103FCC00B271E978A87831754DE01FF015FB84F4D7
:103FDC00804007E00120884010F0750F04D05CE0B1
:103FEC0084F4004006B070BD01294BD1A54E687811
:103FFC00B178814251D006F8020FA34B4FF00070FC
:10400C000021324620F0DAFC16F8010C9F4981F8A9
:10401C00680042E0302022F00DF900283DD030211C
:10402C00064624F0D9FF9220A91D3070A87B0328E6
:10403C00307169D1B01D082224F0B8FA66E00A206C
:10404C0022F0F8F848B306460020C6F80600C6F879
:10405C00020091203080A8786978EA78707131710B
:10406C00B271A988318123F075FD002840F084805D
:10407C008AE02846FBF7DCFF78B1A878294619F0CE
:10408C00DBFBADE7E889A0F50041062913D8DFE892
:10409C0001F0087F8A0498B0BB00284623F009F889
:1040AC009EE7284618F0B6FA0028F6D06988824BAD
:1040BC0006460120B2E048F23601884200F0B58095
:1040CC0048F22001884200F0B88048F22101884271
:1040DC0000F0BB8048F22201884200F0BE8048F21A
:1040EC003401884200F0C1801328D6D100206E46DE
:1040FC000290CDE900002846314623F085F9698805
:10410C006E4B4FF080705AE00888F080D5F80200B2
:10411C00C6F81200E88AA6F81B00E87BB073288A60
:10412C003082688AF082287D3076687D002818BF3E
:10413C0001207076687E002818BF0120B076287E9A
:10414C007077E869306295F8200086F82400A88D15
:10415C00F08495F82E0086F82800A88C708525F040
:10416C002EF80028F06298D0AA8CA96A24F01EFAC6
:10417C00287D23F0EFFC20B10079314619F05CFB6F
:10418C008BE7F06A25F019F8304622F092FF84E7AD
:10419C00284618F03FFA00283FF47FAF6988454B5A
:1041AC00064602203AE06E461221304624F014FFF7
:1041BC002846314615F016F969883D4B04203246E5
:1041CC005AE06E461821304624F006FF2846314648
:1041DC0023F054FC6988354B1020324620F0EEFB5E
:1041EC00039818B124F0E9FF002003900598C8B992
:1041FC0053E7284621F0E7F900283FF44EAF6988D1
:10420C00294B0646202009E0284621F0DCF900283D
:10421C003FF443AF6988234B06464020324620F0DA
:10422C00CDFB304624F0C9FF37E7A8696988184BE5
:10423C0024F094FD4FF480001EE0A8696988174BA8
:10424C0024F08CFD4FF4804016E0A8696988144B6B
:10425C0024F084FD4FF400500EE0A86969880E4BE1
:10426C0024F07CFD4FF4004006E0A8696988094BF6
:10427C0024F074FD4FF4801020F0A0FB0DE700BF7C
:10428C009D4D0020082900207B6902004858002021
:10429C00A157020077570200CB5702004D5702007E
:1042AC00235702007FD5010025D50100B56B010015
:1042BC00513A0100E1C9010041CA010079FE010037
:1042CC007FB50138072800F20F810C46DFE800F0BB
:1042DC000428465E7A8C9AB3D148007801380128BC
:1042EC0000F20281002C00F0448100200321002404
:1042FC001EF00CF9C54DC64E042004213222287044
:10430C00307824F0C5FE0820002107F0BDFC307881
:10431C006C704FF4805104B0BDE8704019F0CEBF02
:10432C000020002524F0F2F9BA4801210170042084
:10433C008DF80D0024B1B448C586062022F09CFCF3
:10434C00B248042132220570B148007824F0A0FE56
:10435C00AD4890F8371001F0FE01C3E0B04800788A
:10436C000138012800F2C080A948042132220078CB
:10437C0024F08EFE002C00F01681A34CA3480121E2
:10438C000170E069E8B31EF07BFDFAE701208DF8BF
:10439C000D0054B19C480021A04A80F836109E486C
:1043AC0024F066FB062022F067FC9848002132229C
:1043BC000170974824F0E3FD934890F8371001F012
:1043CC00FD018FE002208DF80D008F48002C54D099
:1043DC000021924A80F836108F4824F049FB0020C7
:1043EC0003211EF093F84BE0874C03208DF80D0051
:1043FC0094F8360008B90120A0712078002800F04C
:10440C0086807FBD0025002C8DF80D5045D00820EE
:10441C00002107F039FC042022F02EFC0FF0B8FF2D
:10442C007A480D21C8220570774880F836107848F4
:10443C0024F0A5FD48E00520002C8DF80D0049D096
:10444C0072480022C178C270017042F2080000214B
:10445C0007F01AFC6C490D2091F837300A7981F875
:10446C00360003F0DF03002A81F8373008BF042040
:10447C0022F002FC1BF018FF36E0082180F8361001
:10448C006248002132220170614824F078FD5E48B8
:10449C0090F8371001F0FB0124E05B4C94F83A00E3
:1044AC0078B194F83700002140F0200084F83700F0
:1044BC0005208DF80D00082007F0E6FB0A2022F0FD
:1044CC00DBFB022084F836004F4890F8371001F0DF
:1044DC00EF0107E04C48022180F8361090F83710B5
:1044EC0041F0200180F837104748016A00293FF459
:1044FC0088AF90F83600002203238DF80C00444856
:10450C00007803A900910A211DF0F3FA7FBD206900
:10451C0024F0F4F800287FF474AF3D4D4FF4804143
:10452C0028781DF08DFC00287FF46BAF002604F179
:10453C001000C4E9056621F0E5FF28784FF48041AE
:10454C0019F0BCFEA079012806D194F836000B288E
:10455C0004BF002084F836002C48A6710178062987
:10456C0046D10021322201702878042124F090FDDC
:10457C0043E0254C0720264D4FF4805184F836003B
:10458C0001208DF80D00287819F098FE00200026E7
:10459C0021F04CFB2878022141F2883284F83760F4
:1045AC0024F076FDA0E7184C022000218DF80B10AA
:1045BC0084F836001548017094F837000DF10B01A2
:1045CC0000F0FD0084F8370001208DF80D0052201A
:1045DC001CF0EAFA23F0ACFD20F006FC002022F0DF
:1045EC004BFBE06900283FF47FAF1EF049FCF8E775
:1045FC00C178062904BF0021C17094F8370000F07F
:10460C00F70084F837006FE76C240020F86900206D
:10461C00966A00205B2A0020485800202C2A002093
:10462C006B2A00202DE9F04F85B0DFF8AC8298F8AA
:10463C000000012822D1DFF8A4B2D8F810609BF852
:10464C002070DBF81C501B2F21D1A54824F017FD3E
:10465C00B0B1A44824F013FDA0B1A34824F00FFD81
:10466C0090B1A24824F00BFD80B1A148052121F0A6
:10467C00EBFF002840F01B811B2708E0012522E1FD
:10468C00FA2704E0FB2702E0FC2700E0FD2706EBFD
:10469C00460005EB8009A7F14100C0B24E461A282E
:1046AC0038BF203716F8140F3446032814F801AF1E
:1046BC001ED0022840F0AC808E4D24F072FB23F00B
:1046CC00A1FC4FF0FF3001903078022840F0A08020
:1046DC00207820B3F8B21B2837D00D2848D1D9F850
:1046EC00183000202070CBB302A901AAFF2034E0BF
:1046FC00804D24F056FB23F085FC3078032840F0E5
:10470C008480207890B1FDB21B2D05D0FD2D51D0A9
:10471C00FC2D55D07F2D5BD10020207075E0F8B2B8
:10472C000D2875D10120FE27207021E0F8B20D284C
:10473C006BD101202070D9F818000368002B5CD0D5
:10474C00C08802A90022984757E0D9F818300020F9
:10475C0020701BB102A901AAF920984700208BF800
:10476C000000002009F040FD2078002800F09F8018
:10477C00D9F818301BB102A9F8B201AA9847012048
:10478C0009F032FDBDF806004FF6FF7290420DD0D5
:10479C00BDF80410914209D0ABF804000120ABF82D
:1047AC0002108BF800001DF01FFA80E000208BF83F
:1047BC0000007CE023F0D2FE013991FBF2F304E01F
:1047CC0023F0CCFE0131B1FBF2F303FB121101809B
:1047DC00D9F8180003684BB16FF00C01C08851FA7E
:1047EC0087F1B1FA81F14A0902A99847B5F10D0098
:1047FC0018BF01200D2D207007D009F110000168A1
:10480C00049821F0EFFA01204FE02078824515D171
:10481C006FF0FB00F9B250FA87F002281AD30D2979
:10482C0023D01B290AD07F2941D1DBF81C00C16899
:10483C0069B1D8F81400CBF81C1033E0BAF1000FB2
:10484C0001D0207880B3DBF81800CBF81C00007A7C
:10485C00013827E0DBF81C00007A012827D0FD295D
:10486C0016D0FC2920D1012114E0D8F81000DBF877
:10487C001C1000EB400201EB82010A7D012A26D0BC
:10488C0092B98969CBF81C100021C8E904100BE01F
:10489C004FF0FF31D8F8102001441144B1FBF0F275
:1048AC0002FB1010C8F81000002009F09DFC002538
:1048BC00D8F80800052200234BF8205F59468BF8E6
:1048CC00045021F0DDFF284605B0BDE8F08F896962
:1048DC000029E9D08847E7E75C2500205820002014
:1048EC00B8B70200BCB70200A8B70200B0B702000C
:1048FC0065B70200F84B00202DE9FE4F074608680B
:10490C000024B0B1D7E9018A0E4624F05DF8814647
:10491C00D8F8E800082888BF0124B068204202D1EA
:10492C007068204208D003203074484624F086FB7F
:10493C0000242046BDE8FE8FD8F8C01069B198F865
:10494C00F8100029EFD006213174D8F8C410C8F83B
:10495C00C4604E6198F8FC100DE000210522C8E9F6
:10496C003066C8E93411C8E9361198F8FC100029F2
:10497C0008BF0122327400220129726109D1022080
:10498C004FF4E02188F8FC0098F8FB001FF086FC3F
:10499C00706889490138884205D804201FF03EFD13
:1049AC0006201FF03BFD02201FF038FD98F8F800A0
:1049BC0040B9DAF83C003168814203D298F8FC0027
:1049CC0000286CD0D8E9361009B118B900E028B32A
:1049DC0024F0D9FADAF80000416941F00101416193
:1049EC00484624F02BFB98F8F80008B10124A0E706
:1049FC0008F16C05D8F8EC10284624F0FFF90028D3
:104A0C00F4D0D8F8C00003210174384612F084FAAF
:104A1C0028460021002424F0F1F98AE79AF80400D2
:104A2C0024F0B1FB654CDAF810100222206991FADF
:104A3C00A1F1B1FA81F14368D8F8CC004068006864
:104A4C0098472069DAF8141002224368D8F8CC0091
:104A5C0091FAA1F1B1FA81F14068006898479AF88F
:104A6C00040021F0F9FF9AF8040024F08EFB24F0E6
:104A7C008AFA0020C8F8E000D8F8C0000068B0F549
:104A8C00806F01D924F07FFA98F8FE000028A1D19C
:104A9C00DAF80000416841F0020141609AE798F8A9
:104AAC00F90020B1D8F8EC0001307FF48BAF484608
:104ABC0024F0C4FAB2683AB1D8F8E8000221092807
:104ACC0038BF0121009103E008F1F40200200090AE
:104ADC00746834B1D8F8E8000227092838BF0127D8
:104AEC0002E008F1F6040027DAF80000334D4168C3
:104AFC0041F002014160D6F800B0D946BBF1000F7D
:104B0C0040D0D8F8E800019209284FF0010011D2EA
:104B1C002A68B9F1000F1FD0C0071DD02178DAF830
:104B2C0000009268904700281EBF3C44A9F101097F
:104B3C000120EDE72A68B9F1000F16D0C00714D098
:104B4C002188DAF800009268904700281EBF3C4488
:104B5C00A9F101090120EDE7DAF80000D26802A9F9
:104B6C009047DDE90120107007E0DAF80000D26808
:104B7C0002A99047DDE9012010800098ABF1010BF0
:104B8C000244BBE7D8F8F000DAF80010CA6802401B
:104B9C00102802D1002AF9D101E0002AF6D0706861
:104BAC0021F076FDD8F8C0100020C8F8C400C8F871
:104BBC00C00008741AE700BFFEFFFF0FC40100100D
:104BCC002DE9F04F8BB00746807E22F0B5F890B1FE
:104BDC00FE69307878B18000013024F0F0FA40B1F1
:104BEC00044623F07BFD1BF083FB48B1204624F0E8
:104BFC00E4FA102600E0022630460BB0BDE8F08F38
:104C0C0000204FF000094FF0000B05940697079019
:104C1C00002004903078834580F0858006EB090AEB
:104C2C00B046BD89BC7EBAF80260204629463246A1
:104C3C001DF0D8F9074620462946324608AB1CF031
:104C4C0096FFFF2F18BF002812D18720079BDDE9A4
:104C5C0005274646D9B2013302EB81010793487010
:104C6C009AF801008870BAF80200A1F8030004E079
:104C7C009AF8010030B1069F464609F10E090BF176
:104C8C00010BC7E79AF804009DF82610884205D15D
:104C9C009DF82710490703D48C20D7E78D20D5E742
:104CAC00754BBAF805204FF6FF74BAF80710464654
:104CBC001B68A24208BF00291DD0162417FB043321
:104CCC001981DA8021F01AF948B36B49002208687F
:104CDC0017FB0400C0F80E200868DAF80B5017FB1D
:104CEC00040000F10E049AF8040023F023F80246A5
:104CFC002046294611E01622002117FB0230C0F88D
:104D0C000E10D0F80A10C0F806105B48006817FBAC
:104D1C000201042201F10E00123123F047FC069F20
:104D2C0001200490A9E70498012840F08580514C9B
:104D3C00514E16252078326800FB05F1562023F0E1
:104D4C0081FF30B92078326800FB05F1562023F042
:104D5C007FFF4A488021007819F0B0FA484890F853
:104D6C0000904FEA890024F02AFA002864D009EB5D
:104D7C008901444F8046013000228900914205D0C0
:104D8C00BB58143240F8013C0430F7E73C4890F82B
:104D9C0000B0BBF1000F36D04FF0000A0120002507
:104DAC00E9B259452FD200062AD0386958B1D0E95A
:104DBC000041396124F001FA387B01383873204600
:104DCC0024F0FBF9F1E7DFF8B8C09CF800000138DB
:104DDC00C1B28CF80000890051FA80F107EB810216
:104DEC0057F821105368D2E90346C7E9001311891B
:104DFC00C7E90346C2F810A082F80CA0398100E084
:104E0C0000200135CCE705F081FD0024A1450FD031
:104E1C0008EB8400418840781EF0DCFDFF2805D0AB
:104E2C0018F8241000EB800007F820100134EDE78F
:104E3C00404624F0C2F9069F059C07982070000696
:104E4C0004BF0120208000260123B97ABA89B87EDC
:104E5C00CDE900332346CDE9021607F10E0112F01D
:104E6C000FFD204624F0A9F921F0A6FF1DF0D0FF7C
:104E7C00C2E600BF986A0020FC690020966A0020F8
:104E8C009A6A0020005A002092B0DFF87C92D9F880
:104E9C00000010B1002180F8451048301FF09EFC36
:104EAC0023F092FD804607200FF03CFD16F0C0FA6F
:104EBC0010B1964823F0FCFE18F042FD01AD2846D7
:104ECC0023F0DCFB0427002029468DF8047023F026
:104EDC00DDFB8F4C206023F045F80AAD284623F00B
:104EEC009DFA002029468DF8287023F09FFA894EF0
:104EFC00306023F041F806AD284623F09FFA0020DD
:104F0C0029468DF8187023F0A1FA3168824D28607B
:104F1C0019B9824823F0CCFE286810B9804823F0D8
:104F2C00C7FE206810B97F4823F0C2FE1CF024FB9A
:104F3C00D9F800004FF0FF3738B1CDE9107710A940
:104F4C00082222F0C7F901281BD1CDE910770820DF
:104F5C0024F035F9002846D005460024052C04D849
:104F6C0023F03DFF28530234F8E74FF63000294672
:104F7C000822E8806C4823F019FB284624F01DF920
:104F8C0009E0D9F80010CDE910770029DFD0664888
:104F9C00082223F00BFB10AA0120082123F052FE5B
:104FAC00092800D0D8B920F074FC800712D4CDE9C0
:104FBC001077CDE90E770EAB01200021082223F0EB
:104FCC001BF960B90EA810A9082222F083F9002859
:104FDC0000F09480544A0120082123F039FE5249F4
:104FEC00E2201BF0E1FD15F0BDFA1C2024F0E7F8DF
:104FFC004E4E3060E8B34E4F4E4C07F10C0523F08B
:10500C00BAFF4D498968D1F84C1388473068056060
:10501C0007F1100523F0AFFF1EF082F830684560F1
:10502C0007F1140523F0A7FF1AF09AF83068856091
:10503C0007F1180523F09FFF1EF0F4F93068C560E6
:10504C0007F11C0523F097FF1DF092FD30680561F8
:10505C0007F1200523F08FFF1EF0A2FC306845619C
:10506C0007F1240523F087FF387012F0ABFA306893
:10507C00856118F075FE23F00FFC404623F0DEFF2F
:10508C0015F014FD23F0C9FE01201CF095FA17F061
:10509C00EDFF274D4FF48041287823F001FDDFF818
:1050AC009C904FF0000868684FF0FF310CF0A0F8AE
:1050BC003068002750F82710096821B9791C062F91
:1050CC000F46F7D3EFE723F085FE316851F8271030
:1050DC000C68C1F8008023F0E4FF59F82720002069
:1050EC0021469047044623F075FE316851F827108D
:1050FC000A6822430A6023F0D4FFD4E70A480EA9B9
:10510C00082223F053FA6AE7EC2900209CAD020038
:10511C00E4690020E8690020EC6900202CB1020051
:10512C00C4B10200EFB202009B690020586A002053
:10513C0020240020393602000C0100202CAE020085
:10514C002DE9F04F8FB00C46080413D4A0042BD4D7
:10515C00E00735D1A00642D4A00700F1FD80A005E0
:10516C0000F11581200700F12681600500F12681F0
:10517C0000201DE19648007817F036FE88B10178C2
:10518C00944A05460020302808D0135C08308B4226
:10519C00F9D1104450F8041C28468847284621F0C1
:1051AC0088FF84F4004003E11BF07AF928B105462E
:1051BC00FEF71EFB284621F07CFF84F40050F7E03C
:1051CC00854890F82C100F2906D190F8260002285B
:1051DC0002D300201FF0F2F884F00100E8E07C4FCD
:1051EC00202138781CF02CFEDFF8F0814FF00109FB
:1051FC00D8F80010084317D023F0B9FF054623F068
:10520C00B4FF68434FF47A71B0FBF1F0D8F800109A
:10521C00401A4FEA500938BF6FF0004900250029A9
:10522C0064D0B9F1000F61D000200421002220F0DD
:10523C0089FD06464FF0060A4FF0FF0B4FF6FF783C
:10524C0002AD002E4ED0304604210022374620F00D
:10525C0079FD06463889B0EB090038BF002038814B
:10526C000004EED1B87BD0B301280AD1788940076D
:10527C0007D4386887F80DA0B721407B1BF0ECF8F9
:10528C00DFE739682A468DF806B0ADF80480086A65
:10529C00C97F0BF029F901281BD1B87BB97A8DF89D
:1052AC0038000907788A40F08002ADF8362006D520
:1052BC0040F4C070ADF83600387B8DF83A00786950
:1052CC0010B1007BADF81800284601A9002201F0AE
:1052DC00D3FB387B87F80DA013F01AFCB1E7012043
:1052EC007873AEE7DFF8F480394F4D4620F0A1FE1D
:1052FC0000200121002220F025FD18B13878202152
:10530C0017F028F9002004210022002620F01AFDB5
:10531C00C0B306890421002220F014FD28B1B1B2DB
:10532C000689B14238BF0E46F4E7A8B2B1B2814249
:10533C0023D9D6FA55F0202180B24200387823F0D8
:10534C00A7FE23F014FF054623F00FFF68434FF42C
:10535C007A71B0FBF1F615E021480078E0B102ADAE
:10536C00284623F0F4FD23F041FB1E490B781E491F
:10537C000A78294618F034FA18E03878202117F00A
:10538C00E9F80026C8F8006084F0200010E012F064
:10539C00B7FF84F400700BE00F48418B012023F021
:1053AC0004FF0B480121007818F088FF84F00200FC
:1053BC000FB0BDE8F08F84F00800F9E714F054FE4C
:1053CC0005480121808C23F0E6FE84F48060EFE731
:1053DC00916A002054AB020048580020D4290020C8
:1053EC00402A00206C2A00206E2A00202DE9F04F64
:1053FC0089B0A04E0546A04F30780328387040F095
:10540C00AC8000203070387002AC204623F08EFE49
:10541C002046002122F010F9984CB8602E2120462D
:10542C0023F0DAFD4FF0FF30A0822061E0601FF026
:10543C0007FD002029461AF0F3FD07F11001F86072
:10544C0023F00EFED7E905128D4DB1FBF2F0C0B280
:10545C00022828BF0220B2F5005F207028707AD194
:10546C00B1EB403F77D3F968002974D04FF6FF7148
:10547C0000274FF088586FF0030B61808149616001
:10548C0087426DD2FEB2002108AA0423304623F0D5
:10549C0055F807EB470004EB800A0898D14600F456
:1054AC007C0129F8160FB1F5402F04D000F07F4194
:1054BC00B1F1164F3ED1C0F301418AF819106FF0CB
:1054CC00FD0151FA80F21021022A31D3C2B27E2A98
:1054DC002ED003A81DF034FA304600214FF088522C
:1054EC004FF400534FF4005523F028F81BFA85F5C0
:1054FC00A8B250F808104A1C01D10328F6D8012292
:10550C000126D3B2042B06D8CBB2FF2B18BF1646FC
:10551C000132090AF5E740F808105C480399006865
:10552C0042685B48904755FA86F199F80000544D53
:10553C00AAF81C10C0B2702807D0782803D0FE2817
:10554C0005D07C2804D1E77002E0277100E0A77039
:10555C002878013794E70120307009B0BDE8F08F4E
:10556C00E178FF2903D0DFF81081012529E02179AA
:10557C00FF2904D0DFF80081E170022521E0A17839
:10558C00DFF8F480FF290ED00131B1FBF0F202FB01
:10559C00101000EB400104EB8101898B09B1E07024
:1055AC00EBE7FF20A07000250020E57010F09AFEBC
:1055BC0098F8001008437E2188F8000000201EF0A7
:1055CC0001F8A078FF2813D12D48E178007801313B
:1055DC00B1FBF0F202FB1010A07010F083FE98F8F3
:1055EC0000100843FE2188F80000A0781DF0EAFFA7
:1055FC002548E278022D057002EB4200627004EB44
:10560C008000818BE18028D0012D2BD103AD0027A8
:10561C0088B2182826D30739D0B22A4689B213F09B
:10562C00F7FB9DF81700400717D5E088BDF81A1056
:10563C00E6782A4603230097401A073881B2304691
:10564C0007F054FCE27820B9BDF8181009B1964265
:10565C000BD0964206D0E188DAE701206071002079
:10566C0000F006FC98F8000077E79DF81C0019F094
:10567C00A7FEF7E7352A00206026002044640020AE
:10568C00906A0020FF0000209D6A0020D8010010C5
:10569C00004003402DE9F04F8DB0044600209A469F
:1056AC0016460F46CDE90B00CDE909008A488568FE
:1056BC00804613F0C5FF1C2803D013F0C1FF1B2834
:1056CC001BD1308840F60201884218BFB0F5C15F8B
:1056DC0003D1F07B022810D93EE043F60701884243
:1056EC000BD196F82400032807D330697B4940F08E
:1056FC00806020F0604088422ED100206FB366B3EA
:10570C00387825FA00F0C00726D03046002123F067
:10571C0050FD7348C4E90176006880B109A8009077
:10572C000CA90BAA0AAB304609F0DCF90B980B213B
:10573C004FF6FF72502321F0CFF9FF280CD023F045
:10574C0043F9684F06467878012802D840B1012009
:10575C0070E0304623F072FC00200DB0BDE8F08FF5
:10576C0009F034F960480DF10409016841F00201B7
:10577C0001605E48C8F80000484622F077FFDFF869
:10578C0070B15D494A469BF801009BF800500390AC
:10579C00584828301DF0DBFD584859494A461DF041
:1057AC00D6FD484622F092FEDFF85881564A192160
:1057BC004B46029540461CF071FA544A08F11C0005
:1057CC001A214B461CF06AFA5148524923F0EFFB60
:1057DC005148524923F0EBFB5148006810F4402F1C
:1057EC0006D0504A07F128000421002320F0A0FD28
:1057FC009BF8020010B10D200FF094F808F1400056
:10580C0022F0E9FA08F1380022F0E5FA46490020C6
:10581C0007223876B8843862386181F86020052117
:10582C00C7E902104149F96138700420002121F0C8
:10583C00D3F978782F4941F8204001307870304600
:10584C0023F0FCFBBAF1000F02D0DAF8000008E0FC
:10585C000DF1040A36492022504623F0D9FC4FF0B2
:10586C00FF30DAF80420BAF81010DAE90635002A0D
:10587C00B2FA82F608BF40F6C41220600120760905
:10588C006183256360762B4826764FF4FA76626145
:10589C00C4E90362C4E90700C4E90903DAF80C009F
:1058AC0000B12062DAF8140000B16062DAF8080086
:1058BC0000B1E06104F13800C82123F08DFB04F144
:1058CC005000002121F0C8F91B4904F1B80023F065
:1058DC006EFB204641E700BFCC2108400F000005BD
:1058EC00E8280020F01F002000200940110000E0F3
:1058FC00CCB50200F82100206D730200006200207C
:10590C00613701001C23002031BF0100A59E01005E
:10591C00F860002061630200B4600020197302007B
:10592C00B44F005039EB010098590020DDF900000C
:10593C007CAD020027610100CD9002002DE9F04FF3
:10594C0085B0884608040FD45FEA88704BD4A14810
:10595C000078012803D15FEA487000F180805FEA8B
:10596C00087053D4002026E1DFF850A29AF800000A
:10597C0017F03AFA002800F01C810546807FD0B958
:10598C00688C132817D1DFF838926E880021D9F86B
:10599C0018000F1D002908BF09F1180758B101881C
:1059AC004468B14204D13C6023F007FC2046F5E783
:1059BC0001462046EDE7A87A05F1020B022840F0DB
:1059CC00DE80DFF8FC9195F83170BBF8006009F1CE
:1059DC001800006868B10188B14202D18178B942DF
:1059EC0061D00430F5E776480121017088F002009F
:1059FC00E1E0D9F81800002800F087800122044665
:105A0C004068114601320028F9D180E06F48DFF878
:105A1C00B091807BD9F81860000748D423F0A7FB1D
:105A2C00044623F0A2FB6A4A60434FF47A71B0FB40
:105A3C00F1F0D9F814101288411A914262D3B1FBDB
:105A4C00F2FB0BFB02F2511A08445E49C9F8140030
:105A5C001FFA8BF00978884288BF8B4629E05F4992
:105A6C005D4800224FF6FE7300240978023079B1AC
:105A7C0030F8025C9D4208D04588013D45802D04DC
:105A8C0006BF027020F8023C012401390630EEE713
:105A9C0034B14A4804214FF4FA72007823F0F8FA32
:105AAC0088F0040087E047490978C1707EE04FF028
:105ABC00010B00205FFA8BF44FF0000A071D002841
:105ACC0008BF09F1180796B1F078C0FA5BF1A04253
