:10000000003C01201D8C01006198010061980100F5
:1000100061980100619801006198010061980100F8
:1000200061980100619801006198010061980100E8
:0C0030006198010061980100ADBA000069
:04003C0000000000C0
:100040008EB00AF0D1F9DFF8689B09F1020009F1DE
:10005000040115F0BFF909F114001BF07FFADFF875
:10006000546BDFF8541BC9F80800002409F11C0088
:1000700041F2883200230490CDE9004615F0B6FC29
:10008000DFF8380BDFF8381BDFF838BB0022152308
:1000900000901020D847DFF8301B102000220223E8
:1000A0004FF00208D8470DF0E7FEDFF8201B1020C4
:1000B00001220125D847DFF8181B10204FF0FF322E
:1000C000D84719F0F1FA4FF0FF3015F0D1FE0320B8
:1000D000DFF8007B8DF818508DF81C8001218DF819
:1000E0001F0004208DF81E0005208DF82400F24822
:1000F000089006AA0020B84707AA01200121B847A6
:100100000DF11F0202200121B8470DF11E0203204C
:100110000121B84708AA04200521B84706F10C00C0
:100120001AF032FFDFF8B01A06F118021020D84793
:1001300099F80210DFF8A4AA5020D047DFF8A01ADF
:1001400002461020D84799F802105020D047DFF817
:10015000941A02461020D847DFF88C1A1020FB2290
:1001600040F64803D847DFF8841A1020D847DFF854
:10017000800A12F047FA4FF6FD7016F0B9FB99F8B5
:1001800002105020D0470346DFF8680ADFF8681AEB
:100190000422CDE900801020D847DFF8600AC02192
:1001A0001BF0EAFBDFF8540A4FF6FF71C02C02D0B7
:1001B00001531834FAE74FF0FF30002115F0B8FD75
:1001C000DFF8F059DFF8384A00214FF0FF32A8601D
:1001D000DFF8300A2060204619F020FEA868DFF81A
:1001E000283A2146052218F085FEDFF820AAA868E3
:1001F000DFF81C3A00229AF800101AF0C8FD08A88F
:10020000DFF8845A02300590D9F8040000214FF03D
:1002100040424FF0FF330DF097FB0028F4D08346A7
:1002200000200DF11F01069007A806AA18F083FA16
:10023000002840F02D83BDF81C00102840F02083DA
:1002400099F802009DF81F10814240F01983DDF8F3
:1002500018804FF6FF70B8F80010814200F012834A
:10026000080AC9B2912900F0D380B02900F0FF80BC
:10027000D02940F0078398F80210072900F21E8168
:10028000DFE811F008005B015B015B015B016501C8
:10029000B5011B02002840F0F3820020ADF82300D6
:1002A00018F8060F8DF82000B8F8010098F805102E
:1002B000ADF82100B8F803008DF827100821ADF83B
:1002C0002500002008AA0DF06BFDDFF8E8089AF879
:1002D0000010DFF8A0390022013180681BF08BFB91
:1002E00009F10100DFF89019DFF89029DFF8903963
:1002F00000901BF086FB000640F057840B2099F815
:100300000120294600230090DFF8780901901BF0B6
:1003100078FB000640F049841C2099F8012029460A
:1003200001230090DFF8640901901BF06AFB0006CE
:1003300040F03B8499F80120DFF8541910209223F3
:1003400011F0AEFF002099F80120DFF81C190023FE
:1003500000901BF056FB000640F02784DFF81819C8
:10036000DFF81829DFF82C391020CDF8009011F0B3
:1003700097FF000640F019840B2099F800202946C9
:1003800000230090DFF8100901901BF03AFB0006F3
:1003900040F00B8499F80020DFF8F4181020922325
:1003A00011F07EFF002099F80020DFF8BC18002330
:1003B00000901BF026FB000640F0F783DFF8F4679F
:1003C0009AF800704046B46817F02CF8DFF8CC18A3
:1003D000DFF8CC380022CDE90010B81DC1B22046AC
:1003E0001AF0D5FC15F0D8FA701C012140F6B8328D
:1003F0000023CDE90010DFF8C01709F1400015F027
:10040000F5FADFF8FC070221002219F007FD37E2B8
:100410003E2864D00F2875D0102800F089800E285F
:1004200040F02E82D8F80810B8F8042042F23003C9
:1004300008789A4200F05C8141F205439A4240F00C
:100440001F82002840F01C82B1F8010091F903805E
:1004500019F024FF0828C0F0A081DFF858079AF8A7
:100460000010DFF8DC370022013180685DE398F886
:1004700004007F280AD07E2816D1DFF838079AF8C2
:10048000001098F80820DFF8C03707E0DFF82407ED
:100490009AF80010B8F80820DFF8A8370131806812
:1004A000009200221BF0A7FA98F8041008F1080047
:1004B0001BF032FFE4E100BF0102030411293CD12B
:1004C000B8F80400ADF8200098F80E008DF82A0066
:1004D000B8F80A00002800F0428100204BE198F8AB
:1004E00002000C2840F0CC81DFF8C80698F8032001
:1004F0009AF800108068002A00F044810131DFF88A
:10050000183778E1B8F8040042F23201884240F02E
:10051000B78198F80210DFF89C061A2940F0128182
:100520009AF800108068DFF80C370022013111E1E1
:10053000082000210BF008FDA2E1DFF878069AF808
:100540000020511C02328068C9B2D2B2B2E0DFF89A
:100550000C17102011F0A4FEC1B20446DFF85406B7
:100560009AF80020DFF8FC360091911C8068002288
:100570001BF041FA98F80100002840F06581B8F8B6
:100580000A60002000F11801D82900F04281DFF84C
:100590006C26105A4FF6FF7290420846F2D1DFF8EF
:1005A0005C064718032027F8186C1BF07FFA002818
:1005B00047F8140C00F02A810821017057F8140C38
:1005C000A0F8016024201BF071FA57F8141C0028D1
:1005D00047F8100C00F0178101220023CDE900211B
:1005E000DFF8D41541F2707215F000FA0EE1DFF871
:1005F0006C16102011F054FE9AF80010DFF8B46564
:100600000446DFF85C3600220131B0681BF0F3F9D4
:100610009AF80010B068DFF84C36E7B20022009775
:1006200002311BF0E8F9B8F80480404619F036FEB4
:10063000082827D0DFF8C415044600EB400001EB82
:10064000C0008668AEB130461BF09AFA10B1304651
:100650001BF09AFA30461BF0BBFA30461BF020FA2A
:10066000DFF8981504EB440001EBC00040681BF074
:1006700017FA404619F0CCF8404616F093FE404673
:1006800016F036F947B904981BF07EFADFF87005CA
:100690000221012219F0C2FBDFF8CC651AF042FDFD
:1006A0001AF006FEDFF80C059AF80010002203315C
:1006B0008068C9B21BF0EEF8E2E0B8F80420DFF879
:1006C0008C15102008AB11F0EBFDDFF8E80486680C
:1006D0009AF80000871C98F80300C8B1059898F8AC
:1006E000024016F09FFEDFF86835CDE9004015E0C6
:1006F000002840F0C580DFF8BC04CB7809799AF86F
:100700000020CDE90031D11D8068DFF82C350BE2E7
:10071000059816F087FEDFF83C350090F9B23046B8
:1007200000221AF034FB09F10C0019F061FC0028DA
:1007300000F0A680044600890FF014FC20461BF050
:10074000AFF99DE09AF8002000918068DFF8E0346E
:10075000511C00221BF04FF942F232004FE0002002
:10076000ADF82600D8F80600CDF82200B8F80C0045
:10077000ADF828000120DFF8E0148DF82B001020E0
:1007800008AA7BE098F80730DFF89024012B2ED0E0
:10079000022B25D1DFF8882429E05FFA88F104468E
:1007A0007F2900F0B281DFF8542404EB440002EB0F
:1007B000C0077A7C501C787407F10C008154052224
:1007C000797CB1FBF2F202EB8202891A0022797481
:1007D0000021052900F09081435601311A44F8E7C1
:1007E000032BDFF84034DFF8402408BF1A460231FB
:1007F000DFF83834009200221BF0FDF80C2041464F
:1008000010F04AFB3CE008461BF04AF9012007F8CB
:10081000040CDFF8A0039AF80070866808F1040061
:1008200016F000FE0090781CDFF840340022C1B2C0
:1008300030461AF0ACFADFF8C8030121022219F0A1
:10084000EDFA04981BF09EF914F0F80F0AD1DFF8C6
:100850006403807830B9DFF810641AF063FC1AF092
:1008600027FD0DE0DFF8084499F80020102021460C
:1008700011F016FD99F801201020214611F010FD0D
:10088000DDF81880B8F1000F02D040461BF0A4F844
:10089000DFF820835FEA4B007FF5B6ACD9F808009B
:1008A0001AF06CFF00287FF4AFACD9F808001AF0FA
:1008B00097F90028F2D0044600780138082800F2A1
:1008C000D780DFE800F0054734571A6F7B697E0058
:1008D00060680078022800F09880002840F0C88006
:1008E000002008A916F07EFD9AF800109DF820203F
:1008F000D8F80800DFF8E43392E067682E46C54D6B
:10090000787A50B19AF80010D8F80800DFF89833D8
:100910000022009503311BF06EF8FA88DFF88C1383
:1009200010200023009511F0BBFC3546A0E067685D
:100930003868102800F07B80022800F085800128AC
:1009400040F090807A689AF80010D8F80800DFF834
:1009500084337FE060680078010741D4C00640F12D
:1009600087800E201AF0CAFA002840F0818017F024
:1009700029F87DE061680878032800F27980097918
:10098000DFE800F002927EA69AF80010D8F808007E
:10099000CD4B0022033146E06068B0F801000FF053
:1009A000E1FA69E0022008A916F01CFD00285FD1D9
:1009B0000320012108AA10F0C9FE59E014F0ECFF51
:1009C00056E060684788384619F068FC08280FD35D
:1009D0009AF80010D8F80800994B0022013122E063
:1009E0000F201AF08BFA002842D118F06BFA3FE082
:1009F000824900EB400001EBC000C07DC0B3A949B3
:100A000010203A4611F04CFC32E0022008A916F002
:100A1000E9FC9AF800109DF82020D8F80800AE4BA9
:100A2000013100920022C9B21AF0B1F920E07A68CF
:100A30009AF80010D8F80800137852880431C9B227
:100A4000CDE90032A14B09E07A689AF80010D8F895
:100A500008009F4B12780431C9B2009200221AF0AC
:100A600096F93868B0F1004F02D078681BF018F89A
:100A7000606808B11BF014F820461BF011F80DE770
:100A80000029D8F8080001BF9AF800100331C9B254
:100A900000220FBF894B9AF800200091D11C1EBF85
:100AA000C9B20022844BBFE70029D8F8080001BF73
:100AB0009AF800100331C9B200220FBF814B9AF897
:100AC00000200091D11C1EBFC9B200227C4BABE7B5
:100AD0000029D8F8080001BF9AF800100331C9B204
:100AE00000220FBF734B9AF800200091D11C1EBF4B
:100AF000C9B200226E4B97E710B205213E4690FB2B
:100B0000F1F016F8131FB87491B13C4904EB44009E
:100B10009AF80020494B01EBC00090F912102548CB
:100B2000CDE90081511D806800221AF064FFA7E61C
:100B3000C0B241B211F11E0F08DB387D40F0020057
:100B40000228E2D000230222022114E0D82806D392
:100B5000387D0228D9D30023012201210BE0CE28C1
:100B600006D3387D0028D0D001230421062202E0DC
:100B7000022204210223BC461CF8150F904202D128
:100B8000B87D0128C1D8388803920A46CDF808C03C
:100B900017F0A2FBDDE902210120307010788842B5
:100BA0001CBF0020B8751170AFE71AF03DFA00BF06
:100BB000C42100206025002089790100082600203A
:100BC00031470100A1220100657501009DA30100CC
:100BD000298401004D1701003D9F01003D92010055
:100BE000D96C02102D6D02100D520210397F0110C8
:100BF000FF9A0100C8270020F1AC00003835002022
:100C000008400020F5E0010069D800007D41002087
:100C10007DDF010040E2010072E00100C2E401005A
:100C2000D1DF010060E4010092DF0100E3E0010098
:100C3000DCDD01007CDB0100BEE0010034DE0100F0
:100C4000ABDB01005EE2010020E20100F9DC0110F3
:100C500098DC010010DF0100D957011065B00100D8
:100C6000BCDF010050E20100ED74011010E2010050
:100C700065020210FCE2010099010110AD9501002E
:100C800080250020582700204DD00000D4250020CA
:100C90001DEF01109C25002063270020BFE4010008
:100CA000F0E201000D2B02106BE20100B58B010098
:100CB00053DF010007E101003DDF0100ABE001006F
:100CC0004DE1010030E20100C0E10100BADC0100A9
:100CD00010E0010085E0010072E3010067E301001C
:100CE00038B586B004468DF805104FF6FF72012026
:100CF000ADF80220090ADFF8B85AADF80000022367
:100D00008DF806108DF8043069462A7820461BF0CD
:100D1000FFFA162803D1297820461BF0F5FA07B010
:100D200030BD3EB504000D461ED0DFF8880A0068CD
:100D300022461BF0E5FAFF2815D000200090002382
:100D400001AA294620460EF09FFD60B99DF80400D7
:100D500000F06EF9C00606D59DF8040000F068F9B1
:100D600010F0040000D001203EBDFEB5164615244B
:100D70004FF6FF7290420D4615D100208DF8040009
:100D8000DFF82C7A9DF80400F97988421AD23246AD
:100D9000294600F03EF800B100249DF80400401CF4
:100DA0008DF80400EEE71BF0A7FA50B100F099FBB4
:100DB00040B99DF804003246294600F02AF8002484
:100DC00000E014242046FEBD7CB50D4604460621F5
:100DD0004C43164620346A460821204618F008FE87
:100DE000A8B900F076F890B99DF80700002E14BF5E
:100DF000054320EA0505E9B2814206D08DF8075087
:100E00006A460821204618F007FE012076BD002022
:100E100076BD2DE9FC410646344606238846154634
:100E20005C436A46082104F1200018F0E1FD002827
:100E30004CD100F04EF8002848D100F024FA04000C
:100E400002D100F018FA41E0397AE03622468900F2
:100E5000304618F0CDFD002834D1204600F051F87E
:100E60005FEA08000ED13A7A9206120E002120465F
:100E700019F08FFB30BB3A7A9200002120461AF01D
:100E80000FF916E0214600F029F858B9280004D0DF
:100E90002146002000F022F810B900F00CFC15E00B
:100EA000A0F800808178A9420CD085700DB900218E
:100EB0000180204600F025F8397A22468900304624
:100EC00018F0AAFD00F0F7FB012000E00020BDE8CB
:100ED000F6810622FF21684619F05BBB70B5DFF88A
:100EE000D0381D7A002200E0521CD4B2AC4206D2A7
:100EF00031F824608642F7D101EB840070BD0020F8
:100F000070BD10B50021DFF8A8280AE030F82130C4
:100F1000DB4320F8213000EB8103491C9C78E4433B
:100F20009C70137A9942F1DB10BD2DE9FE4FDFF87A
:100F300080480646207A0F4691469A4680001AF06D
:100F4000A7FA5FEA000803D100F095F90A206DE0E6
:100F50000C9D02974FF0060B37461BFB07FB029ACE
:100F600008210BF1200018F057FD8DF804003046E1
:100F700000F099F8227A00F079F99DF804000090C9
:100F80004246217A890006F1E00018F045FD009EF6
:100F900002990643206A082200EBC7001AF08AF87B
:100FA000F5B110220021284619F0F3FAC0B90299D0
:100FB000887900232A4600F001001BF099F90028E7
:100FC0001CBF9DF93C00002803D0DFF8EC1701207E
:100FD00008702A4610210BF1230018F01DFD06436E
:100FE0005FEA090205D01C210BF1210018F014FD65
:100FF00006435FEA0A0205D01C210BF1220018F01B
:101000000BFD06430D9A4AB110210BF1240018F094
:1010100003FD06430EAA00F031F90643A07D08B196
:1010200000F094FA40461AF03BFAF0B2BDE8FE8FA9
:10103000E0B5062358436A460821203018F0D8FC52
:1010400010B99DF807000EBD00200EBDDFF8600747
:10105000007808210DF0C4BA38B50025DFF85047F4
:1010600018E0206A06236B4300EBC50220330821F9
:1010700098B218F0BDFC58B1206A0622FF2100EB9F
:10108000C5001AF00DF8206A00EBC5010022CA71F4
:101090006D1CEDB2E1798D42E3DBA07D10B1BDE8BE
:1010A000314053E231BDF8B5DFF80417DFF80C37F3
:1010B000C9791E680C460A4600E02A46D5B23DB101
:1010C000551ED2B2324412F8017C8742F5D12C462B
:1010D000E4B220464D1E07E01718165C7F781754BF
:1010E0001A680244401C5670A8421A68F4DBAC42ED
:1010F00004DABDE8F840052018F08EBCF1BD70B5EB
:101100000024DFF8AC5600E0641CE879E3B28342C7
:101110000BD22B6AE6B20622FF2103EBC60019F0C0
:1011200038FA0028F0D0E0B270BDDFF894261178CC
:1011300039B1DFF8880601680C78204600F013F812
:10114000204670BD38B500200024DFF8645603E067
:10115000E0B200F008F8641CEA79E1B2914201D2F1
:101160000100F5D032BD2DE9F84F4FF0060B1BFB07
:1011700000FB8EB081460BF1200501AA082128460C
:1011800018F036FC002868D10622FF2101A819F0CA
:1011900000FA002861D100F076F85FEA000803D178
:1011A00000F069F80A205AE01C22FF2103A819F078
:1011B00077FF3A7A00F05AF80BF123060AAA1021B9
:1011C000304618F015FC60B91022FF210AA819F06A
:1011D000E0F930B99DF80A0001A900F001001BF008
:1011E00083F8082200F03EF801AA0821284618F0EA
:1011F00013FC054603AA1C210BF1210018F00CFC7E
:101200008DF8000003AA1C210BF1220018F004FC49
:10121000044603AA1021304618F0FEFB064603AA36
:1012200010210BF1240018F0F7FB824603AA00F00E
:1012300025F89DF800100D43254335434AEA05057E
:10124000397A05434246890009F1E00018F0E4FBD1
:10125000054340461AF024F900E0002528460FB067
:10126000BDE8F08FFF2101A819F01ABF9200FF21FD
:10127000404619F015BF042018F06CB904210BF199
:10128000250018F0C9BBDFF82875387A80001AF0FD
:10129000FFB82DE9F84187B0FF208DF80000DFF896
:1012A0001055E8791AF0F4F8040003D1FFF7E3FFD2
:1012B0000A2030E01022FF2103A819F0F1FEEA799C
:1012C000FF21204619F0ECFE0622FFF7CBFF03AA10
:1012D0001021022018F0A0FB064603AA10210320CB
:1012E00018F09AFB06436A460121042018F094FB8B
:1012F0000746E9792246052018F08EFB054601AA2B
:101300000621062018F088FB804600F0D4F93E4301
:101310002E4348EA060008B0BDE8F081DFF89014DB
:101320004088097818F014BBF0B5A9B006460D4600
:1013300014461AF0E1FF08B91420A6E0A422002107
:10134000684619F0ADFEADF80060DFF86464F0782F
:10135000F17B279A8DF804005208307C8DF8A000AC
:101360004B0801F0010040EA420222F0020203F0C1
:10137000010342EA4302080922F4807200F00100EE
:1013800042EA0022480922F4007200F0010042EA19
:101390004022880922F4806200F0010042EA8022A3
:1013A000890822F0040201F00101707C42EA810206
:1013B000279202280CBF012000200DF12607787427
:1013C0001AF08EFF412807DB707C00B108209DF8E1
:1013D000991008438DF89900F07CB8B10121B974D7
:1013E000202206F188010DF1390019F063FE202258
:1013F00006F1A8010DF1590019F05CFE202206F15A
:10140000C8010DF1790019F055FE00E0B874707B49
:101410008DF8050090B1DFF8AC73102207F11001D0
:101420000DF1060019F046FE9DF89900082805D137
:10143000102239460DF1160019F03CFE307B8DF874
:10144000260030B11022DFF880130DF1270019F0CB
:1014500031FE307948B1022D18BF032D03D12798F2
:1014600040F002002790012100E000219DF8990042
:101470000143B0788DF8991000B1042001438DF834
:101480009910684621461AF027FF29B0F0BD2DE9D2
:10149000FC41154615244FF6FF72904288460ED146
:1014A0000027DFF80C63F179F8B2884216D22A4699
:1014B0004146FFF789FC00B100247F1CF3E71AF0D6
:1014C0001BFF50B100F00DF840B99DF804002A460A
:1014D0004146FFF779FC002400E014242046BDE8D3
:1014E000F681002100910023417901AA01F0010158
:1014F000801D0EF0C9B970B504460D46062045435F
:10150000082B88B0164603D1300758BF223500D5C6
:1015100021351C220021FFF7A6FE01AA1C21284626
:1015200018F066FA80B99DF81E00C01F0A280BD279
:101530009DF830000090F20801AB02F0010206F0C5
:10154000010120461AF02DF808B070BD38B51AF028
:10155000BFFE0024964D0FE0286A0622FF2100EB13
:10156000C40019F016F828B9286A00EBC40188797C
:101570001AF0AAFE641CE4B2E8798442ECDB31BDC7
:10158000F0B5924D0646686885B04FF6FF7438B9DD
:10159000009502238E4A214601201AF091FE6860D0
:1015A000696819B30222FF2002920023039001937D
:1015B0000DF112072A88009704AB304606F0F6F9C1
:1015C00060B99DF810009DF8111000EB0122100089
:1015D00004D0686841893046FFF7C7FB2A886868ED
:1015E000002321461AF068FE686008B9012000E077
:1015F000002005B0F0BD3EB50C4600250146009523
:10160000002301AA20460EF03FF938B99DF80400E6
:10161000FFF70EFDC00601D401203EBD00203EBDF7
:101620002DE9F0416B4F3C6806468846154603E0BD
:101630002089B04224D02468002CF9D10C2019F064
:1016400027FF040019D0268184F80A80002020603A
:10165000E07245B10821284619F096F9606018B982
:1016600000F029F80AE06060396811B93C6004E0D4
:10167000014608680028FBD10C600CB9152018E061
:101680001AF016FE08B1002013E00120E0722A468D
:1016900041463046FFF748FE04464548C0690028E9
:1016A0001CBF4368002B03D000220021304698471E
:1016B0002046BDE8F081204619F0F2BE38B5054657
:1016C0004448046803E02089A84204D02468002C20
:1016D000F9D1012032BDE07A012807D100F05CF891
:1016E00020B13348007804210CF07AFFE17A491CDC
:1016F000E1722846C9B200F002F8002032BD38B5C8
:10170000022904462A4D02D003290DD01EE042F6DC
:10171000C921FFF7E5FA02001CBFE869002818D0CC
:101720004368B3B105210CE042F6A621FFF7D8FAD1
:1017300001001CBFE96900290BD04B684BB1024680
:101740000421204601B0BDE830401847BDE83240D2
:1017500000E031BD10B51F4A1468002101E02146A8
:1017600024686CB123898342F9D1206800290CBF19
:1017700010600860606808B119F092FEFFF79BFFE7
:10178000002010BD024604201249096819B10B89D6
:101790009342FAD1C87A70470E48006828B10068B1
:1017A00018B1C17A0029FAD17047002070470000B3
:1017B000B41C0020680F0020764100200841002062
:1017C00075410020703E0020A03E0020B84000205F
:1017D000F4E401000C41002038B584B004461AF04E
:1017E0008BFD0622417901F001018DF80E10811D5B
:1017F00002A819F05FFC0020009000239DF80E1055
:1018000001AA02A80EF040F89DF80400FFF7ABFC17
:101810000546052120461AF047FD284605B030BD93
:101820002DE9F84F012016F0C3FE012816D1DFF88C
:10183000E866307800211AF033FD040004BF002070
:1018400017F088FE00202072201D0FF067F804F0CA
:1018500055FE050003D181201AF01EFD58E301203A
:101860006871072013F0EFFFDFF8B096DFF8B026BD
:1018700099F80100401C89F80100A879A072402065
:10188000317811700DF0F0FA2860616D4A78206DA2
:10189000D10620D5816C0A681179032908D0816CA2
:1018A0000868007903280CBF0120002017F052FEC1
:1018B000206D816C0A6890F86C0002F1080701281D
:1018C0001CBF002017F046FE216D486F296800F507
:1018D000B060C8604EE0C16E0A681179032908D073
:1018E000C16E0868007903280CBF0120002017F0A2
:1018F00031FE206DC16E0A6890F8980002F1080769
:1019000001281CBF002017F025FE216DB5F87431A9
:10191000D1F8A0002968DFF80C26C86097F8266087
:10192000DFF80406032E1FD8DFE806F002061014C5
:10193000CA6802F5B06202E0CA6802F53472CA6091
:1019400005F59A7201881187038811E0C86800F5CF
:10195000355002E0C86800F6B870C86005F59A70A6
:1019600011880187138803E0C86800F5B060C8607B
:10197000A5F8743106222868C16801F59071C1602C
:10198000B91C3878C0F3801085F82E0105F59470E5
:1019900019F090FBA87919F033FD060004BF002070
:1019A00017F0D8FD94F8B90086F83A000422DFF861
:1019B0007C6507F10E0105F1240019F07BFB30680E
:1019C00095F806C000F10C03042207F10E0103EBA9
:1019D0004C1019F06FFB032207F1120105F12800EA
:1019E00019F068FB3068AB7900EB4313032207F171
:1019F000120103F1100019F05DFB05F12C08787D50
:101A000088F80200022207F1160105F1300019F0F2
:101A100051FB022207F1180105F1320019F04AFBCF
:101A2000022207F11A0105F1340019F043FBB8F85E
:101A300008006884022207F11C0105F1360019F044
:101A400039FB98F80200B8F80A10400088F8020044
:101A50000901B8F80400A8F80A104000A8F804002A
:101A600089B2B8F806004000A8F8060003046A8CA2
:101A7000521CDB0B5A438A4201D280B238B9DFF8DC
:101A8000B004007880210CF0ABFD3B2139E105F179
:101A90002E0128461AF0FCFB0520A88128461AF0E2
:101AA000F3FB052207F11E0105F1610019F002FBAD
:101AB00097F82300400988F800001AF0E1FB6882DB
:101AC00005F59A72618D401AD08005F1610197F891
:101AD000230000F01F0088F80F0028461AF0CCFB06
:101AE000616D4A78206DD1064CBF816CC16E08686B
:101AF000DFF84074002101714FF01C0AA9793868A1
:101B00001AFB01F141F6210242520021AB791AFB86
:101B100003F303445980AA791AFB02F2104441608E
:101B2000616DDFF814044A78D1060DD5DFF80C1486
:101B30008A7851060AD5DFF80824138841F20A4151
:101B40008B4208BFDFF8FC03C5F89C01D5F89C1157
:101B5000284688473A68A97902F10E031AFB01F179
:101B60005854A8793A6802F10E011AFB00F3C95CD7
:101B7000DFF8D4331A681154A97938681AFB01F1D7
:101B800001440020C87398F80C1088F80D10606D9F
:101B90004178CA061DD595F8960108B917F0DAFC08
:101BA000A97938681AFB01F1014495F89601421EA3
:101BB0000A74A87939681AFB00F0084400214174BE
:101BC0003A68A97902F112001AFB01F1002242528F
:101BD0002BE0A97938681AFB01F10144206D90F8D7
:101BE00040200A74A87939681AFB00F00844216D76
:101BF00091F841204274206D3968AB79403001F191
:101C000012021AFB03F34188D15205F5CB7100781B
:101C1000012200F0030082400A70226D92F8400019
:101C2000800814BF0120022008713968A879DFF804
:101C30001CB301F1140231681AFB00F301EB4010F0
:101C4000D050A87939681AFB00F00844C049816176
:101C5000DBF814000078C1074CBF1F200F20DBF811
:101C6000141009788A0748BF40F02000DBF81410F0
:101C700009784A0748BF40F04000DBF814100978A3
:101C80000A0748BF40F080003168AA7901EB42138F
:101C900018723068A97900EB41120B20507231683C
:101CA000AA7901EB42100421AA4A81721078012816
:101CB00006D13168A87901EB40120121D17207E009
:101CC000DBF824003168AA79407801EB4213D8721E
:101CD0003168A87901EB40121F2111763068AA798A
:101CE00000EB421100204876A8790DF0D9F9AA79C5
:101CF000316852018850AA7931685201885820B958
:101D00000721284617F038FE02E19348AA790168B6
:101D100001EB02101AF0ACFAA87931688E4B01EB96
:101D20004012196801EB00105060A979306800EB8F
:101D300041125168C8F83C10AA79520181587C4878
:101D4000C8F84410042100780CF04AFC616D4A7810
:101D50003868D10648BF02210AD4A9791AFB01F1DB
:101D600001440A7C02F00302022A14BF0421062166
:101D7000B8F8042095F806C04FF4C8738A18698A29
:101D8000AA615143B1FBF3F35B1C6B611AFB0CFCC2
:101D9000D5F800E06044DEF80CC040F6C41101FB49
:101DA00002C2D21AA2F5A8628260AA7938681AFB28
:101DB00002F283189A682B689A6000F10C03AA79E2
:101DC0001AFB02F20C309B5C03F0EF038354A879FA
:101DD0003A681AFB00F002F10C030C321B5C03F0B2
:101DE0007F031354A8793A681AFB00F002F10C0340
:101DF0000C321B5C03F0F00343F002031354AB7985
:101E000038681AFB03F31844427B02F0F00242F0F8
:101E100001024273AA7938681AFB02F20244906800
:101E20002B6818613068AB7998F802C000F1140291
:101E3000686940005B0111FB0C0000F5F660D050B2
:101E400095F8960104280DD13268A87902F114039F
:101E50004FEA401C143253F80C00AB795B0100F5DB
:101E60006160D0503068AA7900F114034FEA421C37
:101E700053F80C20C5F83421AA7900EB4210C37C3A
:101E800003F0F00343F00403C374DBF8300032685E
:101E9000AB79006802EB431CB8F806204243642388
:101EA000B2FBF3F35943A1F59661CCF81C103068EE
:101EB000A97900EB4110C27E02F0F00242F0040268
:101EC000C276A97938682A681AFB01FA00EB0A0180
:101ED000516095F8FD00010703D50E2128461AF040
:101EE000C3F91E49072008702046AA7989F8022004
:101EF00015F0EEFE1A488178880704D5AA790021EA
:101F000020461AF0ADF928681649174A41618261E6
:101F1000BDE8F14F19F04ABED50F0020780E002021
:101F2000D70F0020900F00208E0F00209C0E002065
:101F3000C70F0020980E002081010210C00C002065
:101F40009A0F00204DE50110F8400020D0DA010082
:101F5000980C0020CC0F0020A40E0020C80F0020F9
:101F6000200E002089CB0000020480802DE9F04F74
:101F7000054687B0A978DFF8DC66002710294FF006
:101F8000060A3CD8DFE811F0110061036103610328
:101F900061033C00CB0061036103C5021101FC0039
:101FA000160361039702DC0259036878002826D1E2
:101FB0001AF052F904461AF04BF9054617F088FA60
:101FC0008DF8000022461021022017F025FD2A4638
:101FD0001021032017F020FD6A460121042017F08C
:101FE0001BFD9DF80000012818BF032807D1012020
:101FF00013F058F802460621062017F00DFD24E3E1
:1020000068780028FBD195F80CB06C89009000230B
:10201000E97801AA01F00101281D0DF035FC002826
:102020004FF0010871D19DF80400FFF701F88146D7
:10203000BBF1080F08BFB846307A800019F028FAC3
:10204000050003D1042017F085FAFEE2707802281B
:102050000CBF0120002000905B469DF804104A460A
:102060002046FFF748FA1422002102A819F018F8B8
:102070009DF804001AFB00F002AA1021243017F08A
:10208000B7FCA8B91022FF2102A818F082FA78B98B
:102090009DF804001AFB00FA06AA04210AF12500A3
:1020A00017F0A6FC02AA09F0010120461AF0CCF8AC
:1020B000317A9DF804002A468900E03017F098FC38
:1020C00098B92846FEF71DFFBA4609E005EB8000E7
:1020D000018819B18278204618F070F90AF1010AD6
:1020E000317A5FFA8AF08842F0D3B07A30B95FEA89
:1020F000897003D53178204617F02AFC9DF804003A
:10210000FEF7D1FF284619F0CBF97078022805D1E7
:10211000B8F1000F02D0204612F0AAFE95E2A8887E
:10212000FFF718FB1AF08CF80028F7D1F07D012892
:1021300008D1FFF707F8F279706AF775002118F0F7
:10214000AFFF17E0307E012803D1FFF7A2F8377602
:1021500010E000240AE0706AE5B2415D012904D173
:10216000E0B2FFF700F8716A4F55641CE0B2F179F4
:102170008842F0D3502018F0B1F9FEF76DFF64E209
:102180001AF096F800280CD0F06900281CBF0468EB
:10219000002C07D0286900906B7B2A7B6989E81C9A
:1021A000A04751E26889012144E2687800240028B0
:1021B00040F0DA80A879C10740F1D68008220021DA
:1021C00005A818F06DFFA8881AF096F8040000F032
:1021D0008E806F694FB30622002107F1110018F0BD
:1021E000D8F968B310220021384618F0D2F9D0B9D6
:1021F000387C00F001084FF0000909F1010987F867
:1022000011900020009000230022414607F11100A8
:102210000DF03AFB00285FFA89F002D10028ECD1DA
:1022200001E000280CD1002068610622607900F0EE
:1022300001008DF81A00A11D05A818F03BFF1FE052
:102240006F69EFB1387C00F001008DF81A000622AA
:1022500007F1110105A818F02DFF6079012805D1BB
:102260000622A11D04F10C0018F024FF062207F13C
:102270001101A01D18F01EFF387C40F002006071B3
:10228000A879410720794CBF40F0020000F0FD0022
:102290002071A9790A0754BF00F0DF0040F0200048
:1022A0002071A8799DF81B10DFF8AC83800800F03E
:1022B000010008438DF81B004FF0FF09A979C908F8
:1022C00001F0010140EAC1008DF81B00FF2469699B
:1022D0001E2779B31022684618F0ECFE10216846DC
:1022E00019F0AAFF4FF0000BDFF870930CE0FFF736
:1022F00053FA0028D5D0307804210CF071F9D0E7DA
:102300000BF101005FFA80FB99F80000834510DAB9
:10231000D8F8001007FB0BF00A5CFF2AF0D0084445
:1023200000F10D011022684618F020FB0128E7D1CA
:102330005C46A1460020009000239DF81A1004AAD4
:1023400005A80DF0A1FAB9F1FF0F5CD034285AD1DD
:10235000707D30B3012856D1A888052119F0A4FF5B
:102360000124A888FFF7F6F968780B2804BFA8882D
:10237000FFF732FAF06900281CBF4368002B0FD02A
:102380006A78A888012198476878002808D1A87938
:10239000C10705D5F369A88822465C680321A047D8
:1023A0004BE1D8F80000002107FB09F4009100235D
:1023B000015D401C04AA20440DF066FA18BB9DF88C
:1023C0001000FEF7D0FEF0B9FEF746FEFEF797FECE
:1023D0008DF81000E86800280CBF00210169002278
:1023E00001900392029105A9686900902B69AA687F
:1023F0009DF81000FEF799FD0446A888FFF7C0F885
:10240000200046D14BE00020009000239DF81A10D8
:1024100004AA05A80DF038FA20B1FEF770FE8DF879
:10242000100019E06869B8B19DF810001AFB00FAB5
:102430006A4610210AF1230017F0DAFA60B9102277
:10244000FF21684618F0A5F830B99DF81A0005A9D3
:1024500000F0010019F048FF9DF81000F179884262
:1024600027D2E86800280CBF0021016900220190F2
:102470000392029105A9686900902B69AA689DF8EA
:102480001000FEF752FD0446A888FFF779F82000F7
:1024900005D09DF81000FEF766FEFEF7DDFD20007A
:1024A00008D1707A0028A8887FF45CAFFFF706F99E
:1024B0005AE7152455E7687806281FD1A88819F02F
:1024C0001BFFD8B1317D491E032917D8DFE801F081
:1024D000020E08134179A8880022FFF7A1F80DE049
:1024E0000022002140F2094003F070F9A88805217C
:1024F00019F0DAFE02E0A888FFF76EF9F06900280B
:102500001CBF4368002B03D06A78A8880221984733
:102510009AE000970023E97801AA01F00101281D43
:102520000DF0B2F90028F3D19DF804001AFB00FA6F
:1025300005F10C0204210AF1250017F06DFA83E081
:10254000F06900281CBF4368002B03D0A888002234
:1025500000219847707810B9A88805216AE0A888FA
:1025600019F0CAFE040070D0A87AC10712D50097EE
:1025700000236179002201F00101A01D0DF084F912
:1025800000281EBF60790028012803D0E868C0F346
:10259000402028B1707C022807D1A87A010704D412
:1025A000A888032119F044FE4FE06179A88805F15D
:1025B000080227E02F7BAD88284619F09DFE040015
:1025C00042D019F075FE00283ED1009000236179B9
:1025D00001AA01F00101A01D0DF056F928BB9DF8DC
:1025E0000400FEF725FD07F00C07042F11D0082F7B
:1025F0000BD00C2F0FD100F0090109290BD0617904
:1026000000222846FFF70CF81EE010F0090F02D157
:10261000F5E7C107F3D501220092A37C9DF80410D1
:1026200002462846FEF767FF0EE070780028E6D1E4
:102630000521284619F0FCFD06E0FFF7ADF818B1BA
:10264000307804210BF0CCFF0127384607B0BDE8F5
:10265000F08F00BFB41C0020680F002070410020E4
:102660002DE9F04F85B00D460295044615F8011B83
:102670008DF801100022DFF8E41488788DF800202E
:1026800004F1660B18F0BCFE01902C219DF80100AE
:10269000DFF8CC24032804F1F40604F5B07A04F53D
:1026A0009C7704F5C87804F2171900F0E180072838
:1026B00000F01382082818BF092811D00C2800F058
:1026C000D7810F2811D0112800F04481182800F07C
:1026D00092811A2800F057811B2800F07C811AE2B1
:1026E0002946204612F0BAF815E2707ADFF87484B1
:1026F00081070AD40F2089F80200204619F094FDC2
:10270000002872D198F80000DCE12878697800EBA5
:1027100001223A82A878E97800EB01227A822879AE
:10272000697900EB0122BA82A879E97900EB0122EC
:10273000FA82287A3876697AA87A01EB00227A83BD
:10274000E87A297B00EB0122BA83687BA97B00EB46
:102750000122FA83E87B297C00EB01223A84687C21
:10276000A97C00EB01227A84E87C297D00EB012220
:10277000BA84687DA97D00EB0122DFF8EC03FA84BE
:1027800001788A0658BF4FF01A0A13D504F5AA70CB
:102790000490798B0391387E029021890191F88A07
:1027A0000090BB8A7A8A398A204619F039FDE8B14F
:1027B0004FF01E0A707A41070AD40F2089F80200F0
:1027C000204619F031FD00280FD198F8000079E17A
:1027D00052460F21204619F01FFDF88A0090BB8A4F
:1027E0007A8AA179504613F055F972E104F1860016
:1027F000798A81800023BA8AC2800222F98A018103
:1028000002704380A18EC91DABF81E10628E8188B4
:10281000B1EB520F02BFC188A28E914202BF008964
:10282000E18EB0EB111F21D09BF81000012804BFEE
:102830009BF811000F280CD09BF8150000281CBF36
:102840009BF811001A2804D00F218BF81A10FE21D2
:102850007CE0FC21204619F007FDF88A0090BB8A35
:102860007A8A398AA07919F0D3FC32E110216DE01F
:10287000707AC10709D431781A200129707002D109
:10288000FF220D213DE00D2160E000208BF80000CB
:102890008BF80600012232712946082204F1B000AB
:1028A00019F0B2FC0146022204F1B80019F0ACFCA8
:1028B00004F1A80501460822284619F0A5FC0746A0
:1028C0000821284619F0B8FC04F19C050422394679
:1028D000284619F099FC0421284619F0ADFC04F1B2
:1028E000A00019F08DFC04F1980019F085FC9F48B8
:1028F000018841F0800101803078012805D1FF2254
:102900000421204619F074FCE3E09BF811600F2EBF
:1029100018BF142E07D00E2E18BF0C2E03D01A2E5F
:1029200018BF162E11D19BF81070FF2204212046EB
:1029300019F05EFC012F06D18BF81A601A2E14BF15
:10294000FD21FB2102E0314600E00421204619F080
:102950008BFCBEE028788AF800001A286B788AF889
:10296000013040F0D8801068A679431C4E43002007
:102970009855A379126811FB03F111440871A179EC
:102980009AF80100C0E0A77910682E784F430744F9
:1029900006F01F0317F8210FB60938B17878F04018
:1029A000C00703D598F80600042805D120221A2173
:1029B000204619F031FC8CE0FB701068A27911FB05
:1029C00002F10144204681F82360002119F0AEF89D
:1029D0000028F0D174E0A37910684B430344D888F1
:1029E00008B900265E701068A27911FB02F101445B
:1029F000002008716DE069782878884204BF08409B
:102A000010F0070F6DD19BF81100162806D198F829
:102A10000620A179134600200BF07CFD022088F8E7
:102A20000200012101984177012398F8060098F8E7
:102A30000A1088F80000BAF81C2019F0D5FBBAF883
:102A40001810814209D3BAF81C2098F80A1098F897
:102A50000000012319F0C8FB0146AAF82E1001213D
:102A600098F8080040F0400088F80800397030E01D
:102A7000707E012810D015F8011B317702222946FB
:102A800004F5897019F0C0FB0146022204F58A7032
:102A900019F0BAFB012070769BF8060030B93D2191
:102AA000012289F8011089F8002012E0F07E002848
:102AB00004BFB07E00280CD1204619F091FB30B93C
:102AC000284800784FF480410BF08AFD01E0012096
:102AD000F07601218DF8001021E028780F2816D01B
:102AE0001A2818D1A079136848431844002343706A
:102AF000A079126811FB00F150180371F07A00F010
:102B0000FB00F0721A20A1790BF065FBE1E7707A07
:102B100000F0FD0070722046029919F05DFB9BF8F1
:102B200011001A2815D19BF8120017281CBF102875
:102B3000FC280ED19BF81060204619F049FB012EAD
:102B400003BF1A208BF81A00FB211A21204619F026
:102B50008BFB9DF8000005B0BDE8F08F780E0020DB
:102B6000E0400020C70F0020200E00209C0F002016
:102B70002DE9FE4F04460020009080460CB916F067
:102B8000E9FC04F1500641F6230037683880A7F8C5
:102B9000028002223A737A73694620460BF018FFCE
:102BA00008B9072050E2009901B1B860B868206107
:102BB000DFF89804017884F8B8107068407A14F04F
:102BC00085FA25302076B87387F80F807168087D04
:102BD000022804BF002016F0BDFC7068007D0128AB
:102BE00002D10020002104E083280CBF062002202F
:102BF00020213874797404F12405DFF854A4DAF83C
:102C00003C0041690868697901EB41010844B0F86A
:102C100001207A827068417848060AD5607DC10635
:102C200004D5E07F40F04000E07702E040F0400053
:102C3000607507F15C0904F1300089F80080A97E15
:102C4000890001F0040189F80010B866607DC106B2
:102C500054D5726851788A060BD500F0FE00607575
:102C60007068417811F0030F03D1E07F00F0FE009F
:102C7000E077607D19F0A8FAA0750023387CA27D6A
:102C8000C0F38001521C00F0030019F099FAA083F0
:102C90001E23A28B02F59B7090FBF3F31E2101FB18
:102CA0001300C0B208B1C0F11E00821802F59B7279
:102CB00062831E23A28B02F5967290B290FBF3F30F
:102CC00001FB1300A283C0B208B1C0F11E0080183E
:102CD000A08380B2E27D618B521E50434018608316
:102CE00007F13008608BB43080003866062089F820
:102CF0000300E17F41F00801E17720E040F00100AE
:102D0000607571684A78510744BF40F002006075F1
:102D1000607D19F059FAA0750023387CA27DC0F3BC
:102D20008001521C00F0030019F04AFAA083A08B26
:102D300000F59670A0830020386689F80300A17D15
:102D4000207D61F3050007F18801207508700322DA
:102D5000607D48708A70A87E800000F0040040F01A
:102D600003008870EA7ED20002F0080210438870E7
:102D70000020C8700021C7F89010A88BC0F30B008A
:102D8000A8837168CA7D40EA0230A8830022617D71
:102D900001F0FE0120460AF095FF019700271DE093
:102DA0001C20784304EB000B01991C220BF16400FA
:102DB00018F080F90BF16C00052101717F1CA28BCA
:102DC00092000260FFB2DAF83C104A6911686B7930
:102DD00003EB43031944B1F801204281E07D401E1A
:102DE0008742DDDB019F20460FF0DEF8E07D012801
:102DF00009D013D3032809D03EBF04F164007860E2
:102E0000C6F818800AE0C7F8048007E004F16400FF
:102E1000786004F18001B161C6F8348041F6240085
:102E200038860021798607F13C08B868618B00EB91
:102E30008100B8630221822088F8000088F8011020
:102E4000002194F8210088F8031000F03F0088F872
:102E500002007068807D012818BF022803D100F0AD
:102E60007F00401E04E083280CBF062002202021A2
:102E700088F8040088F805104FF0000BDAF83C00E1
:102E8000416908686A7902EB42021044B0F8011007
:102E9000A8F80610C7F86CB07068417811F0030FFD
:102EA00020D019F089F9F866DAF818000078C1071F
:102EB0004CBF1F200F20DAF8181009788A0748BF86
:102EC00040F02000DAF8181009784A0748BF40F0AF
:102ED0004000DAF8181009780A0748BF40F080006F
:102EE00089F8140089F815B071685A4A887C00F096
:102EF000030089F81500A97E890001F00401084348
:102F000089F81500E97EC90001F00801014341F08C
:102F1000100189F81510107838B199F8140000F0F4
:102F2000FE0041F0400189F8140089F81510E07F97
:102F300019F04AF984F82000204619F039F9E07FA9
:102F4000C10635D5706894F820204178521C880756
:102F50004EBFD21EE87F121898F80400C0F380011B
:102F60000023D2B200F0030019F02AF928801E22B3
:102F7000288800F59670C0F11E0190FBF2F21E2029
:102F800000FB021129717168487881074CBF00204D
:102F90004FF49B702988401828806880B86B298876
:102FA0002A795218A63200EB82007867022002E0EC
:102FB000C7F874B0002089F8170004F13000C7F892
:102FC000800007F1840071684A78510707D504F141
:102FD0003802026099F8150040F0200007E01E4911
:102FE0000A685168016099F8150000F0DF0089F85F
:102FF0001500A17F94F8200060F30501A17740F649
:103000000B00A8F81000A8F812B0DAF83800008811
:1030100080007865DAF83800008800B1072088F869
:103020001C00022088F81D0094F84510A8F81E1016
:1030300070684178880744BF0121A8F81E100098E5
:1030400008B10AF030FB0020BDE8FE8F6C41002083
:10305000D0DA0100880E00206C0F00202DE9FE4F11
:10306000DFF844B4DFF8447405469BF800000028FC
:103070004CD0052872D0062800F07F80072818BFA2
:10308000082800F0F5800A2800F0E281112802D01B
:1030900013286FD000E2DFF818241078002119F00F
:1030A000FFF804001EBF606D407810F00C0F2DD0AB
:1030B000216DC0064CBF886CC86E016801F108051F
:1030C0000622A91C684617F0F5FF287800F00F01CA
:1030D00005291BD145096946C0F3801019F064F831
:1030E000002813D03968684619F05AF8064639683E
:1030F00004F1380019F054F886420DD0606D417823
:10310000C80604D440F2014019F046F8CAE1607BD9
:1031100040F002006073C5E13B681E2046439819E9
:1031200006226946C01D17F0C5FF606D4178C806CC
:10313000F1D5A17B0129EED1DFF87803817848062B
:1031400005D5E90703D4206D41F20A4102E0206D64
:1031500041F20441418041834186A3E118F0E0FC43
:103160000028FAD110F010FA012802D0012019F03D
:103170000FF897E114F0B7FE94E1DFF83C532868AC
:1031800019F002F80400F7D020790328F4D1207A4E
:1031900000F00F01072938D1DFF8200300684169EA
:1031A000497A4A1E11425CD0617A04F10A035A5CE2
:1031B00002F03F02252A54DBA17A8A09012A50D164
:1031C00011F03F0F4DD0007C17F060FFE17ACA0785
:1031D0004CBF04F1110204F10B028B0748BF921D92
:1031E0000B0748BF921CC90648BFD21C127852096F
:1031F00016214A43B2498B180A31EB608A5A42863B
:1032000099898186DA89C2862BE000F00F000828B0
:1032100027D1A17A880924D119B3A8480168087C6C
:1032200017F034FFE17A064688071AD5062201F026
:1032300001015143601800F10C01684617F03AFF94
:10324000207AC009694618F0AFFF50B1386800F124
:103250000D01684618F094FF18B90521304616F0A4
:103260008BFB2079032802D0002016F073F90FE1C0
:10327000944FB8780024FF281BD017F007FF804632
:1032800008F16C09D9F8040018F07EFF2A4601798C
:10329000032901D011000CD08368197801F00300D4
:1032A0008D06009003D50124009818B9CDE01000D8
:1032B000FAD0F7E05D7803F1020A34B31AF8010B93
:1032C000814B01902C2098F806C01E6810FB0CFC66
:1032D00066444FF0010E86F805E0002A1E6898F853
:1032E00006E006F11A0C019E10FB0EFE06F01F060A
:1032F0000CF80E6098F806601B6810FB06F0184486
:10330000019BC3F38113C3761AD10098032808F2F6
:1033100017161AD0ADB199F8000068B108F1F400A1
:103320000278012A0DD19BF80020072A04D0082A30
:1033300004BFC078012804D13D2171700120307094
:10334000B0E0624A1378012BFAD098F89400002874
:103350003CD030782D1F0128EDB2F1D053462A46DB
:1033600040460EF0A1FE00281EBF594908780028EB
:1033700013D13D2171700120564A30701178012916
:103380000AD1554C20784FF4805115F081F92078FE
:103390004FF480510BF024F984E0504801688847CD
:1033A00001904FF4D07098F806207968424388184D
:1033B000002180F8411108F59E7001688079490864
:1033C0000FF058FF464901980A6890470098032873
:1033D0001DD044494869007882070DD598F89400BB
:1033E000002814BF281D28464A691178CA0748BF1B
:1033F000C01C1AF8000000E0812089F808002A4665
:103400000098C3B2B878514605F0D0FC1DE09AF898
:1034100000001CB11B2804BF022D01251C2803D26B
:1034200031490B5C9D4205D0B0700721404618F031
:103430001BFF0AE09BF8000008285146404602D1D5
:1034400018F028FB01E0FFF70BF9D9F8040020E0A1
:10345000264C207830B3264D286818F095FE08B326
:10346000017903291ED1017A8A0611D5807AE17883
:10347000C0F38112914202BF217900F01F00814206
:1034800006D1A078002801BF607800280121A17032
:10349000286818F071FE05E0002016F05BF8862021
:1034A00018F0FAFEBDE8F78FC80F0020680F002063
:1034B000D50F0020C00C0020BC0A0020540F0020B3
:1034C000E0070020780E0020E0400020D20F00200E
:1034D00071410020880E0020C70F0020B026002078
:1034E000B4260020D0DA0100C4DE010068400020CC
:1034F000AC0C00202DE9F84305460C46480413D4D3
:10350000A00024D4A0075CD460057ED4200500F17F
:103510000681200700F13B81600040F1F68010F049
:10352000DBFF24F08044F0E018F092F8DFF81C1480
:103530000F6D3FB1D7E90A1202F0E04201F00A0133
:10354000891849D018F042FA24F48044DDE0BB48E1
:10355000DFF8FC73016841F080010160B878012850
:1035600004D1042015F0A0F90020B87018F070F80C
:103570000646042018F096F8DFF8D8130A6890423F
:1035800019D12A7EBAB1FA68AAB1DFF8C003806CFB
:10359000002800F09780C16840F603020988914234
:1035A00006D0C06840F604010088884240F08A8056
:1035B00005F1140088E040F6C4120860C5E9042251
:1035C00084E007F00BF9DFF88403006C002840F07A
:1035D0009D8024F0020498E0D7E90A65D7E90A1231
:1035E000AA43B143C7E90A1218F0F0F9B8680028F5
:1035F000AAD056EA0500A7D0D7F808C03869B7F9AD
:10360000301032462B46E0479EE718F021F8054679
:1036100016F0AAFB002800F0B780CC48876B002F7B
:1036200000F0B280DFF828830420CB49002288F81C
:103630001800C64817F0C1FB18F0E6F9C74818F0A3
:10364000B9F9C7480068006B8047C8F81000012529
:10365000042088F8025015F0A5FB386990F828106E
:10366000C8F80400490703D5436A0421002298479B
:10367000012011F0DBFED8F8040045760CF0B8FF0D
:10368000D8F8040081680B461A465B684BB11E8867
:10369000A6F60306072EF7D805FA06F616F0830FEE
:1036A000F2D0537B03F0F003013353730023FD6822
:1036B00053602D88A5F60305012D00F28A80C8F815
:1036C00010309FE005F1100013F068FB304618F051
:1036D0007DF915F07FFB78B12E6A28466FF4807172
:1036E00000224FF00073B0479848806B10B110F083
:1036F000F3FE01E044F00204EE69284600210022B6
:103700004FF08063B04724F0005434B1974821460D
:103710002830BDE8F84318F02BBABDE8F8838C4E8A
:10372000B078012804D1042015F0BEF80020B07054
:1037300015F050FB38B170686FF4807100224FF0C3
:103740000073056AA847306950B185480068006B6E
:10375000804732697168801A000BC86000203061B0
:103760007A4D81490022284617F027FB0220307647
:10377000286C20B17D480221283018F0F9F910F0AA
:10378000ABFE24F40064C0E718F03EF941E017F006
:103790005FFF054616F0E8FAA0B1DFF8B48198F8AB
:1037A000000000070ED498F9000000280AD46846EB
:1037B0000DF014F808B1009820B1DFF8B49199F831
:1037C000610048B318F020F910F086FE24F00804D8
:1037D0009BE7034633F8385FA5B190F8445090F862
:1037E000456005F0F00580F8445006F0F00501351D
:1037F00080F8455000255360C5634587507B00F035
:10380000F000507357480022C2610160012016F099
:1038100005FD24F4806478E700260127602E0FD090
:1038200009EB0600817A31B18772407A07FA00F01D
:10383000C0B215F053F82036F0E700BFCC210840A5
:10384000032088F81800454818F0B4F818F0DCF8A0
:10385000444F3E4D0022786900207861F968F86095
:103860002846444917F0A9FA3D480068006B804794
:10387000D8F80C10D8F82020411A02EB1130B0EB28
:10388000113F38BF4FF0FF3098F82410C8F82000DF
:1038900021B1D8F80810B0EBC12F20D916F0CEFC1A
:1038A000B8B140F60900414621F83C0F002048809D
:1038B0004A7B02F0F00201324A730A7B02F0F00206
:1038C0000A734860F8613960B8F83E0010F4406F40
:1038D000FAD00020C8F82000012088F8240012F057
:1038E0009BFF2548002101600220002116F096FC74
:1038F000022014F0D9FF10200CF088FA98F801008B
:1039000020B9D8F80400503018F02EF91B48807800
:1039100010B90D200CF07AFA98F8250028B1002093
:1039200088F82500052014F0BFFF002088F8180053
:103930001348C8F81C000220B5F85610B5F85420FA
:10394000914208BF072010F011F83DE7282200201F
:10395000C01F0020D8270020459D0100103C0020FA
:103960008C0100100010044091C90000602100206B
:10397000103900203D45010000000460B4E2010060
:1039800081C400002DE9F04F0F46380589B018D5E5
:10399000DFF8F4532888FF280ED0C0B217F076FB6A
:1039A000040009D0A079162118F0E2FB204617F098
:1039B00063FB204609F0C0FBFF20288087F40060ED
:1039C000DFE1F80504D515F05AFE87F48070D8E1E0
:1039D000B80604D518F074F887F02000D1E1F80794
:1039E0000CD517F035FD30B100218160DFF89C0364
:1039F000006800B1804787F00100C2E1380704D5B4
:103A000018F060F887F00800BBE1F8060FD5002138
:103A100000220023069105920491039302910192E2
:103A20000091022018F0A0FB87F01000A9E1B80770
:103A30000FD5002100230691059104910393029173
:103A40000191009101223C2018F08EFB87F00200CA
:103A500097E179074FF01E08CD4EDFF838A340F10B
:103A6000D580CD480022002108920791007818F0F7
:103A700017FC0446C9488178FF2904BF002015F0CF
:103A800069FDA07A17F002FB05469AF8000095F848
:103A90002E91002805F5947B71D0606D807A022804
:103AA00018BF032807D130680D3018F059FB10B942
:103AB0003068C11D07915946484618F075FB00282B
:103AC0003BD0606D807C3368002818BF012804D18A
:103AD0001946584618F064FB04E05A464946184611
:103AE00018F00EFCFF284AD008FB00F8306840446C
:103AF00006225946C01D17F0DDFA306810F808108C
:103B0000404400F1010B41F00209C01D089009F08A
:103B1000010185F82E110622594605F5947017F01B
:103B2000C9FAA87917F06CFC060008BF15F012FD61
:103B300094F8B90086F83A0021E05946484618F052
:103B40000BFBE0B130685A46494618F0D9FBFF2814
:103B500015D018FB00F8306840440D3018F000FB19
:103B600058B9306840440D3018F0FAFA002801BF07
:103B700030684044417F012901D149F0020905F133
:103B80002C004B46017806914289120905920122C8
:103B9000698C0491C0880899029140080390CDF87F
:103BA00000B0079801900020A97918F0DDFAD5F847
:103BB0009C017B4988420CBF00210121A87918F0A3
:103BC000C7FA7848AB7902682C214B431344012291
:103BD0001A73AB7904684B4323445A73AB79046876
:103BE0004B4323449A73AB7904684B432344DA7301
:103BF000AB79006811FB03F1014400200874072031
:103C0000A97911F062FB87F00400BAE038060FD5FD
:103C100000210023069105910491039302910191E3
:103C2000009101223B2018F09FFA87F08000A8E065
:103C3000F8045DD55C4930680C680D3018F090FAD6
:103C4000002844D13068C11D0D3018F07DFA3EE0E7
:103C5000606D4178480704F13E0526D52878022892
:103C60001EBF03286878012830D16978306804F1D4
:103C7000380218F045FB8146B9F1FF0F15D03068C6
:103C800018FB09F948440D3018F06AFA68B9306831
:103C90004844C11D0D3018F057FA30684844C11D22
:103CA000062204F1380017F005FA2878022818BF18
:103CB00003280BD130680D3018F052FA30B9306853
:103CC000C11D062204F1300017F0F4F92468002C1D
:103CD000BED13648DAF8042000784FF4805113F052
:103CE0005BFA10B18E2018F02BFA87F4805048E070
:103CF000B80505D517F01FFE2D4901200860FEE725
:103D0000780504D517F087FF87F4806039E07804E0
:103D100005D5812018F014FA87F4804031E0B90409
:103D20002ED5244C206810B1002015F013FC4FF064
:103D3000FF3020600020204C0EF080FE216851F8FA
:103D4000202F684690471D494A6B086BC96A246852
:103D50001B4B01920090ADF8101002936B46194A6C
:103D60001948016819480392194A07922568194AA7
:103D7000A8471949086003F01BFF87F4005000E0D2
:103D8000002009B0BDE8F08FEA240020480F002091
:103D9000680F0020880E0020D70F0020780E00202A
:103DA0004DE50110E04000204C0F0020C70F00201F
:103DB0007C052043380F0020200F0020541F0020D6
:103DC00031B4010041B40100EC4000206033002018
:103DD0001EFB0080EC0A00201C0F00202DE9F84F8C
:103DE000DFF82854A9780024FF2904BF002015F02B
:103DF000B1FBA87817F04AF9054605F1680605F504
:103E0000C9773168086805F1900808B1EC8311E0C2
:103E1000B07B002804BFB07E00280BD198F80010BA
:103E2000002904BF3878002804D1287F012804BF66
:103E3000688CE8832989E88B4118491C69812846E8
:103E400018F07AF901281EBFDFF8C40301780129B0
:103E500003D12989EC83491C69814FF6FF79B07E33
:103E600001280DD1B28B6989288918F061F938B120
:103E7000298968894A1C93B298422FD0B08B23E0DD
:103E800098F8000001280FD1B8F802206989288924
:103E900018F04EF940B1298968894A1C93B29842BA
:103EA0001CD0B8F802000FE03878012816D17A88C3
:103EB0006989288918F03CF980B1298968894A1CE8
:103EC00093B298420AD0788892B2904206D0484481
:103ED000688180B218F028F94844E88338780128CE
:103EE0000FD128897988401C80B2884209DB7C790F
:103EF0003C71022038702346A979224600200AF03E
:103F000009FB05F59A71087920B128890021401C28
:103F1000E9836881B07E012813D12989B08B4B1CBD
:103F20009BB298420DD1688118F0FEF805F12E0180
:103F3000B6F820808A8802FB008828460EF074F8C4
:103F400003E005F12E00B0F80480E88BB14B411C72
:103F500001FB08F82968CA6840F6C41909FB082261
:103F6000CA60AD49DA7BD30702D56B8A00220BE029
:103F70000A88521C93B2012B03BF05F59A7CBCF84A
:103F8000063003F2DC536B8A03FB08F34FF4C87C62
:103F9000B3FBFCF35B1C6B610A8085F82000C5F85D
:103FA00018804FF01C0BDFF874A2AB79DAF8000030
:103FB00000F108021BFB03F3D1582A68116100F1DC
:103FC0000801AB79D26868691BFB03F3121ACA5067
:103FD000DAF80000AB7900F108021BFB03F3D158BB
:103FE0002A68916000F10C02A9791BFB01F10C30E9
:103FF000535C03F0F00343F002034354DAF800107B
:10400000AB798A1C1BFB03F30021D152387908B924
:1040100015F0A0FADAF80000AA7900F11001387959
:104020001BFB02F240088854A879DAF800101BFB49
:1040300000F00844002141743879042814D1A8798B
:10404000DAF800101BFB00F001F110021031135CD4
:104050003A7A43EA82030B54AA79DAF800001BFB90
:1040600002F2024420205074DAF80010A87901F11D
:1040700012021BFB00F0002111526949A8790A685D
:1040800002F114034FEA401C143253F80C00AB79D0
:10409000D5F814C05B0100EB4C00D050B07E022874
:1040A0000DD10A68AE7902F11403760114329859E1
:1040B000AB7995F82E605B0119FB0600D05005F135
:1040C0002E025448C37BD8075ED5DAF80000AE79DB
:1040D00000F108041BFB06F60830A359AC791BFB62
:1040E00004F4A3F5A8630351DAF80000AC7900F1F9
:1040F00008031BFB04F418592B68986004464948D0
:1041000000FB0848C3F810800868AE7900F1140479
:1041100076011430A359AC79640103F5F6630351B9
:10412000387904280BD10868AE7900F114047601BF
:104130001430A359AC79640103F561630351086835
:10414000AC7900F1140364011859C5F83401364BF9
:10415000186B0C68AE799288006804EB46174243EE
:104160006424B2FBF4F409FB04F0A0F596692F482F
:10417000C7F81C900278012A2FD10868A97900EBB2
:1041800041120120D0722FE0042C0BD10868AE79C7
:1041900000F1140476011430A359AC79640103F5DD
:1041A00061630351387904280CBF4FF4AA504FF4CF
:1041B000E6600B68AE7903F114047601A359181A6E
:1041C000938809FB03F3A3F516739842BFD3082124
:1041D000284615F0D1FB012016E0586A0968AA7933
:1041E000407801EB4213D872A879DAF800102A68F7
:1041F0001BFB00FB01EB0B00506007210C4801701A
:1042000028460EF089FF0020BDE8F28F780E0020CE
:10421000D10F0020980C00205E410020980E002055
:104220009C0E00203CF6FFFFD0DA0100CC0F0020EE
:10423000C80F00202DE9F0410646FF2818BF2028AE
:104240002AD117F0D7FA10F01F0F22D0042014F053
:1042500093F908B1042016E0012014F08DF908B19B
:10426000012010E0022014F087F908B102200AE0D2
:10427000102014F081F908B1102004E0082014F097
:104280007BF920B10820BDE8F04114F0ADB915F07C
:1042900061F90020BDE8F08114F0A6F95FEA00089A
:1042A00014BFD8F804500025012E46F2A81740F696
:1042B000C4140BD0022E69D0042E00F0B880082E52
:1042C00000F01281102E00F05981E2E7012014F075
:1042D00053F900281EBFDFF86C03006800281CBFDC
:1042E0008788BF00102014F047F918B3102014F08D
:1042F0007BF9040002D066685EB900E00026022067
:1043000014F03AF928B1022014F06EF9040018BF35
:1043100066686DB1012014F02FF9002818BF002E37
:1043200006D0B068C11BA86816F088F800282BD00A
:104330002046AFE7022014F01FF938B1022014F034
:1043400053F9040014BF666800260AE0042014F044
:1043500013F950B1042014F047F9040014BF666843
:104360000026002DE4D0012040E1082014F004F9DB
:1043700028B1082014F038F9040005D053E00120DA
:1043800014F0FAF8002885D0404683E7022014F0A4
:10439000F3F860B1AC480168AC48CA69017801EB38
:1043A00081015318D88804FB00F707F5166704202D
:1043B00014F0E2F838B1042014F016F9040014BF28
:1043C0006668002622E0082014F0D6F898B108208C
:1043D00014F00AF9040002D06668BEB900E00026B5
:1043E000012014F0C9F888B1012014F0FDF8040090
:1043F00018BF66680AE0012014F0BEF850B1012031
:1044000014F0F2F8040014BF66680026002D8FD067
:104410000220EBE0102014F0AFF830B1102014F0BF
:10442000E3F80400B0D06068EBE00220A8E70420C5
:1044300014F0A2F858B18648016886484A690178A4
:1044400002EB0113988904FB00F707F516670820B3
:1044500014F092F898B1082014F0C6F8040002D0C5
:104460006668DEBB00E00026012014F085F8A8B3E2
:10447000012014F0B9F8040018BF66682EE001208E
:1044800014F07AF838B1012014F0AEF8040014BF2B
:104490006668002622E0102014F06EF898B1102013
:1044A00014F0A2F8040002D06668BEB900E000264D
:1044B000022014F061F888B1022014F095F804008D
:1044C00018BF66680AE0022014F056F850B10220C6
:1044D00014F08AF8040014BF66680026002D23D06B
:1044E000042083E004204BE717F010FB08B1D0F85C
:1044F0009070042014F040F838B1042014F074F8DF
:10450000040014BF6668002632E0012014F034F87D
:1045100058B1012014F068F8002D044604D008209A
:1045200014F02AF800286ED102E7102014F024F8C5
:1045300098B1102014F058F8040002D06668BEB993
:1045400000E00026022014F017F888B1022014F0D1
:104550004BF8040018BF66680AE0022014F00CF85B
:1045600050B1022014F040F8040014BF6668002621
:10457000002DD9D0082039E0082001E7032017F0EA
:10458000C7FA08B1D0F89870022013F0F5FF38B1DF
:10459000022014F029F8002D0446C5D01020BFE7F2
:1045A000042013F0E9FF38B1042014F01DF80400D2
:1045B0000CBF0026666816E0082013F0DDFF18B374
:1045C000082014F011F8040002D066685EB900E01B
:1045D0000026012013F0D0FF28B1012014F004F8C8
:1045E000040018BF6668002D9ED0102013F0C4FF91
:1045F000002818BF002E97D0B068C11BA86815F01E
:104600001DFF002890D1BFE6012013F0B5FFB0B127
:10461000012013F0E9FF040014BF66680026002D96
:1046200005D0102013F0A8FF002818BF002E3FF47B
:104630007FAEB068C11BA86815F000FFE1E710204D
:104640009EE600BFF4400020500F0020D80F00204D
:10465000540F0020D90F00202DE9FE4F0422FF2126
:1046600001A816F01DFDDFF8DC63B078FF284FF0DD
:10467000000800F0E58116F009FD0546B07816F057
:10468000BFFE074605F217100178012908BF4178DF
:1046900000F05B8105F17406B07B022817D1387FEA
:1046A000C0F3C00088B105F12E000189090900910D
:1046B00005F12E01C3888A88A9795208002017F0D5
:1046C0002FFD387F00F0E700387786F80E8095F8E8
:1046D0009201022808BF85F89281307F022808BF26
:1046E00086F81C8005F5927BBBF80E1019B19BF87B
:1046F0000C0009F075FF072011F0A5F86889D24C6D
:104700002881A27A94F807E0237BE17A607B02EBB0
:104710000E09994489448144CDF80090B7F81EA051
:10472000B7F820C0D644A7F81EE094F808E0E644A5
:10473000A7F820E0B7F822C094F809E0E644A7F80B
:1047400022E0B7F824C0B7F826E09444A7F824C0C4
:104750007144F984398D0B443B85798D081878852F
:10476000BB8D20781818B885F98D60780818F88501
:10477000398EA07808183886798EE07808187886FF
:10478000B98E20790818B886F98E60790818F886ED
:10479000398FA0790818388705F58D718888401CF5
:1047A0008880B5F81A310098C318A5F81A3105F5B4
:1047B0008D73488810185880DBF80000F8B1A349C1
:1047C00095F806E00B681C2103F10E0C11FB0EFEA0
:1047D0001CF80EC030F81CE00099714420F81C1041
:1047E0001C2195F806C00E3311FB0CFC13F80C309D
:1047F00000EB4300B0F84A105218A0F84A2014F019
:1048000009FCE079DFF84892002804BFE07A00282C
:1048100005D1207B002804BF607B00283DD0A7F88D
:104820000E80C246F87EC0090DD0387F00F0070127
:10483000022904DA411C61F30200387703E0A87909
:10484000002117F071F92989E88985F8108041184D
:10485000287FA981012804BF688CE883A9790122F7
:10486000072010F032FD607858B101212977B07827
:10487000002804BFB07B002803D1307F08B9688CC2
:10488000E8839BF81400002868D0022804BFE07A6F
:1048900000285ED18BF8148060E0A97900220720FF
:1048A00010F013FDA5F81E80397F11F0070F02D11B
:1048B000F87EC00903D0A879002117F035F9287CCB
:1048C000A17A05F58D7261B14FF0010A08B1E8894E
:1048D000A88185F81080287F012826D1688CE8837C
:1048E00023E0D188491C4FF0020AD180E8B1D9F801
:1048F0000000AB7995F82E7000F1140168694FEA59
:10490000400C40F6C4105B0110FB07CC0CF5F66CB4
:1049100041F803C0D9F80010A87901EB4010C17C20
:1049200001F0F00141F00401C174A8892989814294
:1049300006D0884297D2081A41F2AB01884292DA37
:10494000108800280CBF3E210821284615F014F8D5
:1049500076E0607A10B102218BF81410E07BC10779
:104960000ED520692968C86000F59070C860D9F834
:104970000010AA7901F1140052010021815016E0C3
:10498000D9F80000A97900F1140249015058CBF878
:1049900010002E48AB7901681C2001F10802434346
:1049A000D0582968C860A5F81E8085F81C80294A5F
:1049B00050690078810702D5A07B802800D1812032
:1049C0003070254991F8200018B12946012017F0D0
:1049D0009BF828460AF0ECFD02281CD1F079022849
:1049E00005DB01AA1D49284610F0E2F98046284659
:1049F00017F092FB012823D05FEA08000DD0424651
:104A000001A9284610F0EEFD38B928460AF0D0FD7D
:104A1000012802D114E0012812D00121284617F004
:104A200077FB009881B22A46504608F0FBFBFFF75F
:104A3000D5F9012804D0284616F01DF817F0B6F86D
:104A4000BDE8F78F780E0020980C0020980E00200B
:104A50009C0E0020D0DA0100EC3D00200028002050
:104A60002DE9FE4FDFF888737E681EB9BDE8F74F69
:104A700017F04ABB3078DFF87C93DFF87C53DFF81F
:104A80007CA3012818BF02280DD0042818BF0828CD
:104A900009D0102818BF202805D0402818BF80282A
:104AA00000F0C9809DE116F0ABFE0028FAD001208D
:104AB00013F062FD20B1012013F096FD13F024FDE8
:104AC000082013F059FD20B1082013F08DFD13F0DC
:104AD0001BFD3078FFF7AEFB5FEA000814BFD8F883
:104AE000044000249AF8010000286AD017F05AF810
:104AF00016F0CCFA00900168009801914E68817917
:104B00008AF8031014B94FF0020B04E001994046F3
:104B100017F046F8834600985A46414616F0FCFFC7
:104B2000584502D003283CD08346BBF1020F13D076
:104B300098F80000012802D0082877D051E1BBF195
:104B4000000F05D117F0DCFA00F5E8504C30A060FA
:104B50000120B87011216BE00198017880290BD1F8
:104B60000820A74928700A787069012A1ABFD9F865
:104B70002410097801211DE0072028700099887908
:104B800016F03EFC0446207BC1070BD500988079C7
:104B900016F07CFA052114F0EFFE207B00F0FE00F9
:104BA000207323E196480178706901291CBFD9F868
:104BB00024104978C1720098817901988AF802100E
:104BC0000BE1B8F1000F17D00122414616F0A4FF07
:104BD000032808D098F80000464509D1012818BFDD
:104BE000082801D12CBB01E1002014F0B3FC20E027
:104BF000012802D0082817D0F3E0002CF3D017F0DA
:104C00007FFA0146A06801F5C241A83115F016FCF3
:104C100028B917F075FA00F5E8504C30A060112063
:104C200028700121B97004E0002CDCD0B87012218A
:104C300029704046D1E09AF80100002800F09A80DF
:104C400016F0B0FF16F022FA044620680090D0F863
:104C500004809AF8020016F019FAA0798AF8030085
:104C600002220021204616F057FF022801D0032817
:104C700013D03078402811D1A07916F0C1FB064638
:104C8000307BC1070AD5A07916F000FA052114F08F
:104C900073FE307B00F0FE003073A7E016F0AAFD33
:104CA00010F01F0F44D0012013F066FC20B101204A
:104CB00013F09AFC13F028FC082013F05DFC20B1DF
:104CC000082013F091FC13F01FFCB878FFF7B2FA3C
:104CD00006467168019111B94FF0020B03E000998B
:104CE00016F05EFF834602220021204616F014FFD4
:104CF000022803D0032879D0834602E0BBF1020FDB
:104D000016D03078012802D0082862D00DE0BBF11F
:104D1000000F06D117F0F4F9019900F5E8504C3076
:104D2000886011202870012150E0002014F012FC4E
:104D3000009933480A78802A0BD10821297000781D
:104D40000128D8F814001ABFD9F8241009780121D5
:104D50000AE007222A7000780128D8F814000EBF54
:104D60000121D9F824104978C172A0798AF802008B
:104D7000009832E016F03EFD10F01F0F36D00120F3
:104D800013F0FAFB20B1012013F02EFC13F0BCFB52
:104D9000082013F0F1FB20B1082013F025FC13F0DC
:104DA000B3FBB878FFF746FA0646307874680128F6
:104DB00002D008280CD019E0C4B117F0A1F900F511
:104DC000E8504C30A060012111202870B97003E038
:104DD00064B1B870122129703046BDE8FE4F16F05C
:104DE00015BDBDE8FE4F002014F0B4BBBDE8F78F41
:104DF00080400020D0DA0100C80F0020780E00208B
:104E0000CC0F00202DE9F04F8FB0074618984FF0D7
:104E1000000E002A01938DF8200000F093810AA86B
:104E20000E464FF0200A002400F1100CCDF800C00F
:104E3000114611F8010B25280E910CD0002800F026
:104E40007D81022EC0F01581013E002F00F01081FF
:104E500007F8010B0DE15378901C0E902D2B07D114
:104E60004FF00109D01C93788DF80D900E9003E05F
:104E70004FF000098DF80D90302B05D101210691DE
:104E800010F8011B0E9002E01946CDF818E04FF023
:104E9000FF322A29CDF808E0049214D1019D296837
:104EA0000A1D2A60D1F80080CDF80880B8F1FF3FD4
:104EB00010F8011B0E9018DC4FF00109C8F1000832
:104EC0008DF80D900FE04FF00008A1F13002092A93
:104ED00008D808EB880201EB4201A1F1300810F874
:104EE000011BF2E70E90CDF808802E2914D1CDF8E1
:104EF00010E0024612F8011B2A290E920FD1019DE3
:104F000029680A1D2A60096821EAE17BCDF810B002
:104F1000417802300E9015E04FF0FF3B12E04FF069
:104F2000000BA1F13000092808D80BEB8B0001EB36
:104F3000400012F8011BA0F1300BF2E710460E9270
:104F4000CDF810B0302B41F0200306BFCDF818800B
:104F5000424600226C2B06D101218DF80C1010F86E
:104F6000011B0E9001E08DF80CE0CDF81CC00AABDF
:104F70006929CDF814E0099301D0642916D1019B69
:104F80001868011D196093456FF00903C8BF5A46A0
:104F90000168604606920EF0BFFADDF800C04FF0DF
:104FA000000E0990ACEB0001059128E075290AD0AC
:104FB000A1F16F03092B5FD8DFE803F0058C6A6A63
:104FC000A26A6A6A6A05019D2868031D2B60782918
:104FD0004FF0080308BF1023752908BF0A23934523
:104FE000C8BF5A460168604606920EF095FADDF891
:104FF00000C0ACEB0001099005914FF0000EA8EB4A
:105000000100B9F1000F02901CD109E0022E06D375
:10501000013E1FB107F801AB029800E00027013400
:1050200001380290F2DA0DE00998022E07D3013E12
:1050300027B1007807F8010B099800E0002701303C
:10504000013409900598411E00280591ECD19DF886
:105050000D0078B10298013802900BDB022E05D3C7
:10506000013E17B107F801AB00E000270134F1E77A
:10507000002701340E9ADBE6632909D1019A1068F2
:10508000011D11600121006805918DF82800B4E729
:105090000138022E0E904FD36FF000400BF101014A
:1050A00086426FF0004038BF3046B345024638BFF5
:1050B0000A46002908BF024604920EA9019A02ABD3
:1050C00005F032FCDDF800C09DF80D90DDF8088099
:1050D000059992E7019A10231068011D11600821BB
:1050E000082206919DF820100029016860460EF004
:1050F00013FA4FF04001DDF800C000F8011D78E719
:10510000019A1068011D11609DF8201000680029A7
:105110000E49002808BF0846099016F034FA834566
:1051200001464FF0000E38BF59461BF1010208BF7F
:105130000146DDF800C037E700215EE70FB100202F
:105140003870A64670460FB0BDE8F08F4DE4010000
:105150002DE9F84F054605F14C08E87D98F8001058
:10516000D8F804A000248142C0F0918105F12806FE
:105170000AF190090AF17307A34640F08D80A87FD9
:105180007875E97FB975D8F80820527893070FD55C
:10519000EA7FD30604D5C01E787501F0EF01B9751A
:1051A000CAF874B03C700022B97D01F0FE0169E1DB
:1051B000910608D4F08B00B1F07E3876F08B00B108
:1051C000306AC9F80000D8F808004178CA070DD540
:1051D000F08B00281CBF306A002807D0C9F80000F7
:1051E000B17EF08B814238BF08463876E87FC10631
:1051F00010D5DAF83800317800EB8100CAF83800B1
:10520000DAF83800A98CA63100EB8100CAF87400E6
:10521000022002E0CAF874B000203870D8F8080004
:10522000417811F0030F21D1007816F073FC0400CF
:105230001CD094F8B000032809D1E87F810615D46A
:1052400040F02000E877B87D40F020000DE068B91C
:10525000E87F81060AD500F0DF00E877787DA0F1CD
:1052600012017975B87D00F0DF00B875E97F002282
:1052700001F0FC01284608F025FD002C35D0E87F20
:10528000810632D594F8B00002282ED12146284656
:10529000BDE8F44F16F050BCE87F81060AD500F057
:1052A000DF00E877787DA0F112017975B87D00F014
:1052B000DF00B875D8F808004178C80716D5B87D62
:1052C000797D00F0F700891E01F03F0182075CBF85
:1052D000891D40F00200420644BF491E00F0BF0095
:1052E000B8757975C9F800B03C76D0E098F8004000
:1052F000E87D241A8907E4B240F18480012C40D172
:10530000DAF83800A98C00EB8100CAF83800A87FD1
:1053100000F03F00A8777875E97FB975D8F80820C4
:1053200053785A0703D5801F787501F0FD01B975D0
:105330000023797D9AF84000F27E01F03F018A183F
:10534000C0F38001521C00F0030016F039FF00F595
:105350009B70A8841E2180B290FBF1F0B97D82B2CF
:1053600001F0FE01284608F0ADFC87F800B0F08B94
:1053700000B1F07E3876F08B00B1306AC9F80000D9
:1053800085E0DAF83800A98C022C00EB8100CAF81D
:10539000380026D1E87FC10706D5787D811F797551
:1053A000B87D00F0FE00B8750023797D9AF84000C2
:1053B000F27E01F03F018A18C0F38001521C00F018
:1053C000030016F0FDFE00F59B70A8840022B97D55
:1053D00001F0FE01284608F075FC707F0AF14001DB
:1053E0004883707F401C041BE0B2012821DDDAF8FD
:1053F0003810AA8CA63201EB8201CAF8741002217F
:10540000397017E0DAF83800A98C00EB8100CAF88F
:105410003800E97F707F041BCA06E0B209D5DAF8CC
:105420003810AA8CA63201EB8201CAF8741002214E
:10543000397060B3EC7FA97FD9F80020F37E1A445D
:10544000C9F8002024F00104D8F8082053785A073E
:1054500048BF24F00204012807D1307F3876CAF80B
:1054600074B024F0100487F800B001F0C006E0B278
:1054700016F0AAFE00F03F0030437875BC7500229C
:1054800004F0FC012846BDE8F84F08F01BBCBDE85D
:10549000F18F70472DE9F84F05004ED0DFF8EC8210
:1054A00098F80000092818BF0A2804D00B281CBF50
:1054B0000C280D2801D1212065E1A878002116F0E3
:1054C000EFFE040008BF4220F6D0B14FA978DFF804
:1054D000C4A2397098F8000010B9A8788AF80000C2
:1054E00004F14806F068417801F01201022902BF78
:1054F000706900280C2012D0607AF0B1A07B0128DE
:1055000004D1B5F8030008B1812816DA687840287C
:1055100013DA204616F0F0FDB06808B9072032E132
:10552000B561287801281FD1A07B00281CBF012865
:10553000042819D19848007808B9122023E1974926
:105540004A78824208BF0920F8D0F06841784807BD
:105550000AD504F1220180204A7F04F1380108F0C5
:1055600063FD08B10B200EE1687808B911200AE14B
:105570002878DFF82C92DFF82CB2012840F0B280B6
:1055800000212173F166217A012903D1B16968797B
:105590004871F7E0112010F056F901200021207227
:1055A000E1726173254609F05FFC6060DBF8000082
:1055B00080477D4A0146106802E06A6842600068E0
:1055C0000028FAD10846D9F800108847696877485A
:1055D00048610021387816F08FFA397801221120BD
:1055E0000FF073FEF0684178C80605D5284601F033
:1055F000C7F8010024D0C6E0688C16F0D5FA85F80B
:105600002100F068007816F085FA04001CBF94F8B9
:10561000B000002807D0E87F40F02000E877687DE0
:1056200040F018006875284616F0C2FA0100E2D171
:1056300034B194F8B000012804BF284616F078FA77
:10564000F0684178C8071CD505F14204A1880029FB
:105650001CBF3068002814D022788A4211D20F2053
:1056600016F046FD68B1F06801788DF800100F2043
:10567000A288ADF8012021788DF80310694616F054
:1056800033FD98F80000A0B94949087800281EBFEA
:10569000F068417811F0030F03D04648006816F017
:1056A0001FFD112088F800000121297216F07EFAF2
:1056B00068E0284613F064FA00281CBFB16800298E
:1056C00060D0AA7B012A04D02A69808802EB80027C
:1056D00002E04A6E2869121895F8B810104609F0D1
:1056E000A1FA4FE0207A00284CD0DBF80010884760
:1056F00005463878012116F0FFF900202E49207266
:105700000A683E7811460B68187A002802BF586D67
:105710000378B34203D0C9689142F4D10BE0274E1D
:105720003078012807DD084612F0D2FE15F0B8FEE9
:105730003078411E31703A789AF80000824217D1D1
:1057400015F086FE6168884212D113F063FC40F2C6
:10575000014016F021FD1A491A4A1B480860012130
:10576000107808F03DFFD9F800102846884709E076
:10577000204616F0B1FCD9F800102846884720468C
:1057800012F0A6FA0020BDE8F28F00BFC80F00207B
:10579000D60F0020D50F0020D40F0020780E002057
:1057A000B4260020B02600204C0F0020F586000013
:1057B000880E00206C0F0020F44000206E41002075
:1057C000480F0020C70F002011970000F8B51446BD
:1057D00000254FF48067DFF89862C21B84B006F1A1
:1057E000880337D0921E3CD0521E44D0521E4AD05D
:1057F000521E50D0521E54D0521E00F07A80921E7B
:1058000000F07C80D21E00F0AC80521E00F0B78009
:10581000921E00F0C080521E00F07B80521E00F0ED
:10582000C180521E00F0CF80521E00F0D280521E66
:105830003ED0521E56D0521E4BD0921E00F0DE803B
:10584000921E00F0E280521E00F0ED80521E00F029
:10585000F98000E101290FD12078022817DC70704F
:1058600003E1012908D12078022810DA0028B0705D
:10587000F6D1B074E3E0012940F0EB8020780528F0
:1058800005DAF070F1E001296CD12078022880F26D
:10589000E0807073E9E0102964D110222146754838
:1058A00014E001295ED12078022863DA3071DCE04F
:1058B000012957D1207802285CDA00287071F6D0CF
:1058C0000120F074602206F12801184615F0F2FB61
:1058D000CBE00129FCD12078022802DAB07115F062
:1058E000BFFDC2E001293DD12078022842DAF072E2
:1058F000BBE0012936D12078F073B6E0002931D120
:1059000016F09EFC10B9FBF71DFC1DE00120F075A0
:10591000ABE0072926D10622611C02A815F0FCF98C
:1059200000950023217801AA02A809F0ADFFB0B9C3
:10593000F07A10B916F084FC10B1F07A012808D181
:105940009DF80400FBF70FFC0546502014F0C6FD3F
:105950001EE0716A9DF804200120885485E03425FA
:1059600083E0012975D1717C2078022903D0C11F01
:105970000A2902D36DE010286BD1307475E001293B
:1059800067D1B17D2078B075002908BF01286CD19E
:10599000FBF762FB69E001295BD12078052858DA22
:1059A000307562E0012954D12078022851DC0028AA
:1059B0004FD07074022803BF1020307401200020E3
:1059C00016F086FB51E0012943D1207814F0B2FF94
:1059D0004BE0707900283CD1602908D1002C38D0E8
:1059E00060222146184615F065FB012004E00129DC
:1059F0002FD1002C2DD02078F07436E0012928D149
:105A00003CB320781C4908702FE011BB16F018FC3D
:105A100030B9FBF73EFC0546502014F05FFD24E052
:105A20000120307621E0012913D12178022910DAF2
:105A3000012904BFB078002816D0B174084615F0CB
:105A400017FD12E0012904D120780228B8BF707533
:105A50000BDB182509E00F2806DA022904D121887A
:105A600011F080FD054600E00225284605B0F0BD96
:105A7000B41C0020803E00207541002086492DE99D
:105A8000F043864C864E20700A22002008600D23C9
:105A900084484FF40A7102704380818085B0824847
:105AA0000660B77E81480770FF2FF17E4170327F1C
:105AB0008270737FC370B57F0571F67F467108BF32
:105AC000FF2914D1FF2A08BFFF2B10D1FF2D08BFDB
:105AD000FF2E0CD176490A7802704B7843708A7891
