:10000000003C012045820100018E0100018E0100AB
:10001000018E0100018E0100018E0100018E0100A0
:10002000018E0100018E0100018E0100018E010090
:0C003000018E0100018E010065B6000089
:04003C0000000000C0
:1000400090B005F0EDF8DFF878BE0BF104015846EA
:1000500014F0B0FD0BF118001AF01BFDDFF8643E40
:10006000CBF8080000200021802906D04FF6FF724F
:100070005A525A181031D060F6E7DFF84C0E11F0E2
:1000800027FFDFF8480EDFF8481EDFF8485E002241
:1000900015234FF0000A00901020A84744F2682072
:1000A000FB211B224FF4A473CDE90010DFF8281EBA
:1000B0001020A847DFF8241E1020A8479BF8001046
:1000C000DFF81C4E5020A047DFF8181E0246102013
:1000D000A847DFF8141E102001224FF00108A8479E
:1000E000DFF8081E10204FF0FF32A8471AF0E4FE98
:1000F000DFF8FC1D02461020A8470DF0CFF8DFF80E
:10010000F49DDFF8F41D102009F12002A847DFF864
:10011000EC1D102000220023A8471AF0CDFEDFF8C6
:10012000E01D02461020A8471AF0C6FE0346DFF87D
:10013000D40D02210822CDE90010DFF8CC1D1020DB
:10014000A8474FF0FF30002115F00EFADFF8BC4D44
:10015000C9F80C0000214FF0FF32204619F008F9D1
:10016000D9F80C00DFF8A83D2146052217F04CFF16
:10017000DFF8A01DD9F80C00DFF89C3D00220978BB
:100180001AF0A9F808A8811C083005910490DBF842
:10019000040000214FF040424FF0FF330CF0CAFC46
:1001A0000028F4D00746CDF818A007A80DF11F01CC
:1001B00006AA17F086FD002840F0F680BDF81C0066
:1001C000102840F0EC809BF800009DF81F10814241
:1001D00040F0E580069D4FF6FF712888884200F0C8
:1001E000DF80C1B2912900F04883B02900F0BD80C2
:1001F000D02940F0D580A878072800F26383DFE893
:1002000010F00800CE00CE00CE00CE00FF03350473
:10021000DF03DFF8881DDFF8882DDFF8B84C1020E9
:100220000023A047DFF87C1D10204FF48602A04772
:100230004FF44870DFF8701D01220123CDE9000062
:100240001020A0470620DFF8641D0022ADF8200032
:10025000102008ABA0470DF13F06DFF8501D10201D
:1002600001228DF83F803346A047DFF8401D102063
:10027000062233468DF83F80A04740F60200DFF8A3
:100280002C1D0322ADF82000102008ABA047DFF89A
:10029000206D502001220223009010203146A047FB
:1002A000502031460122032300901020A047A88847
:1002B00043210022ABF80200DFF8500C19F058F887
:1002C000DFF8502CD9F80C00DFF8E83CDFF8E84CF8
:1002D0001178164600220331C9B2A04731781AF0CE
:1002E00096FDDFF8A03C043100920022C9B2A0477D
:1002F000DFF8200CD9F80C400678A81D16F092FB08
:10030000DFF8B81CDFF8B83C0022CDE90010701D02
:10031000C1B22046DFF8A04CA047002014F084FAB8
:1003200002684946D9F80C4041F8182F8088888027
:10033000DFF8E00B0578084616F074FB0090A81D66
:10034000DFF8803C0022C1B22046DFF86C4CA047A9
:100350000920DFF8741C40F6B8320023CDE9008094
:100360000BF1200014F05EFF19E068881BF080FAA2
:1003700080B96878162840F00483DFF8981B2A7942
:10038000D9F80C00DFF8E43B097800920022013133
:100390001AF0E5FD297905F108001BF065FA069DC4
:1003A00015B128461AF0CCFD7800DFF8687B7FF5A0
:1003B000EEAEDBF8080019F0ABFE00283FF4E7AE24
:1003C000054600880138092800F2FE81DFE810F0B8
:1003D0000A006F0043001A0056017E0096005A0082
:1003E000AA003400A878010700F1BF80C00640F1E0
:1003F000EB810E201AF030F8002840F0E58116F06D
:10040000A5FDE1E199F80000D5F804A04FF000083F
:10041000002800F0B78199F80100082840F0F88022
:10042000DFF8AC1B102011F0A1FBDFF8E87A4FF0E9
:10043000000A4FF00108C7E13978D9F80C00DFF85D
:100440008C3B002202311AF08AFDDFF8841B102059
:1004500011F08CFBB8E199F80000002800F08E80C4
:10046000397899F80120D9F80C000831072AC9B267
:1004700000F2F180DFF8883B0092002219F02BFF98
:100480004321F6E06C68D44E607A48B13978D9F8E7
:100490000C00DFF8403B0022009601311AF05FFDAE
:1004A000E288DFF8341B102000230096FCE0DFF820
:1004B0005C0A04216FF0040218F05AFF3978D9F869
:1004C0000C00DFF84C3B002203317BE1A878DFF819
:1004D000F4290101545A4FF6FF718C4200F07481E7
:1004E000DFF8E01901EB0010C0681AF0EDFDDFF84D
:1004F0000C1B1020224611F039FB65E16E68A878CC
:100500008DF83FA0B178032800F25E81DFE810F09B
:100510000400FC00DD00F1003978D9F80C00DFF8A8
:10052000D83A4DE1002014F07FF909F118010622B4
:10053000064619F0E3FB002800F04681DFF8D409F5
:10054000D9F80C400778304616F06CFA0090B81DC8
:10055000DFF8703ADFF8BC791AF054FCB088A9F8DB
:100560001C003068C9F818002EE10F2019F074FF44
:10057000002840F0298117F0A1FF25E139786A6849
:10058000D9F80C00DFF8803A547803310022C9B260
:10059000009419F0A0FE002C4FF00B0108BF0321BE
:1005A00099F803000028DFF8640918BF20310422FD
:1005B00018F0DEFED9F8140008B11AF01DFDC4EBE6
:1005C00004101AF01FFD0028C9F81400064608BFE1
:1005D0000446DFF8B409846000F0F6800027BC42CE
:1005E00065D0DFF8281A10203A4608AB11F0BEFAA1
:1005F000059816F017FA014630460F221AF068FDEA
:10060000DFF88409006940F837600F360137E6E704
:10061000DAF8180009F11001042219F033FC00285F
:1006200000F0B0800BF1100630461AF07DFD044654
:100630000AF10207002C00F0888004F10800394616
:10064000062219F01FFC002840F09C8020461AF07A
:100650006DFD0446EEE7DFF83C390092002219F008
:100660003AFE10F0DDFC99F803006321002808BF72
:100670004321DFF89808042218F07AFEBBF8020044
:100680009BF80010B9F80640C9F808A089F8048062
:100690000438ADF82000502018F0B4F8DFF86419E1
:1006A00000901020224608AB11F060FA8CE0DFF8D1
:1006B0006478072C00F28880DFF8CC0808FA04F28E
:1006C000002118F055FE0134F3E70029D9F80C0099
:1006D00001BF39780131C9B200220FBFDFF80839F4
:1006E0003A780091511C1EBFC9B20022DFF8F438DD
:1006F00015E000295FD03A780091D9F80C00DFF8B6
:10070000DC38511C00225DE0002967D03A78009166
:10071000D9F80C00DFF8D438511C0022C9B219F006
:10072000DAFDDFF86C1810204FF480620DF13F0302
:1007300011F01CFA99F80000002845D09DF83F0000
:10074000022841D110F06CFC3EE014201AF05AFC53
:10075000002800F08680044608303946062219F049
:100760004DFF4FF6FF7084F81280214620829AF8E0
:100770000100A073304619F027FE99F801000130FE
:1007800089F80100DFF88C77D9F80C400AF10200F3
:100790003E7816F047F90090F01CDFF87C381AF02C
:1007A00031FBDAF818004FF0000A4FF0010858B199
:1007B0001AF022FC08E03978D9F80C00DFF820386C
:1007C000002201311AF0CBFB686808B11AF014FC62
:1007D00028461AF011FCECE540E201003978D9F81E
:1007E0000C00DFF80C38002201311AF0B8FB328817
:1007F000DFF87C17102008AB11F0B8F9002890D171
:100800009DF8210000F0FE0002287FF48AAF0498D2
:100810000021062219F0ACFD00287FF482AFD9F840
:100820000C00059C3F780390204616F0FBF80090E2
:10083000F81CDFF8C0370022C1B2039819F04BFD55
:10084000308818F0E7FF082880F03883DFF8741646
:10085000DFF8C07601EB0010A188018121684160BA
:100860005FE7DFF8B076D9F80C00DFF8A837002290
:10087000397808311AF073FBD9E5000A3E286BD0AD
:100880000F283FD0102862D00E287FF488ADA888AA
:1008900041F2054188427FF482ADDFF87806D9F84D
:1008A0000C400678A86890F90350B0F8010018F0E1
:1008B0007FFACDE90005B01CDFF884360022C1B212
:1008C0002046F4E1112800F0718115287FF467AD0E
:1008D00099F80000002800F04682DBF80C1000298F
:1008E00000F031820BF1100019F051FBDBF80C0025
:1008F0001AF082FB99F80100CBF80CA0411E89F890
:10090000011022E2A98840F2064081423FF447AD3F
:1009100042F23200814240F0BF81A978D9F80C0040
:100920001A2901BFDFF8EC1509780131C9B207BFF8
:100930000022DFF80436DFF8DC2512781FBF0091B3
:10094000511CC9B2002218BFDFF8E835AFE108201A
:1009500000210DF09FFE22E5A8780C287FF41FAD42
:10096000DFF8B015A888D9F80CA0EE7809788C1CAF
:1009700018F01EFA002E00F0BD81DFF8A0350090BF
:1009800027E229797F2900F0D7810B2900F0BA816D
:10099000132900F0CA817E2900F0C081012940F0AE
:1009A0008A812A7A122A00F01D820A2A40F0838165
:1009B000DFF860152A7BD9F80C00DFF89C35E3E4FA
:1009C000AA88DFF8AC15102008AB11F0CFF800288A
:1009D00040F0EE81DFF83C05D9F80C600078441C4B
:1009E000E8780028059800F0D481AD7816F01AF860
:1009F000DFF88035CDE90050E1B230460022D5E184
:100A000099F800002E1D6D89F0B1DBF80C00D8B10B
:100A100000F108013046062219F034FAA0B10BF1BA
:100A20001004DBF80C10204619F0B1FADBF80C10BA
:100A3000204619F0D4FCDBF80C00CBF80CA0817C2C
:100A4000058241F001018174DFF8781400208DF8EF
:100A500020000431082800F0318231F8042C4FF6D0
:100A6000FF739A4233D010310130F3E799F8000058
:100A7000AC88E0B10BF1100528461AF059FB064688
:100A8000A8B1308AA0420ED12846314619F07FFA2B
:100A90002846314619F098FC4FF6FF703082B07C42
:100AA00000F0FE00B07430461AF044FBE7E7204641
:100AB00014F08EFBDFF80C140020082800F08D8065
:100AC0000A88A24200F08B8010310130F5E721F84E
:100AD000045C32680A60B2888A8099F80310013198
:100AE00010F0F80F89F8031040F0E881DFF8D41314
:100AF00000F00700002401EB00104480043015F0E2
:100B000091FFDFF810640546D9F80C00DFF87C345B
:100B100000220095317803311AF021FA31781AF069
:100B200076F9DFF860340431009200221AF017FAE7
:100B3000DFF85404866899F8030003905FFA84FA9A
:100B4000564514D9DFF8400429460F22006950F8B1
:100B50003A0019F0D3F840B9DFF82C6408FA0AF229
:100B60000021304618F004FCB6680134E6E703982B
:100B70001C220728DFF8940388BF1F22D14318F0F6
:100B8000F7FBDFF80C1410204FF4806208AB10F074
:100B9000EDFF99F80000002800F020819DF820006A
:100BA000022800F01B8110F03BFA17E18DF82B8032
:100BB000A888ADF82000A87B8DF82A00D5F80A1087
:100BC000D5F80600CDF82610DFF8B013CDF82200D6
:100BD000102008AA10F0CAFFEAE0082508E04FF646
:100BE000FF72C5B20A8099F80310013989F8031021
:100BF00099F8000008B110F013FA082D80F05E811A
:100C0000B048039400EB0510043015F00BFFC14D04
:100C10008246D9F80C00DA4B00220024CDF800A05F
:100C2000297803311AF09BF929781AF0F0F8D54B9E
:100C30000431009200221AF092F9D3488668E5B296
:100C4000AE4212D9D04851460F22006950F8350003
:100C500019F054F838B908FA05F1CB4D00222846AE
:100C600018F086FBAE680134E9E799F803006321C8
:100C70000028A64808BF4321CA4318F079FBB9F8F9
:100C8000060003994FF0000A81427FF488AB9F4829
:100C900015F0B2FCFFF783BB9E4AAB78D9F80C0085
:100CA0001278CDE90013A54BD11C0022C9B219F06E
:100CB00012FBFFF774BB99F80420032A00F0AE8002
:100CC000022A00F09F80012A08BF03297FF462AB4B
:100CD0004FF6FF7002269BF8001089F804600F3869
:100CE000ADF820006C88502017F08CFD9D49CDE9AF
:100CF0000060DCE0EA798A49012A67D0022A60D1E3
:100D0000884963E08349EA68D9F80C00934B097875
:100D10001278013100920022FFF73ABB7D492A7A0E
:100D2000D9F80C00884BFFF72FBB7A4999F80220BD
:100D3000D9F80C00854B5AE076492A89D9F80C007D
:100D4000804BFFF721BB99F80110724AC9B2D9F85C
:100D50000C00904B0091127802F1080100221AF069
:100D6000FEF810F05DF96B49D9F80C008A4B99F840
:100D700003400022097803311AF0F1F8002C4FF0FB
:100D80006B01624808BF4B21CA4318F0F1FAFFF724
:100D900006BB15F047FEBDF83410774B002201EB7F
:100DA00081014900CDE90001E1B2304619F093FA22
:100DB00099F8000000283FF4F2AA10F031F9FFF78B
:100DC000EEBA032A584A594908BF1146584BCDE993
:100DD0000001E1B25046002219F07DFA4FF0000AFE
:100DE000FFF7DDBA4B492A7BD9F80C00584B09783C
:100DF0000092002201311AF0B2F8564815F0FCFBBF
:100E0000FFF7C8BA07292CD1298981B3EA6811886C
:100E1000A9F808105288A9F80A202AE009291CD14B
:100E20002889D0B1B9F8060018F0F4FC082845D29A
:100E300024494D4B002201EB0010E968B1F8031082
:100E400041803449D9F80C00097801311AF087F84B
:100E500040480321002218F08BFA89F804A0FFF71C
:100E600099BA01297FF496AAB9F8081004E0B9F8F4
:100E700008101A287FF48EAA00293FF48BAA0320B9
:100E8000ADF820109BF8001089F80400FF208DF8C1
:100E900026004FF20210ADF82400B9F80A00ADF8B0
:100EA000220050206C8817F0ADFC2D4900901020D6
:100EB000224608AB10F05AFEFFF76CBA19F0CDFDD0
:100EC000002000203833002037AE0100C822002067
:100ED000B13E01006D1B01000D3D0210397F011074
:100EE00005880100F16C0210F5980100B579010048
:100EF0002D6D021030220020B5940100656B0100B9
:100F0000D96C02100424002065A70000A43C002036
:100F10009DA300000E3E0020CED5010048D5010063
:100F2000A0DB01008BDB0100C0DB010022D6010049
:100F30008CD50100FCD4010073D10100B8D20100AE
:100F4000BCD801009FD90100FCD80100D7D6010010
:100F50003BD90100B83C002076D90100D6D701006A
:100F60002565021039BD0110B4D7010023D7010057
:100F7000F9DC01105FD501008CD40100D9570110B4
:100F800036D7010068D901007C3C0020DCD8010084
:100F900005CE000044D10100A8D4010089610210EF
:100FA00037740100C5690110F5F901109539011078
:100FB000D5F4011018DA0100D7A20100E9DB010025
:100FC0000CDA010000DA0100D17E01009CD601009C
:100FD0007D85010092D90100DD81010037D6010035
:100FE0005BD70100A2D5010010D701002BD801006A
:100FF000ECD8010009D801009CD801000D2B02108B
:1010000068D00100ED07021076D501004597011068
:101010002CD90100BCD301004AD9010038B586B0F3
:1010200004468DF805104FF6FF720120ADF802203E
:10103000090ADFF8B85AADF8000002238DF806104F
:101040008DF8043069462A7820461AF009FC1628E3
:1010500003D1297820461AF0FFFB07B030BD3EB51A
:1010600004000D461ED0DFF8880A006822461AF0F8
:10107000EFFBFF2815D000200090002301AA29468D
:1010800020460EF07FF860B99DF8040000F06EF97C
:10109000C00606D59DF8040000F068F910F00400C1
:1010A00000D001203EBDFEB5164615244FF6FF7256
:1010B00090420D4615D100208DF80400DFF82C7AFF
:1010C0009DF80400F97988421AD23246294600F088
:1010D0003EF800B100249DF80400401C8DF8040087
:1010E000EEE71AF0B1FB50B100F099FB40B99DF862
:1010F00004003246294600F02AF8002400E01424B7
:101100002046FEBD7CB50D46044606214C431646DE
:1011100020346A460821204617F03AFFA8B900F0AB
:1011200076F890B99DF80700002E14BF054320EA19
:101130000505E9B2814206D08DF807506A460821BC
:10114000204617F039FF012076BD002076BD2DE93D
:10115000FC41064634460623884615465C436A46EB
:10116000082104F1200017F013FF00284CD100F0F3
:101170004EF8002848D100F024FA040002D100F013
:1011800018FA41E0397AE03622468900304617F0F5
:10119000FFFE002834D1204600F051F85FEA080035
:1011A0000ED13A7A9206120E0021204618F07DFCEC
:1011B00030BB3A7A92000021204619F029FA16E055
:1011C000214600F029F858B9280004D02146002013
:1011D00000F022F810B900F00CFC15E0A0F8008037
:1011E0008178A9420CD085700DB90021018020467C
:1011F00000F025F8397A22468900304617F0DCFEE7
:1012000000F0F7FB012000E00020BDE8F681062297
:10121000FF21684618F049BC70B5DFF8D0381D7A58
:10122000002200E0521CD4B2AC4206D231F8246055
:101230008642F7D101EB840070BD002070BD10B56F
:101240000021DFF8A8280AE030F82130DB4320F83D
:10125000213000EB8103491C9C78E4439C70137A95
:101260009942F1DB10BD2DE9FE4FDFF880480646BC
:10127000207A0F4691469A46800019F09DFB5FEA5E
:10128000000803D100F095F90A206DE00C9D02974B
:101290004FF0060B37461BFB07FB029A08210BF1A8
:1012A000200017F089FE8DF80400304600F099F810
:1012B000227A00F079F99DF8040000904246217AE4
:1012C000890006F1E00017F077FE009E02990643C0
:1012D000206A082200EBC70019F090F9F5B110223E
:1012E0000021284618F0E1FBC0B902998879002353
:1012F0002A4600F001001AF0A3FA00281CBF9DF94D
:101300003C00002803D0DFF8EC17012008702A46C3
:1013100010210BF1230017F04FFE06435FEA09028C
:1013200005D01C210BF1210017F046FE06435FEAB1
:101330000A0205D01C210BF1220017F03DFE0643E6
:101340000D9A4AB110210BF1240017F035FE064327
:101350000EAA00F031F90643A07D08B100F094FA1E
:10136000404619F031FBF0B2BDE8FE8FE0B5062330
:1013700058436A460821203017F00AFE10B99DF83C
:1013800007000EBD00200EBDDFF8600700780821C1
:101390000CF028BF38B50025DFF8504718E0206A68
:1013A00006236B4300EBC5022033082198B217F0E7
:1013B000EFFD58B1206A0622FF2100EBC50019F0AD
:1013C00027F9206A00EBC5010022CA716D1CEDB23D
:1013D000E1798D42E3DBA07D10B1BDE8314053E2FD
:1013E00031BDF8B5DFF80417DFF80C37C9791E688E
:1013F0000C460A4600E02A46D5B23DB1551ED2B28F
:10140000324412F8017C8742F5D12C46E4B22046E2
:101410004D1E07E01718165C7F7817541A680244AF
:10142000401C5670A8421A68F4DBAC4204DABDE8EE
:10143000F840052017F0C0BDF1BD70B50024DFF8FD
:10144000AC5600E0641CE879E3B283420BD22B6A0D
:10145000E6B20622FF2103EBC60018F026FB0028A7
:10146000F0D0E0B270BDDFF89426117839B1DFF822
:10147000880601680C78204600F013F8204670BDFD
:1014800038B500200024DFF8645603E0E0B200F035
:1014900008F8641CEA79E1B2914201D20100F5D06A
:1014A00032BD2DE9F84F4FF0060B1BFB00FB8EB051
:1014B00081460BF1200501AA0821284617F068FD96
:1014C000002868D10622FF2101A818F0EEFA0028B2
:1014D00061D100F076F85FEA000803D100F069F806
:1014E0000A205AE01C22FF2103A819F091F83A7A49
:1014F00000F05AF80BF123060AAA1021304617F023
:1015000047FD60B91022FF210AA818F0CEFA30B9C1
:101510009DF80A0001A900F001001AF08DF90822D7
:1015200000F03EF801AA0821284617F045FD0546BF
:1015300003AA1C210BF1210017F03EFD8DF80000DD
:1015400003AA1C210BF1220017F036FD044603AA62
:101550001021304617F030FD064603AA10210BF18A
:10156000240017F029FD824603AA00F025F89DF813
:1015700000100D43254335434AEA0505397A0543F2
:101580004246890009F1E00017F016FD0543404688
:1015900019F01AFA00E0002528460FB0BDE8F08FD8
:1015A000FF2101A819F034B89200FF21404619F03C
:1015B0002FB8042017F0B2BA04210BF1250017F060
:1015C000FBBCDFF82875387A800019F0F5B92DE9F1
:1015D000F84187B0FF208DF80000DFF81055E8795A
:1015E00019F0EAF9040003D1FFF7E3FF0A2030E025
:1015F0001022FF2103A819F00BF8EA79FF212046F9
:1016000019F006F80622FFF7CBFF03AA10210220EB
:1016100017F0D2FC064603AA1021032017F0CCFCD9
:1016200006436A460121042017F0C6FC0746E97903
:101630002246052017F0C0FC054601AA0621062017
:1016400017F0BAFC804600F0D4F93E432E4348EA36
:10165000060008B0BDE8F081DFF8901440880978F2
:1016600017F046BCF0B5A9B006460D4614461AF070
:10167000EBF808B91420A6E0A4220021684618F06F
:10168000C7FFADF80060DFF86464F078F17B279A5B
:101690008DF804005208307C8DF8A0004B0801F052
:1016A000010040EA420222F0020203F0010342EA92
:1016B0004302080922F4807200F0010042EA00228D
:1016C000480922F4007200F0010042EA4022880931
:1016D00022F4806200F0010042EA8022890822F0B0
:1016E000040201F00101707C42EA81022792022883
:1016F0000CBF012000200DF1260778741AF098F82D
:10170000412807DB707C00B108209DF89910084340
:101710008DF89900F07CB8B10121B974202206F14E
:1017200088010DF1390018F069FF202206F1A801A7
:101730000DF1590018F062FF202206F1C8010DF1E9
:10174000790018F05BFF00E0B874707B8DF805003D
:1017500090B1DFF8AC73102207F110010DF1060013
:1017600018F04CFF9DF89900082805D11022394641
:101770000DF1160018F042FF307B8DF8260030B1D5
:101780001022DFF880130DF1270018F037FF3079B1
:1017900048B1022D18BF032D03D1279840F0020055
:1017A0002790012100E000219DF899000143B078C5
:1017B0008DF8991000B1042001438DF89910684606
:1017C00021461AF031F829B0F0BD2DE9FC4115464B
:1017D00015244FF6FF72904288460ED10027DFF89D
:1017E0000C63F179F8B2884216D22A464146FFF7D7
:1017F00089FC00B100247F1CF3E71AF025F850B1F2
:1018000000F00DF840B99DF804002A464146FFF764
:1018100079FC002400E014242046BDE8F681002174
:1018200000910023417901AA01F00101801D0DF012
:10183000A9BC70B504460D4606204543082B88B068
:10184000164603D1300758BF223500D521351C225A
:101850000021FFF7A6FE01AA1C21284617F098FBDD
:1018600080B99DF81E00C01F0A280BD29DF83000D9
:101870000090F20801AB02F0010206F001012046DF
:1018800019F023F908B070BD38B519F0C9FF00246C
:10189000964D0FE0286A0622FF2100EBC40018F0E5
:1018A00004F928B9286A00EBC401887919F0B4FF5B
:1018B000641CE4B2E8798442ECDB31BDF0B5924DB2
:1018C0000646686885B04FF6FF7438B90095022364
:1018D0008E4A2146012019F09BFF6860696819B3A0
:1018E0000222FF2002920023039001930DF11207C0
:1018F0002A88009704AB304605F0BEFC60B99DF81D
:1019000010009DF8111000EB0122100004D068684F
:1019100041893046FFF7C7FB2A88686800232146C3
:1019200019F072FF686008B9012000E0002005B0DE
:10193000F0BD3EB50C46002501460095002301AAE6
:1019400020460DF01FFC38B99DF80400FFF70EFD8E
:10195000C00601D401203EBD00203EBD2DE9F0416E
:101960006B4F3C6806468846154603E02089B04226
:1019700024D02468002CF9D10C2019F01DF80400A3
:1019800019D0268184F80A8000202060E07245B1D9
:101990000821284618F084FA606018B900F029F888
:1019A0000AE06060396811B93C6004E001460868EB
:1019B0000028FBD10C600CB9152018E019F020FFAD
:1019C00008B1002013E00120E0722A46414630466B
:1019D000FFF748FE04464548C06900281CBF43681D
:1019E000002B03D000220021304698472046BDE856
:1019F000F081204618F0E8BF38B505464448046831
:101A000003E02089A84204D02468002CF9D10120E9
:101A100032BDE07A012807D100F05CF820B13348EC
:101A2000007804210CF0DEFBE17A491CE1722846C3
:101A3000C9B200F002F8002032BD38B502290446D0
:101A40002A4D02D003290DD01EE042F6C921FFF72E
:101A5000E5FA02001CBFE869002818D04368B3B15A
:101A600005210CE042F6A621FFF7D8FA01001CBFC1
:101A7000E96900290BD04B684BB10246042120468E
:101A800001B0BDE830401847BDE8324000E031BD4C
:101A900010B51F4A1468002101E0214624686CB18A
:101AA00023898342F9D1206800290CBF10600860A7
:101AB000606808B118F088FFFFF79BFF002010BD99
:101AC000024604201249096819B10B899342FAD1E0
:101AD000C87A70470E48006828B1006818B1C17A0A
:101AE0000029FAD17047002070470000741A0020C6
:101AF000680F0020073E0020983D0020063E002091
:101B0000E43A0020143B00204C3D002032DC010070
:101B10009C3D002038B584B0044619F095FE06229D
:101B2000417901F001018DF80E10811D02A818F015
:101B300065FD0020009000239DF80E1001AA02A868
:101B40000DF020FB9DF80400FFF7ABFC05460521D6
:101B5000204619F051FE284605B030BD2DE9FE4F54
:101B6000DFF808687168019119B9BDE8F74F19F0FD
:101B70003FBE0978DFF8F897DFF8F87746F2A81546
:101B800041F64C58012918BF02290DD0042918BF6D
:101B9000082909D0102918BF202905D0402918BFCD
:101BA000802900F0E481D9E319F0C4F80028FAD0C4
:101BB000012015F0A7FF20B1012015F0DBFF15F083
:101BC00069FF082015F09EFF20B1082015F0D2FF14
:101BD00015F060FF102015F095FF20B1102015F0D2
:101BE000C9FF15F057FF0198007802F093F80090B4
:101BF000002460B1007801281CBF0828102802D1F9
:101C00000098446803E0009815F044FF0446DFF8AC
:101C100068174878002800F0088119F065FA18F074
:101C2000E3FC8246DFF85017DAF800000190D0F8A4
:101C300004B09AF80600C8700CB9022504E00199B6
:101C4000009819F04FFA05460099EAB2504619F08B
:101C50000BFAA84203D0032800F085830546022D25
:101C600000F0B48000980178012908D0022912D030
:101C700004295DD008290CD0102955D06EE325B970
:101C800019F0B2FD8044C4F808800120B070112121
:101C900041E1082011E105203870DDB919F0A4FDFB
:101CA0008044C4F808806169A268DFF8D006036840
:101CB000DD69DFF8CC361B78A81D03EB8303C55A1A
:101CC00040F6C41000FB05220A62A068DFF8AC16DB
:101CD0000A6810615246DFF8A4060168CB69DFF894
:101CE000A0160D78981D05EB8505415B00980EF058
:101CF00051FF61696269D27F02F0EF02CA77002862
:101D000061696269D27F42F08002CA770CBF01210B
:101D1000022162696369DB7F03F0F0031943D17725
:101D20006169486202204FE0B1701320387049E2C7
:101D300006213970DDB919F057FD8044C4F80880D8
:101D40006169A268DFF83C0603685D69DFF8383630
:101D50001B7805F10C001B01C55A40F6C41000FBAE
:101D600005220A62A068DFF81C160A68D060DFF856
:101D700014562868007C0FF00BF928684169DFF8D9
:101D80000806057801F10C032D010098595B5246B5
:101D90000EF000FF61696269D27F02F0EF02CA773C
:101DA000002861696269D27F42F08002CA770CBF65
:101DB0000121022162696369DB7F03F0F0031943AB
:101DC000D177616948620420B070FBE10198017825
:101DD00080290DD10820DFF8B41538700A78DBF8B7
:101DE0001400012A1ABFD9F824100978012114E03F
:101DF000072038709AF8060018F096FD0446207BFC
:101E0000C10700F1DE80DFF884050178DBF81400FB
:101E100001291CBFD9F824104978C1729AF806002C
:101E2000DFF854158870019894E2009800282DD0AE
:101E300001460122002019F017F9032815D0009857
:101E40000199009A0078DFF83CA5914212D101284F
:101E500009D002280DD0042800F08380082802D081
:101E6000102806D002E0002C03D17CE2002016F0FE
:101E700055FEA7E1012840F6C41908D002281FD05A
:101E800004284AD0082816D0102840D066E2002C3A
:101E9000EBD019F0A9FC0146A068691817F06AFD9B
:101EA00020B919F0A1FC8044C4F8088011203870D2
:101EB0000121B17086E1002CD7D0B07012212AE048
:101EC000052038700222B27019F08EFC0146A0681D
:101ED000691817F04FFD08B100F074B919F084FCCF
:101EE0008044C4F808806069A168DFF89024136812
:101EF000DD69DFF88C341B78AE1D03EB8303F55AE4
:101F000009FB05110162A068116808615AE1002C03
:101F1000ABD0B0701321397054E106203870042220
:101F2000B27019F061FC0146A068691817F022FD33
:101F3000B8B919F059FC8044C4F808806069A168F8
:101F4000DAF800205369DFF84024167803F10C0515
:101F50003601AB5B09FB03110162A068DAF80010DF
:101F6000C860DAF80000007C0FF012F82AE1DFF810
:101F700008144878002800F04D8119F0B5F818F0E1
:101F800033FB8246DFF8F013DAF8000002900222F9
:101F9000D0F804B09AF80600C8700021504619F035
:101FA00063F8022801D0032816D00198017840294F
:101FB00013D19AF8060018F0B7FC0446207BC1073D
:101FC0000BD59AF8060018F00FFB052116F0A4FFB8
:101FD000207B00F0FE002073C5E118F0A5FE10F094
:101FE0001F0F3ED0012015F08DFD20B1012015F00E
:101FF000C1FD15F04FFD082015F084FD20B108202B
:1020000015F0B8FD15F046FD102015F07BFD20B150
:10201000102015F0AFFD15F03DFDB07801F07AFE0F
:102020000090007801281CBF0828102802D10098D1
:10203000456803E0009815F02DFD05460DB9022412
:1020400004E00299009819F04DF80446022200219C
:10205000504619F009F8022802D00328BCD00446E3
:10206000022C00F0B48000980178012908D00229E0
:1020700017D004295FD008290ED0102956D0A3E02C
:1020800024B919F0B1FB8044C5F8088011203870DC
:1020900001210098B1705DE10820B0701221397003
:1020A00090E005203870B64FDFF8D092BCB919F037
:1020B0009BFB8044C5F808806969AA68D9F80000CC
:1020C000C36938789C1D00EB8000235A40F6C41089
:1020D00000FB03220A62A868D9F800100861524682
:1020E000D9F80000C16938788B1D00EB8000195ABF
:1020F00000980EF04FFD69696A69D27F02F0EF0225
:10210000CA77002869696A69D27F42F08002CA777B
:102110000CBF012102216A696B69DB7F03F0F003C8
:102120001943D1776969486202204AE01020B070F3
:102130001321397046E006203870934FBCB919F06E
:1021400053FB8044C5F808806969AA688D48036814
:102150005C693B7804F10C001B01C45A40F6C410C2
:1021600000FB04220A62A86886490A68D060854C90
:102170002068007C0EF00CFF20684169387801F17E
:102180000C0300015246195A00980EF003FD6969CC
:102190006A69D27F02F0EF02CA77002869696A692A
:1021A000D27F42F08002CA770CBF012102216A6906
:1021B0006B69DB7F03F0F0031943D17769694862EB
:1021C0000420B0700098C5E0002016F0A7FC02992A
:1021D0006E480A78802A0BD10821397000780128CE
:1021E000DBF814001ABFD9F82410097801210AE09D
:1021F00007223A7000780128DBF814000EBF012195
:10220000D9F824104978C1729AF806005A498870A2
:1022100002989FE018F088FD10F01F0F3AD00120BF
:1022200015F070FC20B1012015F0A4FC15F032FC73
:10223000082015F067FC20B1082015F09BFC15F074
:1022400029FC102015F05EFC20B1102015F092FC46
:1022500015F020FCB07801F05DFD814699F8000092
:1022600001281CBF0828102802D1D9F8044003E037
:10227000484615F00FFC044699F80000012840F686
:10228000C41A08D0022817D004283CD008280ED041
:10229000102833D067E0002C65D019F0A5FA8044EF
:1022A000C4F80880112038700121B17051E0002C71
:1022B00059D0B070122124E00520387019F094FA3A
:1022C0000146A068691817F055FBA8B919F08CFAF7
:1022D0008044C4F808806069A168284A1368DD69F1
:1022E000274B1B78AF1D03EB8303FD5A0AFB051137
:1022F0000162A06811680861022029E09CB3B070F7
:102300001321397025E00620387019F06DFA014666
:10231000A0681C4F691817F02DFBA0B919F064FADA
:102320008044C4F808806069A1683A685369164A15
:10233000127803F10C051201AB5A0AFB031101627A
:10234000A0683968C8603868007C0EF021FE04205F
:10235000B0704846BDE8FE4F18F0F2BCBDE8FE4F35
:10236000002016F0DBBBBDE8F78F00BF1C3D00204E
:1023700028D00100C80F0020780E0020500F002048
:10238000D80F0020540F0020D90F0020CC0F0020C0
:102390002DE9F04F054687B0A978DFF8DC66002705
:1023A00010294FF0060A3CD8DFE811F01100610354
:1023B0006103610361033C00CB0061036103C5025B
:1023C0001101FC00160361039702DC0259036878CF
:1023D000002826D119F004FA044619F0FDF9054643
:1023E00016F05AFB8DF8000022461021022016F04C
:1023F000E3FD2A461021032016F0DEFD6A46012186
:10240000042016F0D9FD9DF80000012818BF03280C
:1024100007D1012012F008FA02460621062016F024
:10242000CBFD24E368780028FBD195F80CB06C89CB
:1024300000900023E97801AA01F00101281D0CF0A9
:10244000A1FE00284FF0010871D19DF80400FEF7AD
:102450008DFF8146BBF1080F08BFB846307A800077
:1024600018F0AAFA050003D1042016F057FBFEE28B
:10247000707802280CBF0120002000905B469DF878
:1024800004104A462046FFF7D4F91422002102A87E
:1024900018F0BEF89DF804001AFB00F002AA102103
:1024A000243016F075FDA8B91022FF2102A817F0FC
:1024B000FCFA78B99DF804001AFB00FA06AA042178
:1024C0000AF1250016F064FD02AA09F00101204678
:1024D00019F07EF9317A9DF804002A468900E0302F
:1024E00016F056FD98B92846FEF7A9FEBA4609E04F
:1024F00005EB8000018819B18278204617F00AFAAE
:102500000AF1010A317A5FFA8AF08842F0D3B07A90
:1025100030B95FEA897003D53178204616F0E8FCBF
:102520009DF80400FEF75DFF284618F04DFA70781C
:10253000022805D1B8F1000F02D0204612F088F829
:1025400095E2A888FFF7A4FA19F03EF90028F7D120
:10255000F07D012808D1FEF793FFF279706AF775D4
:10256000002118F055F817E0307E012803D1FFF75D
:102570002EF8377610E000240AE0706AE5B2415D7B
:10258000012904D1E0B2FEF78CFF716A4F55641C3B
:10259000E0B2F1798842F0D3502017F02BFAFEF721
:1025A000F9FE64E219F02CF900280CD0F06900283B
:1025B0001CBF0468002C07D0286900906B7B2A7B25
:1025C0006989E81CA04751E26889012144E26878E2
:1025D0000024002840F0DA80A879C10740F1D680B5
:1025E0000822002105A818F013F8A88819F02CF982
:1025F000040000F08E806F694FB30622002107F1BE
:10260000110017F052FA68B310220021384617F073
:102610004CFAD0B9387C00F001084FF0000909F1FC
:10262000010987F811900020009000230022414604
:1026300007F111000CF0A6FD00285FFA89F002D125
:102640000028ECD101E000280CD1002068610622AE
:10265000607900F001008DF81A00A11D05A817F09F
:10266000CDFF1FE06F69EFB1387C00F001008DF8FD
:102670001A00062207F1110105A817F0BFFF6079C3
:10268000012805D10622A11D04F10C0017F0B6FFA8
:10269000062207F11101A01D17F0B0FF387C40F0B1
:1026A00002006071A879410720794CBF40F0020018
:1026B00000F0FD002071A9790A0754BF00F0DF0087
:1026C00040F020002071A8799DF81B10DFF8AC8342
:1026D000800800F0010008438DF81B004FF0FF094F
:1026E000A979C90801F0010140EAC1008DF81B0079
:1026F000FF2469691E2779B31022684617F07EFF10
:102700001021684619F05CF84FF0000BDFF8709369
:102710000CE0FFF7DFF90028D5D0307804210BF06A
:1027200061FDD0E70BF101005FFA80FB99F8000032
:10273000834510DAD8F8001007FB0BF00A5CFF2A7B
:10274000F0D0084400F10D011022684617F09AFB02
:102750000128E7D15C46A1460020009000239DF8A7
:102760001A1004AA05A80CF00DFDB9F1FF0F5CD0FA
:1027700034285AD1707D30B3012856D1A88805215C
:1027800019F03AF80124A888FFF782F968780B2835
:1027900004BFA888FFF7BEF9F06900281CBF436892
:1027A000002B0FD06A78A888012198476878002804
:1027B00008D1A879C10705D5F369A88822465C68C5
:1027C0000321A0474BE1D8F80000002107FB09F4E2
:1027D00000910023015D401C04AA20440CF0D2FCAF
:1027E00018BB9DF81000FEF75CFEF0B9FEF7D2FDB5
:1027F000FEF723FE8DF81000E86800280CBF0021CA
:102800000169002201900392029105A96869009074
:102810002B69AA689DF81000FEF725FD0446A888DC
:10282000FFF74CF8200046D14BE000200090002339
:102830009DF81A1004AA05A80CF0A4FC20B1FEF71C
:10284000FCFD8DF8100019E06869B8B19DF8100022
:102850001AFB00FA6A4610210AF1230016F098FBD1
:1028600060B91022FF21684617F01FF930B99DF8B2
:102870001A0005A900F0010018F0DEFF9DF8100015
:10288000F179884227D2E86800280CBF002101694D
:10289000002201900392029105A9686900902B69BA
:1028A000AA689DF81000FEF7DEFC0446A888FFF732
:1028B00005F8200005D09DF81000FEF7F2FDFEF7A8
:1028C00069FD200008D1707A0028A8887FF45CAFE9
:1028D000FFF792F85AE7152455E7687806281FD1C4
:1028E000A88818F0B1FFD8B1317D491E032917D847
:1028F000DFE801F0020E08134179A8880022FFF7F3
:102900002DF80DE00022002140F2094002F040FFC6
:10291000A888052118F070FF02E0A888FFF7FAF8F0
:10292000F06900281CBF4368002B03D06A78A88890
:10293000022198479AE000970023E97801AA01F064
:102940000101281D0CF01EFC0028F3D19DF80400A5
:102950001AFB00FA05F10C0204210AF1250016F019
:102960002BFB83E0F06900281CBF4368002B03D0D9
:10297000A888002200219847707810B9A8880521FE
:102980006AE0A88818F060FF040070D0A87AC10738
:1029900012D5009700236179002201F00101A01DEA
:1029A0000CF0F0FB00281EBF60790028012803D03E
:1029B000E868C0F3402028B1707C022807D1A87ACB
:1029C000010704D4A888032118F0F6FE4FE06179CE
:1029D000A88805F1080227E02F7BAD88284618F06B
:1029E00033FF040042D018F00BFF00283ED10090C6
:1029F0000023617901AA01F00101A01D0CF0C2FBC6
:102A000028BB9DF80400FEF7B1FC07F00C07042F6B
:102A100011D0082F0BD00C2F0FD100F0090109297C
:102A20000BD0617900222846FEF798FF1EE010F0D7
:102A3000090F02D1F5E7C107F3D501220092A37C6B
:102A40009DF8041002462846FEF7F3FE0EE070786B
:102A50000028E6D10521284618F0AEFE06E0FFF773
:102A600039F818B1307804210BF0BCFB0127384647
:102A700007B0BDE8F08F00BF741A0020680F002077
:102A8000013E00202DE9F04F85B00D460295044629
:102A900015F8011B8DF801100022DFF8E414887886
:102AA0008DF8002004F1660B17F03EFF01902C21F9
:102AB0009DF80100DFF8CC24032804F1F40604F5A6
:102AC000B07A04F59C7704F5C87804F2171900F081
:102AD000E180072800F01382082818BF092811D0C8
:102AE0000C2800F0D7810F2811D0112800F0448164
:102AF000182800F092811A2800F057811B2800F056
:102B00007C811AE22946204611F068FA15E2707AB3
:102B1000DFF8748481070AD40F2089F80200204668
:102B200018F046FE002872D198F80000DCE1287801
:102B3000697800EB01223A82A878E97800EB01225B
:102B40007A822879697900EB0122BA82A879E97939
:102B500000EB0122FA82287A3876697AA87A01EBAA
:102B600000227A83E87A297B00EB0122BA83687B12
:102B7000A97B00EB0122FA83E87B297C00EB012290
:102B80003A84687CA97C00EB01227A84E87C297D68
:102B900000EB0122BA84687DA97D00EB0122DFF8F9
:102BA000EC03FA8401788A0658BF4FF01A0A13D54D
:102BB00004F5AA700490798B0391387E02902189E4
:102BC0000191F88A0090BB8A7A8A398A204618F0E7
:102BD000EBFDE8B14FF01E0A707A41070AD40F20CE
:102BE00089F80200204618F0E3FD00280FD198F87C
:102BF000000079E152460F21204618F0D1FDF88AF5
:102C00000090BB8A7A8AA179504612F089FB72E162
:102C100004F18600798A81800023BA8AC280022268
:102C2000F98A018102704380A18EC91DABF81E1084
:102C3000628E8188B1EB520F02BFC188A28E914291
:102C400002BF0089E18EB0EB111F21D09BF810006C
:102C5000012804BF9BF811000F280CD09BF8150029
:102C600000281CBF9BF811001A2804D00F218BF8F4
:102C70001A10FE217CE0FC21204618F08DFDF88A18
:102C80000090BB8A7A8A398AA07918F081FD32E1F6
:102C900010216DE0707AC10709D431781A2001291A
:102CA000707002D1FF220D213DE00D2160E0002077
:102CB0008BF800008BF806000122327129460822A9
:102CC00004F1B00018F060FD0146022204F1B800E2
:102CD00018F05AFD04F1A80501460822284618F00C
:102CE00053FD07460821284618F06AFD04F19C05AB
:102CF00004223946284618F047FD0421284618F0DA
:102D00005FFD04F1A00018F03BFD04F1980018F0FD
:102D100033FD9F48018841F080010180307801280F
:102D200005D1FF220421204618F022FDE3E09BF8A4
:102D300011600F2E18BF142E07D00E2E18BF0C2EA8
:102D400003D01A2E18BF162E11D19BF81070FF2237
:102D50000421204618F00CFD012F06D18BF81A60D3
:102D60001A2E14BFFD21FB2102E0314600E00421B0
:102D7000204618F011FDBEE028788AF800001A28D5
:102D80006B788AF8013040F0D8801068A679431C2F
:102D90004E4300209855A379126811FB03F11144AA
:102DA0000871A1799AF80100C0E0A77910682E781F
:102DB0004F43074406F01F0317F8210FB60938B137
:102DC0007878F040C00703D598F80600042805D1AC
:102DD00020221A21204618F0E3FC8CE0FB701068DA
:102DE000A27911FB02F10144204681F82360002101
:102DF00018F044F90028F0D174E0A37910684B432F
:102E00000344D88808B900265E701068A27911FBC7
:102E100002F10144002008716DE069782878884249
:102E200004BF084010F0070F6DD19BF81100162861
:102E300006D198F80620A179134600200BF06CF912
:102E4000022088F80200012101984177012398F8B7
:102E5000060098F80A1088F80000BAF81C2018F04C
:102E600083FCBAF81810814209D3BAF81C2098F8EC
:102E70000A1098F80000012318F076FC0146AAF821
:102E80002E10012198F8080040F0400088F8080052
:102E9000397030E0707E012810D015F8011B3177B1
:102EA0000222294604F5897018F06EFC01460222C0
:102EB00004F58A7018F068FC012070769BF8060013
:102EC00030B93D21012289F8011089F8002012E073
:102ED000F07E002804BFB07E00280CD1204618F0F8
:102EE0003FFC30B9284800784FF480410BF07AF964
:102EF00001E00120F07601218DF8001021E0287812
:102F00000F2816D01A2818D1A079136848431844FE
:102F100000234370A079126811FB00F1501803716F
:102F2000F07A00F0FB00F0721A20A1790AF00DFB94
:102F3000E1E7707A00F0FD0070722046029918F007
:102F40000BFC9BF811001A2815D19BF812001728CA
:102F50001CBF1028FC280ED19BF81060204618F0EA
:102F6000F7FB012E03BF1A208BF81A00FB211A2150
:102F7000204618F011FC9DF8000005B0BDE8F08F68
:102F8000780E0020703D0020C70F0020200E00208A
:102F90009C0F00202DE9FE4FDFF844B4DFF84474A5
:102FA00005469BF8000000284CD0052872D0062862
:102FB00000F07F80072818BF082800F0F5800A2855
:102FC00000F0E281112802D013286FD000E2DFF870
:102FD00018241078002118F0B7FB04001EBF606DA4
:102FE000407810F00C0F2DD0216DC0064CBF886CBE
:102FF000C86E016801F108050622A91C684617F091
:10300000FDFA287800F00F0105291BD14509694612
:10301000C0F3801018F094FB002813D0396868467C
:1030200018F08AFB0646396804F1380018F084FB72
:1030300086420DD0606D4178C80604D440F201404C
:1030400018F076FBCAE1607B40F002006073C5E1D6
:103050003B681E204643981906226946C01D17F09A
:10306000CDFA606D4178C806F1D5A17B0129EED17A
:10307000DFF878038178480605D5E90703D4206D89
:1030800041F20A4102E0206D41F204414180418356
:103090004186A3E117F0ECFF0028FAD10FF0D8FE2B
:1030A000012802D0012018F03FFB97E113F04FF9FF
:1030B00094E1DFF83C53286818F032FB0400F7D0A5
:1030C00020790328F4D1207A00F00F01072938D1A4
:1030D000DFF8200300684169497A4A1E11425CD03A
:1030E000617A04F10A035A5C02F03F02252A54DB9C
:1030F000A17A8A09012A50D111F03F0F4DD0007CEE
:1031000017F072FAE17ACA074CBF04F1110204F118
:103110000B028B0748BF921D0B0748BF921CC906C4
:1031200048BFD21C1278520916214A43B2498B1863
:103130000A31EB608A5A428699898186DA89C28689
:103140002BE000F00F00082827D1A17A880924D1AC
:1031500019B3A8480168087C17F046FAE17A0646D8
:1031600088071AD5062201F001015143601800F1C9
:103170000C01684617F042FA207AC009694618F037
:10318000DFFA50B1386800F10D01684618F0C4FA52
:1031900018B90521304615F0BFFE2079032802D06A
:1031A000002015F0BBFC0FE1944FB8780024FF28F5
:1031B0001BD017F019FA804608F16C09D9F8040001
:1031C00018F0AEFA2A460179032901D011000CD07B
:1031D0008368197801F003008D06009003D501245F
:1031E000009818B9CDE01000FAD0F7E05D7803F14F
:1031F000020A34B31AF8010B814B01902C2098F885
:1032000006C01E6810FB0CFC66444FF0010E86F8E9
:1032100005E0002A1E6898F806E006F11A0C019EE7
:1032200010FB0EFE06F01F060CF80E6098F8066004
:103230001B6810FB06F01844019BC3F38113C3768F
:103240001AD10098032808F217161AD0ADB199F8D0
:10325000000068B108F1F4000278012A0DD19BF852
:103260000020072A04D0082A04BFC078012804D10E
:103270003D21717001203070B0E0624A1378012B5B
:10328000FAD098F8940000283CD030782D1F0128FF
:10329000EDB2F1D053462A4640460EF02DFB0028F1
:1032A0001EBF59490878002813D13D2171700120B3
:1032B000564A3070117801290AD1554C20784FF4C4
:1032C000805114F0ABFC20784FF480510AF08AFF53
:1032D00084E050480168884701904FF4D07098F816
:1032E0000620796842438818002180F8411108F5CA
:1032F0009E700168807949080FF0AEFB464901983D
:103300000A689047009803281DD04449486900780E
:1033100082070DD598F89400002814BF281D284670
:103320004A691178CA0748BFC01C1AF8000000E0BB
:10333000812089F808002A460098C3B2B87851461F
:1033400005F0A8F91DE09AF800001CB11B2804BF85
:10335000022D01251C2803D231490B5C9D4205D06A
:10336000B0700721404618F017FA0AE09BF80000F9
:1033700008285146404602D117F038FE01E0FFF719
:1033800081FBD9F8040020E0264C207830B3264D8C
:10339000286818F0C5F908B3017903291ED1017A0C
:1033A0008A0611D5807AE178C0F38112914202BF7A
:1033B000217900F01F00814206D1A078002801BFCA
:1033C000607800280121A170286818F0A1F905E0B3
:1033D000002015F0A3FB862018F096F9BDE8F78FC2
:1033E000C80F0020680F0020D50F0020C00C00205F
:1033F000BC0A0020540F0020E0070020780E0020B7
:10340000703D0020D20F0020023E0020880E0020D8
:10341000C70F00209C220020A022002028D00100FD
:10342000E0D40100043D0020AC0C00202DE9F8435D
:1034300005460C46480413D4A00024D4A0075CD44D
:1034400060057ED4200500F10681200700F13B8154
:10345000600040F1F68010F063FC24F08044F0E05E
:1034600017F08AFBDFF81C140F6D3FB1D7E90A1281
:1034700002F0E04201F00A01891849D017F05AFD24
:1034800024F48044DDE0BB48DFF8FC73016841F0C0
:1034900080010160B878012804D1042014F0CAFC2E
:1034A0000020B87017F068FB0646042017F08EFB6A
:1034B000DFF8D8130A68904219D12A7EBAB1FA68A7
:1034C000AAB1DFF8C003806C002800F09780C168C3
:1034D00040F603020988914206D0C06840F6040114
:1034E0000088884240F08A8005F1140088E040F6A8
:1034F000C4120860C5E9042284E006F0A9FEDFF8E2
:103500008403006C002840F09D8024F0020498E0C1
:10351000D7E90A65D7E90A12AA43B143C7E90A12F3
:1035200017F008FDB8680028AAD056EA0500A7D011
:10353000D7F808C03869B7F9301032462B46E04753
:103540009EE717F019FB054615F0B8FE002800F0BD
:10355000B780CC48876B002F00F0B280DFF828835B
:103560000420CB49002288F81800C64816F0C9FE8E
:1035700017F0F8FCC74817F0D1FCC7480068006B8B
:103580008047C8F810000125042088F8025014F084
:103590001DFF386990F82810C8F80400490703D5C2
:1035A000436A042100229847012011F02FFBD8F82C
:1035B000040045760CF0F0FBD8F8040081680B4657
:1035C0001A465B684BB11E88A6F60306072EF7D88D
:1035D00005FA06F616F0830FF2D0537B03F0F003E2
:1035E000013353730023FD6853602D88A5F603054E
:1035F000012D00F28A80C8F810309FE005F110001C
:1036000012F094FF304617F095FC14F0F7FE78B1F5
:103610002E6A28466FF4807100224FF00073B04785
:103620009848806B10B110F07BFB01E044F002047D
:10363000EE692846002100224FF08063B04724F055
:10364000005434B1974821462830BDE8F84317F0BC
:1036500033BDBDE8F8838C4EB078012804D1042036
:1036600014F0E8FB0020B07014F0C8FE38B17068A8
:103670006FF4807100224FF00073056AA84730692B
:1036800050B185480068006B804732697168801AC4
:10369000000BC860002030617A4D81490022284625
:1036A00016F02FFE02203076286C20B17D480221D2
:1036B000283017F001FD10F033FB24F40064C0E75C
:1036C00017F050FC41E017F057FA054615F0F6FDEB
:1036D000A0B1DFF8B48198F8000000070ED498F983
:1036E000000000280AD468460CF04CFC08B1009891
:1036F00020B1DFF8B49199F8610048B317F032FCBB
:1037000010F00EFB24F008049BE7034633F8385F03
:10371000A5B190F8445090F8456005F0F00580F8A8
:10372000445006F0F005013580F8455000255360FF
:10373000C5634587507B00F0F00050735748002266
:10374000C2610160012016F025F824F4806478E756
:1037500000260127602E0FD009EB0600817A31B1D7
:103760008772407A07FA00F0C0B214F07DFB203671
:10377000F0E700BFCC210840032088F81800454836
:1037800017F0CCFB17F0EEFB444F3E4D002278695A
:1037900000207861F968F8602846444916F0B1FDC8
:1037A0003D480068006B8047D8F80C10D8F82020FE
:1037B000411A02EB1130B0EB113F38BF4FF0FF3030
:1037C00098F82410C8F8200021B1D8F80810B0EB00
:1037D000C12F20D915F0EEFFB8B140F609004146DF
:1037E00021F83C0F002048804A7B02F0F0020132B1
:1037F0004A730A7B02F0F0020A734860F86139608C
:10380000B8F83E0010F4406FFAD00020C8F820004D
:10381000012088F8240012F07FFB25480021016078
:103820000220002115F0B6FF022014F003FB102047
:103830000BF012FF98F8010020B9D8F804005030BE
:1038400017F036FC1B48807810B90D200BF004FFF0
:1038500098F8250028B1002088F82500052014F0EC
:10386000E9FA002088F818001348C8F81C00022064
:10387000B5F85610B5F85420914208BF07200FF054
:1038800031FC3DE7041F0020001D0020182400200B
:1038900099920100A83800208C010010001004400B
:1038A00061C60000A01E0020A8350020853D010053
:1038B00000000460E8D9010051C100002DE9F04F7B
:1038C0000F46380589B018D5DFF8F4532888FF284B
:1038D0000ED0C0B216F088FE040009D0A0791621DF
:1038E00017F00EFF204616F075FE204609F002FB89
:1038F000FF20288087F40060DFE1F80504D517F089
:10390000A4FA87F48070D8E1B80604D517F080FBDC
:1039100087F02000D1E1F8070CD517F02DF830B171
:1039200000218160DFF89C03006800B1804787F0C8
:103930000100C2E1380704D517F06CFB87F00800DE
:10394000BBE1F8060FD50021002200230691059265
:1039500004910393029101920091022017F0CCFE92
:1039600087F01000A9E1B8070FD5002100230691C8
:1039700005910491039302910191009101223C2051
:1039800017F0BAFE87F0020097E179074FF01E08A2
:10399000CD4EDFF838A340F1D580CD48002200217C
:1039A00008920791007817F0CFFE0446C948817845
:1039B000FF2904BF002015F0B1F8A07A16F014FE1C
:1039C00005469AF8000095F82E91002805F5947B9D
:1039D00071D0606D807A022818BF032807D1306843
:1039E0000D3017F085FE10B93068C11D079159469A
:1039F000484617F0A5FE00283BD0606D807C3368F8
:103A0000002818BF012804D11946584617F094FE23
:103A100004E05A464946184617F01AFFFF284AD0D4
:103A200008FB00F83068404406225946C01D16F0D5
:103A3000E5FD306810F80810404400F1010B41F03A
:103A40000209C01D089009F0010185F82E11062217
:103A5000594605F5947016F0D1FDA87916F064FF6B
:103A6000060008BF15F05AF894F8B90086F83A0035
:103A700021E05946484617F037FEE0B130685A4613
:103A8000494617F0E5FEFF2815D018FB00F830680E
:103A900040440D3017F02CFE58B9306840440D30CA
:103AA00017F026FE002801BF30684044417F0129FD
:103AB00001D149F0020905F12C004B46017806912D
:103AC0004289120905920122698C0491C0880899E3
:103AD000029140080390CDF800B0079801900020B3
:103AE000A97917F009FED5F89C017B4988420CBFE3
:103AF00000210121A87917F0F3FD7848AB7902681D
:103B00002C214B43134401221A73AB7904684B43B5
:103B100023445A73AB7904684B4323449A73AB79BB
:103B200004684B432344DA73AB79006811FB03F15B
:103B30000144002008740720A97911F0A0FA87F049
:103B40000400BAE038060FD5002100230691059144
:103B50000491039302910191009101223B2017F0FF
:103B6000CBFD87F08000A8E0F8045DD55C493068A3
:103B70000C680D3017F0BCFD002844D13068C11D21
:103B80000D3017F0A9FD3EE0606D4178480704F163
:103B90003E0526D5287802281EBF0328687801280C
:103BA00030D16978306804F1380217F051FE81464F
:103BB000B9F1FF0F15D0306818FB09F948440D30F2
:103BC00017F096FD68B930684844C11D0D3017F0F4
:103BD00083FD30684844C11D062204F1380016F008
:103BE0000DFD2878022818BF03280BD130680D304E
:103BF00017F07EFD30B93068C11D062204F1300097
:103C000016F0FCFC2468002CBED13648DAF80420FB
:103C100000784FF4805112F021FE10B18E2017F081
:103C200057FD87F4805048E0B80505D517F02CF90A
:103C30002D4901200860FEE7780504D517F08EFABB
:103C400087F4806039E0780405D5812017F040FDC5
:103C500087F4804031E0B9042ED5244C206810B19F
:103C6000002014F05BFF4FF0FF3020600020204C5C
:103C70000EF04AFB216851F8202F684690471D49F5
:103C80004A6B086BC96A24681B4B01920090ADF81F
:103C9000101002936B46194A19480168194803929B
:103CA000194A07922568194AA8471949086003F07C
:103CB000E5FB87F4005000E0002009B0BDE8F08F7C
:103CC00044240020480F0020680F0020880E0020A8
:103CD000D70F0020780E00204DE50110703D002028
:103CE0004C0F0020C70F00207C052043380F002018
:103CF000200F0020941C002059A9010069A901008F
:103D00007C3D0020982F00201EFB0080EC0A002044
:103D10001C0F00202DE9F0410646FF2818BF20287F
:103D20002AD117F001F810F01F0F22D0042013F051
:103D3000E9FE08B1042016E0012013F0E3FE08B10B
:103D4000012010E0022013F0DDFE08B102200AE09D
:103D5000102013F0D7FE08B1102004E0082013F063
:103D6000D1FE20B10820BDE8F04113F003BF14F0EC
:103D7000D5FE0020BDE8F08113F0FCFE5FEA0008EC
:103D800014BFD8F804500025012E46F2A81740F6BB
:103D9000C4140BD0022E69D0042E00F0B880082E77
:103DA00000F01281102E00F05981E2E7012013F09B
:103DB000A9FE00281EBFDFF86C03006800281CBFA6
:103DC0008788BF00102013F09DFE18B3102013F059
:103DD000D1FE040002D066685EB900E00026022031
:103DE00013F090FE28B1022013F0C4FE040018BFA7
:103DF00066686DB1012013F085FE002818BF002E03
:103E000006D0B068C11BA86815F0B4FD00282BD0FF
:103E10002046AFE7022013F075FE38B1022013F000
:103E2000A9FE040014BF666800260AE0042013F00F
:103E300069FE50B1042013F09DFE040014BF6668B3
:103E40000026002DE4D0012040E1082013F05AFEA6
:103E500028B1082013F08EFE040005D053E00120A5
:103E600013F050FE002885D0404683E7022013F06F
:103E700049FE60B1AC480168AC48CA69017801EB01
:103E800081015318D88804FB00F707F51667042052
:103E900013F038FE38B1042013F06CFE040014BF98
:103EA0006668002622E0082013F02CFE98B1082056
:103EB00013F060FE040002D06668BEB900E0002680
:103EC000012013F01FFE88B1012013F053FE0400FF
:103ED00018BF66680AE0012013F014FE50B10120FB
:103EE00013F048FE040014BF66680026002D8FD032
:103EF0000220EBE0102013F005FE30B1102013F08B
:103F000039FE0400B0D06068EBE00220A8E704208E
:103F100013F0F8FD58B18648016886484A6901786F
:103F200002EB0113988904FB00F707F516670820D8
:103F300013F0E8FD98B1082013F01CFE040002D035
:103F40006668DEBB00E00026012013F0DBFDA8B3AD
:103F5000012013F00FFE040018BF66682EE0012058
:103F600013F0D0FD38B1012013F004FE040014BF9B
:103F70006668002622E0102013F0C4FD98B11020DE
:103F800013F0F8FD040002D06668BEB900E0002618
:103F9000022013F0B7FD88B1022013F0EBFD0400FE
:103FA00018BF66680AE0022013F0ACFD50B1022091
:103FB00013F0E0FD040014BF66680026002D23D036
:103FC000042083E004204BE717F048F808B1D0F84C
:103FD0009070042013F096FD38B1042013F0CAFD50
:103FE000040014BF6668002632E0012013F08AFD49
:103FF00058B1012013F0BEFD002D044604D0082066
:1040000013F080FD00286ED102E7102013F07AFD36
:1040100098B1102013F0AEFD040002D06668BEB95E
:1040200000E00026022013F06DFD88B1022013F09D
:10403000A1FD040018BF66680AE0022013F062FDCB
:1040400050B1022013F096FD040014BF66680026EC
:10405000002DD9D0082039E0082001E7032016F010
:10406000FFFF08B1D0F89870022013F04BFD38B173
:10407000022013F07FFD002D0446C5D01020BFE7BD
:10408000042013F03FFD38B1042013F073FD040049
:104090000CBF0026666816E0082013F033FD18B345
:1040A000082013F067FD040002D066685EB900E0E6
:1040B0000026012013F026FD28B1012013F05AFD3F
:1040C000040018BF6668002D9ED0102013F01AFD62
:1040D000002818BF002E97D0B068C11BA86815F043
:1040E00049FC002890D1BFE6012013F00BFDB0B1D0
:1040F000012013F03FFD040014BF66680026002D68
:1041000005D0102013F0FEFC002818BF002E3FF44D
:104110007FAEB068C11BA86815F02CFCE1E7102049
:104120009EE600BF843D0020500F0020D80F0020E5
:10413000540F0020D90F00202DE9F84FDFF88473C9
:104140000446386808B90720B9E1C07A012804D0CC
:10415000042013F0F3FC012801D10C20AFE1DFF8BB
:1041600068030078092818BF0A2804D00B281CBF50
:104170000C280D2801D12120A1E1002C00F0BE80E7
:104180002078002818BF012807D1A078002818BF80
:10419000012804D0022818BF032840F0AF806078BF
:1041A000002818BF012803D0022818BF032873D1A4
:1041B000607A10F0050F6FD00025AA4640F67B42CA
:1041C00043F6FD7340F67746607A0121A940084224
:1041D00036D004EB0A104189A1F1040E9E453EBF82
:1041E000B0F80CC0ACF1040E9E4510D2614522BF60
:1041F000018BB0F816C061450BD3C189A1F1060E41
:1042000096453EBFB0F810C0ACF1060E964575D28B
:104210008C4573D3B0F812C0BCF5FA7F6EDA808A91
:10422000A0F10A0EB6453FBF0CF1010C490001FB9D
:104230000CF1B1EBC00F61D20AF101005FFA80FA14
:104240006D1CE8B20228BFDD39684C61607A06282F
:104250000CBF012000209D49087002F02BF90500D9
:1042600008BF092009D03968A8790874E11CA27830
:10427000402009F073FC08B10B2020E105F1610139
:10428000284617F021FA05F12C0898F80E000128AD
:1042900003DC28460BF034FC30E039686078DFF846
:1042A00030A2DFF830B2DFF830928C4E887260783E
:1042B000002818BF012807D1C00754BF59465146EE
:1042C0003B680622181D3BE030680D3017F010FAED
:1042D00030B999F80010002904BF2078002813D1C4
:1042E0006078C10754BF5946514617F0FDF928B10F
:1042F0006078C10754BF5946514601E01220DEE004
:1043000038680622001D0CE030683B68C11D06229B
:10431000181D16F073F972480168086833680622A0
:10432000D91D16F06BF96078316800F00100087053
:104330006078C10754BF5946514630680622401C78
:1043400016F05CF9207888BBA07885F82E0105F579
:10435000947A0622E11C504616F050F9A178306894
:10436000E21C01F0010117F073FA8346BBF1FF0F65
:104370001CBF99F80000002818D0A07840F0020077
:1043800085F82E011E21326811FB0BFB02EB0B019D
:10439000487F58B901F10D0017F0AAF930B930681B
:1043A0005844C11D0622504616F028F917F088F926
:1043B000A86215F031FF686204F11001DFF80CA16A
:1043C0009AF80000000104F114030A5AA8F8062024
:1043D000195AA8F80A102044428AA8F80820022294
:1043E0003868417C88F80010002088F80220A8F87E
:1043F000040016F03FFD0C2290FBF2F20C2101FBB1
:104400001200401D88F80F0004200AF063FA396892
:10441000344A086082613449416034494161062070
:1044200011F079F839680120C872A87912F032FFCA
:1044300099F80000002801BF386841690A78012A0C
:104440000DD1807A02280AD1316801F10D0017F0F0
:104450004FF920B92648417941F0040141711A4CC5
:104460002078C8B999F8001049B12248006817F0BF
:1044700023F938680068816941F4802181613868D6
:10448000007C0CF085FD062020700122002110F038
:10449000F6FD16F02BFE11E03A68117ED0685269E5
:1044A0009AF8004002F10C03240140F6C4121D5B8F
:1044B00002FB050000F516600AF08AF80020BDE84E
:1044C000F28F00BF540F0020C80F0020D90F00202A
:1044D000480E0020400E0020880E0020680F0020AB
:1044E000903D002002008080040C0020D9330100A0
:1044F000BC0A00206C0F00202DE9F84785B0044667
:104500008A4611F8010B00272C22072804F5A47510
:1045100004F1660804F1FD06DFF86C93DFF86C33F4
:1045200000F07081092810D00C2800F033810E288B
:104530000BD00F280DD0112800F0DE801A2800F0D3
:10454000F0801B2800F0188179E120460FF046FD2D
:1045500075E13378980705D40F213177204617F09D
:1045600027F906E198F81000012804BF98F8110017
:104570000F2811D098F8150010B198F811201AB131
:1045800098F81C20012A09D1580705D40F2131774A
:10459000204617F00DF9ECE0232268E018B198F8F6
:1045A0001100012804D004F18607B87A012809D146
:1045B000580705D40F213177204617F0F9F8D8E0D5
:1045C0002A2254E008784A7800EB02232B8088786E
:1045D000CA7800EB02236B8008794A7900EB02234A
:1045E000AB808879CA7900EB0223EB80087A2872C5
:1045F0004A7A887A02EB00236B81C87A0A7B00EB47
:104600000223AB81487B8A7B00EB0223EB81C87BD2
:104610000A7C00EB02232B82487C8A7C00EB02237D
:104620006B82C87C0A7D00EB0223AB82487D897DCA
:1046300000EB0122EA8204F5AA70049069890391D3
:10464000287A029021890191E8880090AB886A88D5
:104650002988204617F0A8F8B0B13078410705D472
:104660000F203077204617F0A3F882E01E220F219A
:10467000204617F095F8E8880090AB886A88A17901
:10468000002010F04DFEBBE06888B8800022A988A9
:10469000F9800221E888388139707A80A08EC01DA7
:1046A000A8F81E00618EB888B0EB510F02BFF888E1
:1046B000A18E884202BF3889E18EB0EB111F19D05C
:1046C00098F8150000281CBF98F811001A2804D08B
:1046D0000F2188F81A10FE2181E0FC21204617F0F6
:1046E0005BF8E8880090AB886A882988A07917F081
:1046F0004FF885E0002172E0087828761A2849787A
:10470000697640F09C801868A679411C56438F5505
:104710001968A37912FB03F20A441771A179687E24
:1047200086E094F806C018680E7812FB0CFC604412
:1047300000F1210506F01F012878B60938B1687824
:10474000F040C00703D594F89601042805D1202233
:104750001A21204617F024F852E0E970A179186870
:1047600012FB01F28118204681F82360002116F027
:1047700085FC002844D13AE0A179186851430144EE
:10478000C88800B94F70A179186812FB01F281182E
:104790000F7135E0327C012A0FD011F8010BF07453
:1047A000022204F5897016F0EFFF0146022204F59B
:1047B0008A7016F0E9FF0120307498F8060020B9DD
:1047C0003D210120F176B0761AE0B07C002804BFCC
:1047D000717C002914D198F8000020B90C212046E2
:1047E00016F0DAFF0CE0204616F0BAFF30B999F85F
:1047F00000004FF4804109F0F5FC01E00120B074A5
:10480000012720E008780F2815D01A2817D1A079A1
:104810001968504308444770A0791B6812FB00F2E6
:1048200098180771B07800F0FB00B0701A20A179D9
:1048300008F08BFEE4E7307800F0FD003070514660
:10484000204616F035FF98F811001A2818D198F86C
:104850001200182818BF002803D0152818BFFC28FC
:104860000ED198F81060204616F072FF012E03BF9B
:104870001A2088F81A00FD211A21204616F08CFF14
:10488000384606B0BDE8F087C70F0020703D002015
:104890002DE9F04F8FB00746189800250193002AA4
:1048A0008DF8200000F09C810AA80E464FF0FF3ED4
:1048B0004FF0200B002400F1100CCDF800C0114681
:1048C00011F8010B25280E910CD0002800F08481EE
:1048D000022EC0F01981013E002F00F0148107F86C
:1048E000010B11E15378901C0E902D2B07D14FF046
:1048F000010AD01C93788DF80DA00E9003E04FF0C4
:10490000000A8DF80DA0302B05D10121069110F879
:10491000011B0E9001E0194606952A29CDF810E0FA
:10492000029517D1019D29680A1D2A60D1F80080DF
:10493000CDF80880B8F1FF3F10F8011B0E9007DC9E
:104940004FF0010AC8F100088DF80DA0CDF80880DD
:10495000002511E04FF00008A1F13002092A08D823
:1049600008EB880201EB4201A1F1300810F8011BAD
:10497000F2E70E90CDF808802E2914D10495024656
:1049800012F8011B2A290E9210D1019D29680A1DD7
:104990002A600025096821EAE179CDF81090417874
:1049A00002300E9015E04FF0FF3912E04FF0000991
:1049B000A1F13000092808D809EB890001EB40007B
:1049C00012F8011BA0F13009F2E710460E92CDF863
:1049D0001090302B41F0200306BFCDF818804246DE
:1049E00000226C2B06D101218DF80C1010F8011B50
:1049F0000E9001E08DF80C50CDF81CC00AAB69296F
:104A00000595099301D0642916D1019B1868011DF1
:104A1000196091456FF00903C8BF4A4601686046B6
:104A200006920EF0DDF9DDF800C04FF0FF3E099070
:104A3000ACEB0001059129E075290AD0A1F16F03C3
:104A4000092B64D8DFE803F0058C6F6FA96F6F6FD7
:104A50006F05019D2868031D2B6078294FF008031E
:104A600008BF1023752908BF0A239145C8BF4A46CD
:104A70000168604606920EF0B3F9DDF800C04FF011
:104A8000FF3E0990ACEB000105910025A8EB010069
:104A9000BAF1000F02900FD109E0022E05D3013EBA
:104AA00017B107F801BB00E00027013801340128E5
:104AB000F3DA05990138029009980A465AB1022E94
:104AC00006D3013E1FB1037807F8013B00E0002741
:104AD000013A0130F2E70C44BAF1000F0990CDF829
:104AE00014E012D0029801280ADB022E05D3013E01
:104AF00017B107F801BB00E0002701380134F2E7E5
:104B00000138029001E0002701340E9AD7E66329AC
:104B100009D1019A1068011D1160012100680591F9
:104B20008DF82800B1E70138022E0E9052D36FF0B5
:104B30000040864238BF3046B14538BF09F1010018
:104B400004900EA9019A02AB05F0AEFEDDF800C09C
:104B50009DF80DA0DDF8088005994FF0FF3E94E721
:104B6000019A10231068011D116008210822069186
:104B70009DF820100029016860460EF031F94FF0D1
:104B80004001DDF800C04FF000054FF0FF3E00F897
:104B9000011DACEB000109904CE7019A1068011D62
:104BA00011609DF82010006800290F49002808BFF7
:104BB0000846099015F07BFF814501464FF0FF3E06
:104BC00038BF494619F1010208BF0146DDF800C0AF
:104BD00000252FE7002158E70FB100203870254647
:104BE00028460FB0BDE8F08FA7DB01002DE9F84F94
:104BF000054605F14C08E87D98F80010D8F804A0A7
:104C000000248142C0F0918105F128060AF1900943
:104C10000AF17307A34640F08D80A87F7875E97F7D
:104C2000B975D8F80820527893070FD5EA7FD306D4
:104C300004D5C01E787501F0EF01B975CAF874B0DB
:104C40003C700022B97D01F0FE0169E1910608D4B3
:104C5000F08B00B1F07E3876F08B00B1306AC9F885
:104C60000000D8F808004178CA070DD5F08B00285D
:104C70001CBF306A002807D0C9F80000B17EF08B55
:104C8000814238BF08463876E87FC10610D5DAF889
:104C90003800317800EB8100CAF83800DAF83800C3
:104CA000A98CA63100EB8100CAF87400022002E052
:104CB000CAF874B000203870D8F80800417811F0B4
:104CC000030F21D1007816F0CDF904001CD094F820
:104CD000B000032809D1E87F810615D440F02000F8
:104CE000E877B87D40F020000DE068B9E87F8106E4
:104CF0000AD500F0DF00E877787DA0F11201797520
:104D0000B87D00F0DF00B875E97F002201F0FC01FA
:104D1000284608F049FE002C35D0E87F810632D5C0
:104D200094F8B00002282ED121462846BDE8F44F61
:104D300016F0A6B9E87F81060AD500F0DF00E87713
:104D4000787DA0F112017975B87D00F0DF00B875AB
:104D5000D8F808004178C80716D5B87D797D00F0ED
:104D6000F700891E01F03F0182075CBF891D40F0FA
:104D70000200420644BF491E00F0BF00B8757975B5
:104D8000C9F800B03C76D0E098F80040E87D241ADD
:104D90008907E4B240F18480012C40D1DAF8380070
:104DA000A98C00EB8100CAF83800A87F00F03F0012
:104DB000A8777875E97FB975D8F8082053785A072D
:104DC00003D5801F787501F0FD01B9750023797D49
:104DD0009AF84000F27E01F03F018A18C0F380018A
:104DE000521C00F0030016F05FFC00F59B70A884D5
:104DF0001E2180B290FBF1F0B97D82B201F0FE017C
:104E0000284608F0D1FD87F800B0F08B00B1F07EA5
:104E10003876F08B00B1306AC9F8000085E0DAF826
:104E20003800A98C022C00EB8100CAF8380026D18A
:104E3000E87FC10706D5787D811F7975B87D00F0C0
:104E4000FE00B8750023797D9AF84000F27E01F0EB
:104E50003F018A18C0F38001521C00F0030016F0D5
:104E600023FC00F59B70A8840022B97D01F0FE01AF
:104E7000284608F099FD707F0AF140014883707F51
:104E8000401C041BE0B2012821DDDAF83810AA8C9E
:104E9000A63201EB8201CAF874100221397017E0C2
:104EA000DAF83800A98C00EB8100CAF83800E97FF5
:104EB000707F041BCA06E0B209D5DAF83810AA8C54
:104EC000A63201EB8201CAF874100221397060B376
:104ED000EC7FA97FD9F80020F37E1A44C9F800209E
:104EE00024F00104D8F8082053785A0748BF24F06A
:104EF0000204012807D1307F3876CAF874B024F054
:104F0000100487F800B001F0C006E0B216F0C8FB4C
:104F100000F03F0030437875BC75002204F0FC01BE
:104F20002846BDE8F84F08F03FBDBDE8F18F704757
:104F30002DE9FE4F0422FF2101A815F069FBB24EB6
:104F4000B078FF284FF0000800F05C8115F04CFBB2
:104F50000546B07815F0E8FC064605F21710017812
:104F6000012908BF417800F0078105F5927BBBF865
:104F70000E1019B19BF80C0009F034F9082010F05C
:104F8000CAFA6889288105F1740A9AF80E00022885
:104F900013D1307FC0F3C00068B1E88E00090090E3
:104FA00000206A8EAB8EA979520816F075FB307F0F
:104FB00000F0E70030778AF80E8095F89201022819
:104FC00008BF85F892819AF81C00022808BF8AF869
:104FD0001C80F78B8D4CA17A94F807C0237BE27A72
:104FE000607B6744F78301EB0C0E378C94F808C0A4
:104FF000674437849E44778C94F809C0964467448C
:105000000EEB00097784B6F824E08E44A6F824E07D
:10501000F78C3A44F28405F58D77328D1344728D06
:10502000338510187085B38D2078F28D1818B085EF
:1050300060781018F085328EA07810183086728E45
:10504000E07810187086B28E20791018B086F28E33
:1050500060791018F086328FA07910183087B888E0
:10506000401CB8803A884A443A807888081878808A
:10507000DBF80000E0B1664B95F806E01B681C22E7
:1050800003F10E0C12FB0EFE0E331CF80EC030F8AE
:105090001CB0CB4420F81CB095F806C012FB0CF2F3
:1050A0009A5C00EB4200B0F84A30C918A0F84A10E8
:1050B00013F094FAE079002804BFE07A002805D1C3
:1050C000207B002804BF607B002825D0F07E0021D3
:1050D000C009C346F1810BD0307F10F0070F04D117
:1050E000411C61F30200307702E0A87915F0C4FF9B
:1050F0002989E88985F810804118A9810122A979B8
:1051000008200FF0BCFF434948690078810737D574
:10511000A07B802834D034E0A979002208200FF049
:10512000AEFF307F10F0070F02D1F07EC00903D030
:10513000A879002115F0A0FFA07A40B1287C4FF09B
:10514000010B08B1E889A88185F8108004E0F8888F
:10515000401C4FF0020BF880A8892989814206D0B3
:105160008842D0D2081A41F2AB018842CBDA3888A3
:1051700000280CBF3E210821284613F0CDFE41E057
:1051800081208AF80000244991F8200018B12946AE
:10519000012015F061FF284607F0BCFD02281DD153
:1051A0009AF80700022805DB01AA1C4928460FF0DF
:1051B000EFF98046284616F06BFA012822D05FEA04
:1051C00008000DD0424601A928460FF053FE38B919
:1051D000284607F09FFD012802D113E0012811D0D5
:1051E0000121284616F050FA2A464946584607F04B
:1051F000F7FE03F001FF012804D0284615F09EFFBA
:1052000015F074FFBDE8F78F780E0020980C002091
:10521000980E002028D00100603A0020F4230020DE
:105220002DE9F0417E4C072000267E494FF0FF35E6
:10523000C4E902063820C4E9001515F0E3FE206138
:10524000F0B17949C0E900612069C8B17749784A6D
:10525000C0E90221206998B176490022DFF8D8C15F
:10526000784FDFF8D8E1764E784BC0E90C217649CB
:10527000C0E90627C0E9086EC0E90A2CC0E904317C
:10528000694E02207249C6E90204102015F00CFE96
:10529000306140B16F49704AC0E90021306910B1F6
:1052A0006E4AC0E90221634E03206D494FF0FF357D
:1052B000C6E90204182015F0F7FD306168B16949AC
:1052C000694AC0E90021306938B1684AC0E9022161
:1052D000306910B1664AC0E904215A4E0820654978
:1052E000C6E90204402015F0DFFD6349306100206B
:1052F0000022082A08D0336923B143F8320003EBB7
:10530000C20359600132F4E74B4F08205B494FF06C
:10531000FF32C7E902044020C7E9001215F072FE0F
:105320005749386100200022082A08D03B6923B180
:1053300043F8320003EBC20359600132F4E7514DE8
:10534000072000214FF0FF36C5E902073820C5E9E4
:10535000001615F057FE286100B34B494B4AC0E9CF
:1053600000212969D1B14A4A0020C1E90202296914
:10537000A1B1484A484BDFF824C1DFF824E1DFF847
:1053800024814B4FC1E90C32474A484BC1E9088E92
:10539000C1E90A0CC1E90472C1E906323C4F04209C
:1053A0004449C7E902052020C7E9001615F02AFE86
:1053B000386180B14049414AC0E90021386950B1A3
:1053C0003F4AC0E90221386928B13E4A3E4BC0E954
:1053D0000431C0E90621314D05203C494FF0FF3230
:1053E000C5E902042820C5E9001215F00BFE28616A
:1053F00098B13749184AC0E90021286968B1354A8F
:10540000C0E90221286940B1334A144B334CC0E94A
:105410000441C0E90631C0E90821BDE8F08100BFC0
:10542000A43C002059D90100CC3C00200D8901008A
:10543000F8D70100543C0020E03C0020E5A4010026
:1054400091D701007C3C0020F9A40100E7D70100BE
:10545000C5D701005143010092DB0100BADB010016
:105460008CD80100B5D100004CDB010054DB0100F9
:1054700044DB0100A4DA0100B9260100D0DA010002
:10548000AD100100B83C002059560100DADA0100E5
:10549000903C0020C59C0100C5DA0100683C00205A
:1054A000250001006DD70100F11A01007FD701002E
:1054B000C4D60100BADA0100611301008EDA0100DE
:1054C00083DA010078DA0100AFDA010016D50100B5
:1054D000654C010099DB010088D6010099DA0100D2
:1054E0002DE9F04F89B0A24E0546A24F307803282F
:1054F000387040F0AD8000203070387002AC20462B
:1055000015F04BFD2046002114F01AFD9A4CB860AE
:105510002E21204615F0E4FC4FF0FF30A0822061E0
:10552000E06013F0B1F90020294610F019FD07F1F1
:105530001001F86015F010FDD7E905128F4DB1FB91
:10554000F2F0C0B2022828BF0220B2F5005F20703E
:1055500028707BD1B1EB403F78D3F968002975D032
:105560004FF6FF7100274FF088586FF0030B6180F2
:1055700083496160C0B287426DD2FEB2002108AAA1
:105580000423304615F020F907EB470004EB800AAE
:105590000898D14600F47C0129F8160FB1F5402F88
:1055A00004D000F07F41B1F1164F3ED1C0F301416C
:1055B0008AF819106FF0FD0151FA80F21021022AC9
:1055C00031D3C2B27E2A2ED003A812F0BFF83046E3
:1055D00000214FF088524FF400534FF4005515F05E
:1055E000F3F81BFA85F5A8B250F808104A1C01D14F
:1055F0000328F6D801220126D3B2042B06D8CBB259
:10560000FF2B18BF16460132090AF5E740F80810CB
:105610005D480399006842685C48904755FA86F1F6
:1056200099F80000554DAAF81C10C0B2702809D096
:10563000782803D0FE2803D07C2804D1E77002E04C
:10564000A77000E027712878013793E701203070B8
:1056500009B0BDE8F08FE278FF2A03D0DFF81481AB
:10566000012528E02279DFF80C81FF2A02D0E270C0
:10567000022520E0A1784A1CD1B291420CD1B1FBA5
:10568000F0F202FB101202EB420004EB8000808B70
:105690000028ECD1FF20A07000250020E5700AF062
:1056A00087FF98F8001008437E2188F8000000204A
:1056B00012F08CFBE278A078FF2815D12F49012049
:1056C00050FA82F00978B0FBF1F202FB1100A070F1
:1056D0000AF06EFF98F800100843FE2188F80000D9
:1056E000A07812F073FBE278264862700570D0B2A1
:1056F000400050FA82F0022D04EB8000818BE180A3
:1057000028D0012D2BD103AD002788B2182826D32D
:105710000739D0B22A4689B20CF02EF99DF817004D
:10572000400717D5E088BDF81A10E6782A4603230B
:105730000097401A073881B2304605F077FDE278CD
:1057400020B9BDF8181009B196420BD0964206D088
:10575000E188DAE701206071002000F069FD98F827
:10576000000075E79DF81C0010F0C6F9F7E700BFD0
:1057700007230020E0210020083A00200B3E0020F3
:10578000FF0000200C3E0020D80100100040034024
:10579000F8B5144600254FF48067DFF89862C21B05
:1057A00084B006F1880337D0921E3CD0521E44D0FC
:1057B000521E4AD0521E50D0521E54D0521E00F0DB
:1057C0007A80921E00F07C80D21E00F0AC80521EC7
:1057D00000F0B780921E00F0C080521E00F07B8067
:1057E000521E00F0C180521E00F0CF80521E00F009
:1057F000D280521E3ED0521E56D0521E4BD0921E08
:1058000000F0DE80921E00F0E280521E00F0ED807B
:10581000521E00F0F98000E101290FD12078022802
:1058200017DC707003E1012908D12078022810DA12
:105830000028B070F6D1B074E3E0012940F0EB80AD
:105840002078052805DAF070F1E001296CD1207884
:10585000022880F2E0807073E9E0102964D1102200
:105860002146754814E001295ED12078022863DAC8
:105870003071DCE0012957D1207802285CDA002859
:105880007071F6D00120F074602206F128011846EC
:1058900014F0B4FECBE00129FCD12078022802DA12
:1058A000B07115F071F8C2E001293DD120780228CD
:1058B00042DAF072BBE0012936D12078F073B6E00D
:1058C000002931D115F080FF10B9FBF7D9FD1DE09B
:1058D0000120F075ABE0072926D10622611C02A841
:1058E00014F0BEFC00950023217801AA02A809F05B
:1058F00049FCB0B9F07A10B915F066FF10B1F07A32
:10590000012808D19DF80400FBF7CBFD0546502087
:1059100014F070F81EE0716A9DF80420012088548C
:1059200085E0342583E0012975D1717C2078022936
:1059300003D0C11F0A2902D36DE010286BD1307447
:1059400075E0012967D1B17D2078B075002908BFC5
:1059500001286CD1FBF71EFD69E001295BD120789D
:10596000052858DA307562E0012954D120780228E0
:1059700051DC00284FD07074022803BF102030740F
:105980000120002015F07CFE51E0012943D1207850
:1059900014F05CFA4BE0707900283CD1602908D102
:1059A000002C38D060222146184614F027FE012032
:1059B00004E001292FD1002C2DD02078F07436E09E
:1059C000012928D13CB320781C4908702FE011BB75
:1059D00015F0FAFE30B9FBF7FAFD0546502014F039
:1059E00009F824E00120307621E0012913D1217843
:1059F000022910DA012904BFB078002816D0B1744A
:105A0000084614F0C9FF12E0012904D120780228C9
:105A1000B8BF70750BDB182509E00F2806DA0229DC
:105A200004D1218811F09EF8054600E002252846A1
:105A300005B0F0BD741A0020F43A0020063E0020A4
:105A400086492DE9F043864C864E20700A220020BC
:105A500008600D2384484FF40A71027043808180EE
:105A600085B082480660B77E81480770FF2FF17EBF
:105A70004170327F8270737FC370B57F0571F67F8E
:105A8000467108BFFF2914D1FF2A08BFFF2B10D190
:105A9000FF2D08BFFF2E0CD176490A7802704B7893
:105AA00043708A788270CB78C3700A790271497921
:105AB000417171490278714D714E724F0A7043788D
:105AC0004B7082788A70C378CB7002790A71407902
:105AD0006D4A4871FF2028706870A870E8702871BE
